:020000040800F2
:100000002C18002041050008910100089901000802
:10001000A1010008A9010008B10100088901000838
:10002000890100088901000889010008B901000858
:10003000C101000889010008C9010008D1010008B8
:10004000D9010008E1010008E9010008F1010008F8
:10005000F901000801020008090200081102000865
:1000600019020008210200082902000831020008D4
:100070003902000841020008490200085102000844
:1000800059020008610200086902000871020008B4
:100090007902000881020008890200089102000824
:1000A00099020008A1020008A9020008B102000894
:1000B000B9020008C1020008C9020008D102000804
:1000C000D9020008E1020008E9020008F102000874
:1000D000F9020008010300080903000811030008E1
:1000E0001903000821030008290300083103000850
:1000F00039030008410300084903000851030008C0
:10010000590300086103000869030008710300082F
:10011000790300088103000889030008910300089F
:1001200099030008A1030008A9030008B10300080F
:10013000B9030008C1030008C9030008D10300087F
:10014000D9030008E1030008E9030008F1030008EF
:10015000F90300080104000809040008110400085C
:1001600019040008210400082904000831040008CB
:10017000390400084104000849040008510400083B
:1001800059040008610400084FF0000000F06CB949
:100190004FF0020000F068B94FF0030000F064B9BE
:1001A0004FF0040000F060B94FF0050000F05CB9BA
:1001B0004FF0060000F058B94FF00B0000F054B9B2
:1001C0004FF00C0000F050B94FF00E0000F04CB9A9
:1001D0004FF00F0000F048B94FF0100000F044B9A4
:1001E0004FF0110000F040B94FF0120000F03CB9A0
:1001F0004FF0130000F038B94FF0140000F034B99C
:100200004FF0150000F030B94FF0160000F02CB997
:100210004FF0170000F028B94FF0180000F024B993
:100220004FF0190000F020B94FF01A0000F01CB98F
:100230004FF01B0000F018B94FF01C0000F014B98B
:100240004FF01D0000F010B94FF01E0000F00CB987
:100250004FF01F0000F008B94FF0200000F004B983
:100260004FF0210000F000B94FF0220000F0FCB880
:100270004FF0230000F0F8B84FF0240000F0F4B87D
:100280004FF0250000F0F0B84FF0260000F0ECB879
:100290004FF0270000F0E8B84FF0280000F0E4B875
:1002A0004FF0290000F0E0B84FF02A0000F0DCB871
:1002B0004FF02B0000F0D8B84FF02C0000F0D4B86D
:1002C0004FF02D0000F0D0B84FF02E0000F0CCB869
:1002D0004FF02F0000F0C8B84FF0300000F0C4B865
:1002E0004FF0310000F0C0B84FF0320000F0BCB861
:1002F0004FF0330000F0B8B84FF0340000F0B4B85D
:100300004FF0350000F0B0B84FF0360000F0ACB858
:100310004FF0370000F0A8B84FF0380000F0A4B854
:100320004FF0390000F0A0B84FF03A0000F09CB850
:100330004FF03B0000F098B84FF03C0000F094B84C
:100340004FF03D0000F090B84FF03E0000F08CB848
:100350004FF03F0000F088B84FF0400000F084B844
:100360004FF0410000F080B84FF0420000F07CB840
:100370004FF0430000F078B84FF0440000F074B83C
:100380004FF0450000F070B84FF0460000F06CB838
:100390004FF0470000F068B84FF0480000F064B834
:1003A0004FF0490000F060B84FF04A0000F05CB830
:1003B0004FF04B0000F058B84FF04C0000F054B82C
:1003C0004FF04D0000F050B84FF04E0000F04CB828
:1003D0004FF04F0000F048B84FF0500000F044B824
:1003E0004FF0510000F040B84FF0520000F03CB820
:1003F0004FF0530000F038B84FF0540000F034B81C
:100400004FF0550000F030B84FF0560000F02CB817
:100410004FF0570000F028B84FF0580000F024B813
:100420004FF0590000F020B84FF05A0000F01CB80F
:100430004FF05B0000F018B84FF05C0000F014B80B
:100440004FF05D0000F010B84FF05E0000F00CB807
:100450004FF05F0000F008B84FF0600000F004B803
:100460004FF0610000F000B86A4602F12002EFF39D
:100470001083A1B02DE9FC0F72B669466C4624F0DA
:100480000702954601F0E0F8214688420BD000F0C3
:100490001EF800F1AC0191E8F00F016821E9F00FBE
:1004A00090E8FC0F03E0B1E8FC0F01F1840181F357
:1004B00008886FF0060E83F31088704700F128015A
:1004C000A1EC200AF1EE102A41F8042B704700F14C
:1004D0002801B1EC200A51F8042BE1EE102A7047F4
:1004E00080B485B000AFEFF31483BB60BB68FB60E2
:1004F000FB6823F00403FB60FB687B607B6883F38D
:1005000014880D4B1B68FB60FB6823F04043FB60C5
:10051000094AFB681360094B1B68FB60FB6843F4E6
:100520007003FB60054AFB68136000BF1437BD46CB
:100530005DF8047B704700BF34EF00E088ED00E019
:1005400080B582B000AF00F0B7F9FFF7C9FF00F047
:10055000ADFB00F0C3F9412000F08EFB1A4B3B606D
:1005600004E03B681A1D3A6000221A603B68174A93
:100570009342F6D3422000F07FFB154B7B60154B76
:100580003B6007E03B681A1D3A607A68111D79608C
:1005900012681A603B68104A9342F3D3432000F07C
:1005A0006BFB00F08FFF442000F066FB01F068FC5D
:1005B000462000F061FB0D2000F05EFB0A2000F0F9
:1005C0005BFB02F02BF800BF70020020301400200B
:1005D000AC5D0208000000207002002080B483B0EF
:1005E00000AF174B1B687B607B6843F001037B60A7
:1005F000134A7B681360134B00221A60104B1B6870
:100600007B607B6823F0847323F480337B600C4A27
:100610007B6813600C4B0D4A1A60094B1B687B60AA
:100620007B6823F480237B60054A7B681360084B5A
:1006300000221A6000BF0C37BD465DF8047B70478E
:1006400000380240083802400438024010300024CC
:100650000C38024080B483B000AF0D4B1B687B6048
:100660007B686FEA53236FEA43237B607B6843F424
:1006700000137B607B6843F480037B60044A7B68E3
:10068000136000BF0C37BD465DF8047B704700BFA8
:100690003038024080B483B000AF064B1B687B60EB
:1006A000044A7B68136000BF0C37BD465DF8047BCD
:1006B000704700BF3438024080B400AF00BFBD4671
:1006C0005DF8047B704700BF80B483B000AF124B6D
:1006D0001B687B607B6843F480437B607B6843F4EA
:1006E00000437B607B6843F400337B607B6843F4AA
:1006F00000237B607B6843F480037B607B6843F06E
:1007000080537B60044A7B68136000BF0C37BD4692
:100710005DF8047B704700BF4038024080B483B06E
:1007200000AF0C4B1B687B607B6843F010037B6061
:100730007B6843F480537B607B6843F480437B6039
:10074000044A7B68136000BF0C37BD465DF8047B2C
:10075000704700BF4438024080B483B000AF474BBD
:100760001B687B607B6843F480337B60434A7B6813
:100770001360434B3B6008E0404B1B6803F40033BD
:10078000002B06D13B68013B3B603B68002BF3DC50
:1007900000E000BF3B68002B6ADD3A4B1B687B60C2
:1007A0007B6843F080537B60364A7B681360364B2E
:1007B0001B687B607B6843F480437B60324A7B68C4
:1007C0001360324B1B687B607B6823F0F0037B6017
:1007D0002E4A7B6813602D4B1B687B607B6823F47B
:1007E00060437B607B6843F400437B60274A7B68FF
:1007F0001360264B1B687B607B6823F4E0537B60AF
:100800007B6843F4A0537B60204A7B681360204BD5
:100810007B60204A7B681360184B1B687B607B6899
:1008200043F080737B60154A7B68136000BF134BF5
:100830001B6803F00073002BF9D040F205637B6066
:10084000154A7B681360114B1B687B607B6823F043
:1008500003037B607B6843F002037B600B4A7B6889
:10086000136000BF094B1B6803F00C03082BF9D180
:1008700000BF0C37BD465DF8047B7047003802406E
:1008800014821900403802400070004008380240CD
:100890000854400704380240003C024080B500AFD5
:1008A000FFF7D8FEFFF7F6FEFFF706FFFFF70CFF96
:1008B000FFF734FF00BF80BD80B500AFFFF78EFEAD
:1008C000FFF74AFFFFF7EAFF00BF80BD80B400AF2B
:1008D00000BFBD465DF8047B704700BF80B500AF28
:1008E000FFF7F4FF00BF80BD80B58EB000AF786029
:1008F0007B681B0903F00F033B623B6A082B02D99C
:100900006FF015033FE1A24A3B6A52F82330FB61C6
:100910007B6803F00F03BB617B6803F44023B3F5EE
:10092000002F17D0B3F5402F17D0B3F5802F02D08A
:1009300000237B6214E07B6803F48073002B14BFF8
:1009400001230023DBB21946786800F035F9012352
:100950007B6205E002237B6202E003237B6200BF2F
:10096000EFF3108372B67B817B89BB82FB691B68C6
:100970007B63BB695B00032202FA03F3DB431A4685
:100980007B6B13407B63BB695B007A6A02FA03F3FB
:100990007A6B13437B63FB697A6B1A6000233B63BA
:1009A0007B6A032B0FD07B6803F44033B3F5803FA1
:1009B00003D0B3F5003F03D005E001233B6302E021
:1009C00002233B6300BFFB690C331B687B63BB697D
:1009D0005B00032202FA03F3DB431A467B6B1340EE
:1009E0007B63BB695B003A6B02FA03F37A6B1343D8
:1009F0007B63FB690C331A467B6B13607B6A022BAB
:100A000005D17B681B0B03F00F033B6301E0002360
:100A10003B63BB69072B04D82023FB62BB69BB6225
:100A200004E02423FB62BB69083BBB62FA69FB6AF2
:100A300013441B687B63BB6A9B000F2202FA03F31B
:100A4000DB431A467B6B13407B63BB6A9B003A6BAC
:100A500002FA03F37A6B13437B63FA69FB6A13446C
:100A60001A467B6B13607B6A012B02D07B6A022BD8
:100A700018D17B6803F44063B3F5006F0BD0B3F576
:100A8000406F0BD0B3F5806F02D000233B6308E0CA
:100A900001233B6305E002233B6302E003233B6346
:100AA00000BF01E000233B63FB6908331B687B63E5
:100AB000BB695B00032202FA03F3DB431A467B6B3C
:100AC00013407B63BB695B003A6B02FA03F37A6BFA
:100AD00013437B63FB6908331A467B6B1360FB6926
:100AE00004331B687B630122BB6902FA03F33B6397
:100AF0007B6A012B02D07B6A022B09D17B6803F44D
:100B00000073002B04D07A6B3B6B13437B6304E0D0
:100B10003B6BDB437A6B13407B63FB6904331A4600
:100B20007B6B13607B6A012B25D07B6803F4807399
:100B3000002B20D0BB6903F00C02164B13443B6121
:100B40003B691B687B63BB699B0003F00C03FB6084
:100B50000F22FB6802FA03F3DB431A467B6B134058
:100B60007B633A6AFB6802FA03F37A6B13437B6395
:100B70003B697A6B1A60BB8AFB82FB8A13F0010F18
:100B800000D162B6002318463837BD4680BD00BF8D
:100B9000E44102080838014080B582B000AF7860B7
:100BA0007B68DBB27B607868FFF79EFE03461846E1
:100BB0000837BD4680BD00BF80B487B000AF786005
:100BC0000B46FB707B681B0903F00F033B613B691D
:100BD000082B1CD8114A3B6952F82330FB607B6814
:100BE00003F00F03BB60FB78002B05D00122BB682C
:100BF00002FA03F37B6105E0BB681033012202FABD
:100C000003F37B61FB6818331A467B69136000BFEE
:100C10001C37BD465DF8047B704700BFE441020805
:100C200080B487B000AF78607B681B0903F00F03C6
:100C30007B617B69082B16D80E4A7B6952F82330FA
:100C40003B617B6803F00F03FB603B6910331B685B
:100C50000121FA6801FA02F21340002B14BF0123AC
:100C60000023DBB200E0002318461C37BD465DF8C8
:100C7000047B7047E441020880B483B000AF0346B0
:100C8000FB7100BF074B1B6803F08003002BF9D0FA
:100C9000054AFB79136000BF0C37BD465DF8047B45
:100CA000704700BF001001400410014080B582B0C1
:100CB00000AF102200211F4800F09EFC1E48FFF7E5
:100CC00013FE1E48FFF710FE1D4B1B687B607B6800
:100CD00023F47D537B601A4A7B681360194B1B68B1
:100CE0007B607B6823F4BB5323F01C037B60154AB5
:100CF0007B681360144B1B687B607B6823F4E063A4
:100D000023F001037B60104A7B6813600F4B40F2B5
:100D1000D9221A600B4B1B687B607B6843F400533D
:100D200043F00C037B60074A7B68136000BF083701
:100D3000BD4680BD44380240097C09000A7C090098
:100D4000101001400C100140141001400810014027
:100D500080B483B000AF786039607B681A6C3B6800
:100D600013441B6818460C37BD465DF8047B70477A
:100D700080B485B000AFF860B9607A60FB681A6C27
:100D8000BB6813441A467B68136000BF1437BD4626
:100D90005DF8047B704700BF80B584B000AF786019
:100DA0000B467B807B687A889A850C217868FFF7F0
:100DB000CFFFF860FB6823F4D073FB607B8803F4FB
:100DC000D073FA681343FB60FA680C217868FFF768
:100DD000CFFF14217868FFF7BBFFF860FB6823F0B2
:100DE0000103FB607B8803F00103FA681343FB6097
:100DF000FA6814217868FFF7BBFF00BF1037BD46C3
:100E000080BD00BF80B584B000AF78600B467B80AA
:100E1000EFF3108372B6BB81BB89FB817B881946D7
:100E20007868FFF7B9FFFB897B817B8913F0010F9D
:100E300000D162B600BF1037BD4680BD80B586B018
:100E400000AF78603960EFF3108372B67B817B89E5
:100E5000BB823B68002B17D00C217868FFF778FF26
:100E6000386114217868FFF773FFF8603B699BB223
:100E700003F4D0739AB2FB689BB203F001039BB2F8
:100E800013439AB23B681A8000217868FFF784FF09
:100E9000BB8AFB82FB8A13F0010F00D162B600BF50
:100EA0001837BD4680BD00BF80B588B000AF786000
:100EB0007B689B6A3B610C213869FFF749FF7861C9
:100EC0003B69DA6B3B695B6B5B08B2FBF3F3FB607E
:100ED000FB685B09FB61FB695B01FA68D31A0133AC
:100EE0005B08BB61FB69002B0ED17B6943F40043B7
:100EF0007B61FB681B09FB61FB691B01FA68D31A64
:100F000001335B08BB6103E07B6923F400437B6131
:100F1000FB691B01BB60BA68BB691343BB607A699C
:100F20000C213869FFF724FFBA6808213869FFF7F8
:100F30001FFF7B6923F4B0537B613B6993F8313029
:100F4000012B04D17B6943F4C0637B6108E03B69FA
:100F500093F83130022B03D17B6943F480637B61CA
:100F60003B6993F83230092B09D03B6993F8323052
:100F7000082B08D13B6993F83130002B03D07B69F3
:100F800043F480537B617A690C213869FFF7F0FEE6
:100F900010213869FFF7DCFE78617B6923F4405348
:100FA0007B613B6993F83330002B03D07B6943F4BA
:100FB00000537B617A6910213869FFF7D9FE14214B
:100FC0003869FFF7C5FE78617B6923F440737B6164
:100FD0007A6914213869FFF7CBFE00BF2037BD4680
:100FE00080BD00BF80B586B000AF78600B46FB7057
:100FF0007B689B6AFB60FB681B6C164A934211D0AE
:10100000154A934203D0154A934205D01EE010239F
:101010007B61134B3B610BE04FF400337B61114B61
:101020003B6105E04FF400237B610E4B3B6100BF49
:10103000FB78002B05D07A690021386900F0DCFAD2
:1010400004E000227969386900F0D6FA1837BD4605
:1010500080BD00BF004C0040001001400044004033
:10106000443802404038024080B584B000AF786018
:101070007B689B6ABB6001217868FFF7B3FFBB68A0
:101080005B6C1846FFF730FCBB689B6C1846FFF79B
:101090002BFC1021B868FFF75BFEF860FB6823F4B7
:1010A0007D53FB60BB6893F83330002B03D0FB68A3
:1010B00043F40053FB60FA681021B868FFF758FE4C
:1010C0000C21B868FFF744FEF860FB6823F4BE7398
:1010D000FB60FA680C21B868FFF74AFE1421B86873
:1010E000FFF736FEF860FB6823F4E06323F00103AA
:1010F000FB60FA681421B868FFF73AFE7868FFF7DA
:10110000D3FE0C21B868FFF723FEF860FB6843F4B8
:10111000005343F00C03FB60FA680C21B868FFF73A
:1011200027FEBB6800229A85BB68012283F8302025
:10113000002318461037BD4680BD00BF80B584B07F
:1011400000AF78607B689B6AFB60FB68002283F8D5
:1011500030200021F868FFF771FE00217868FFF762
:1011600041FF0C21F868FFF7F3FDB860BB6823F47A
:10117000005323F00C03BB60BA680C21F868FFF73A
:10118000F7FDFB685B6C1846FFF706FDFB689B6C80
:101190001846FFF701FD00BF1037BD4680BD00BFF8
:1011A00080B584B000AF78607B689B6AFB60FB68A9
:1011B00093F83830FA680949184601F097FBB8608F
:1011C000BB68002B05D1FB6893F83830184600F057
:1011D00011FCBB6818461037BD4680BD15120008CB
:1011E00080B584B000AF78607B689B6AFB60FB6869
:1011F00093F83830184600F0D5FBFB6893F8383088
:1012000000220021184601F071FB00BF1037BD46D7
:1012100080BD00BF80B588B000AFF860B9607A606B
:101220007B687B610123FB760023FB613BE00023AD
:10123000FB7600217869FFF78BFD03469AB27B6944
:10124000DA857B69DB8D03F02003002B0CD07B69F2
:101250009B8D03F02003002B06D07B69184609F014
:101260009DF80123FB7609E07B69DB8D03F00E031B
:10127000002B03D004217869FFF76AFD7B69DB8DC1
:1012800003F08003002B0BD07B699B8D03F0800360
:10129000002B05D07B69184609F02EF80123FB7658
:1012A000FB690133FB61FB69FF2B02DCFB7E002B3A
:1012B000BDD1002318462037BD4680BD80B487B01D
:1012C00000AFF860B9607A6000237B616FF01803AB
:1012D0007B6100BF7B6918461C37BD465DF8047B07
:1012E000704700BF80B584B000AF786039607B681C
:1012F0009B6AFB600421F868FFF72AFDB860FB6871
:10130000DB8D1B041A46BB681A433B681A60FB68F6
:101310000022DA85BB68DBB218461037BD4680BDB7
:1013200080B586B000AF78600B46FB707B689B6A27
:101330003B61EFF3108372B67B817B89BB813B6994
:101340009B8DFB82FB78002B04D0FB8A43F02003AB
:10135000FB8205E0FB8A23F4907323F00103FB82F8
:10136000FB8A19463869FFF74DFDBB89FB81FB8974
:1013700013F0010F00D162B600BF1837BD4680BD23
:1013800080B584B000AF78607B689B6AFB60002109
:10139000F868FFF7DDFC034603F02003002B14BFC1
:1013A00001230023DBB218461037BD4680BD00BFC5
:1013B00080B584B000AF786039607B689B6AFB6061
:1013C0003B681A460421F868FFF7D2FC00BF1037CB
:1013D000BD4680BD80B586B000AF78600B46FB701F
:1013E0007B689B6A7B61EFF3108372B6BB81BB891C
:1013F0003B82FB78002B0DD07B699B8D43F08003F3
:10140000FB81FB8919467869FFF7FCFC786808F0D6
:1014100073FF08E07B699B8D23F080039BB2194624
:101420007869FFF7EFFC3B8A7B827B8A13F0010F20
:1014300000D162B600BF1837BD4680BD80B584B00C
:1014400000AF78607B689B6AFB600021F868FFF75B
:101450007FFC034603F08003002B14BF012300230D
:10146000DBB218461037BD4680BD00BF80B485B0E2
:1014700000AF78607B68013BFB60FB68002B08DBFA
:10148000FB68052B05DC0E4AFB6852F82330002B65
:1014900001D100230DE00A4AFB6852F8233093F88B
:1014A0003030002B01D1002303E0054AFB6852F8DD
:1014B000233018461437BD465DF8047B704700BFE3
:1014C0003842020880B582B000AF00237B6010E094
:1014D0000D4A7B6852F82330002B07D00A4A7B68FC
:1014E00052F8233000211846FFF7A8FC7B6801332F
:1014F0007B607B68052BEBD9044B1846FFF7B4FDE6
:1015000000BF0837BD4680BD3842020800000020F9
:1015100080B586B000AF00233B61204B19462048C0
:1015200008F07CFE1D4B19461E4808F077FE01238B
:101530003B613B461C4918460EF0AEFE00237B6122
:1015400024E01A4A7B6952F82330002B18D0174A3E
:101550007B6952F82330DB78002B13D13B695A1C8E
:101560003A61DBB23033DBB27B72104A7B6952F8EE
:1015700023301A463B461146184608F04FFE02E05B
:1015800000BF00E000BF7B6901337B617B69052BF5
:10159000D7D900BF1837BD4680BD00BF000000206E
:1015A00050420208604202086C42020838420208B7
:1015B00080B584B000AF78600E4BFB6007F10A0382
:1015C0001946F868FFF73AFC7B680A2B02D10D2018
:1015D000FFF752FB7B68DBB21846FFF74DFB7B89B8
:1015E0001946F868FFF70EFC7B6818461037BD46B1
:1015F00080BD00BF0000002080B489B000AFF8605B
:10160000B9607A60EFF3108372B6FB82FB8AFB83CA
:10161000FB681B68BB61BB68DB43BA691340BB61F5
:10162000BA697B681343BB61FB68BA691A60FB8BBC
:10163000BB82BB8A13F0010F00D162B600BF243712
:10164000BD465DF8047B704780B584B000AF78601C
:1016500039600C4B1B68FB600A4A3B681360786872
:1016600000F0EEF93968786801F07CF9054B1B68E9
:101670003B60044AFB6813603B6818461037BD4660
:1016800080BD00BF480E002080B586B000AFF86076
:10169000B9607A60EFF3108372B6FB82044A0549A1
:1016A00003200EF0D3FEA821034800F017FB00BF73
:1016B00068430208784202089442020880B586B066
:1016C00000AFF860B9607A60EFF3108372B6FB8206
:1016D000054B1B68054A064903200EF0B7FEB021F2
:1016E000044800F0FBFA00BF28ED00E07443020854
:1016F000A84202089442020880B586B000AFF860A4
:10170000B9607A60EFF3108372B6FB82054B1B68F9
:10171000054A064903200EF099FEB821044800F05E
:10172000DDFA00BF28ED00E084430208D042020841
:101730009442020880B586B000AFF860B9607A6064
:10174000EFF3108372B6FB82044A054903200EF0C2
:101750007DFEC021034800F0C1FA00BF9843020893
:10176000FC4202089442020880B586B000AFF860DF
:10177000B9607A60EFF3108372B6FB82044A0549C0
:1017800003200EF063FEC821034800F0A7FA00BF53
:10179000A84302081C4302089442020880B586B0A0
:1017A00000AFF860B9607A60EFF3108372B6FB8225
:1017B000044A054903200EF049FED021034800F0F9
:1017C0008DFA00BFBC430208444302089442020859
:1017D00080B487B000AFF860B9607A603B60FB68A6
:1017E0000F2B15DDFB68103B7B617B695B11403380
:1017F0009B001A463B68134403F1E022BB681A6061
:101800007B6903F01F0301229A407B681A6027E07E
:10181000BB68174A1A60FB68042B04D17B684FF43D
:1018200080321A601CE0FB68052B04D17B684FF402
:1018300000321A6014E0FB68062B04D17B684FF479
:1018400080221A600CE0FB680F2B06D1BB68094AA6
:101850001A607B6801221A6002E04FF0FF3300E05B
:10186000002318461C37BD465DF8047B704700BF57
:1018700024ED00E010E000E080B584B000AF00236C
:101880007B600CE07B685B1160339B0003F1E0231D
:101890001A464FF0FF3313607B6820337B607B6810
:1018A000512BEFDD2E4B2F4A1A602F4B4FF0803219
:1018B0001A602E4B4FF080321A602D4B4FF0803261
:1018C0001A602C4B1B680133DB00BB602A4BFB60AA
:1018D00006E0FB684FF080321A60FB680433FB605F
:1018E000BB685A1EBA60002BF3D1244B00221A6049
:1018F000002223490B2000F0F9FF00222149032098
:1019000000F0F4FF00222049022000F0EFFF002247
:101910001E49042000F0EAFF00221D49052000F0C6
:10192000E5FF00221B49062000F0E0FF00221A49D3
:101930000E2000F0DBFF002218490C2000F0D6FF3B
:1019400000221749002000F0D1FF00233B603B68D4
:1019500083F3118862B600BF1037BD4680BD00BF5B
:1019600008ED00E00100000818ED00E01CED00E0CB
:1019700020ED00E004E000E000E400E0480E00207C
:10198000F51D0008711D0008891600081D1D0008BE
:10199000BD160008F9160008351700086917000879
:1019A0009D17000880B586B000AF786007F10C0283
:1019B00007F1100180237868FFF70AFF0346002B28
:1019C00013D17B680F2B04DD3B691A46FB6813605B
:1019D0000BE03B691B687B61FB68DB437A69134062
:1019E0007B613B691A467B69136000BF1837BD46AF
:1019F00080BD00BF80B586B000AF786007F10C02F3
:101A000007F1100100237868FFF7E2FE0346002B80
:101A100012D17B680F2B04DD3B691A46FB6813600B
:101A20000AE03B691B687B61FB687A6913437B6151
:101A30003B691A467B69136000BF1837BD4680BDFD
:101A400080B483B000AF786000BF0C37BD465DF84E
:101A5000047B704780B483B000AF6B467B607B68CB
:101A600018460C37BD465DF8047B7047F0B58FB063
:101A700008AFF860B960FB6823F01F037B612DE0BD
:101A80007B693B613B691B687B603A690432126881
:101A900039690831096838690C3000683C691034CC
:101AA00024683D6914352D683E69183636683B69EF
:101AB00003F11C0EDEF8003007930696059504949A
:101AC0000390029101927B6800937B69074A084961
:101AD00000200EF0BBFC7B6920337B617A69BB6818
:101AE0009A42CDD300BF1C37BD46F0BD4C4502081D
:101AF000CC430208F0B58DB008AF3B4B1B68002B00
:101B00006ED0394B1B68AC331B687B60364B1B684F
:101B1000B0331B68344A1268B4321268324909681B
:101B2000B831096830480068083000682E4C2468D5
:101B30000C3424682C4D2D6810352D682A4E3668DB
:101B40001436366806960595049403900291019226
:101B500000937B68254A264900200EF077FC224B33
:101B60001B6818331B687B601F4B1B681C331B688A
:101B70001D4A1268203212681B490968243109681D
:101B800019480068BC300068174C24682468164D5A
:101B90002D68C0352D68144E3668C43636680696F2
:101BA0000595049403900291019200937B680F4A7B
:101BB000104900200EF04AFC0B4B1B68C833196813
:101BC000094B1B6804331B68EFF31482FA60FA6850
:101BD000019200930B46054A074900200EF036FC9F
:101BE00000BF1437BD46F0BD480E00206C4502080A
:101BF00000440208344402086844020880B584B0F6
:101C000000AF224B1B687B60FFF724FF38607B68C6
:101C1000B3F90C30002B07D11D4B1B68043BFB6054
:101C20004FF48063BB6005E07B681B6BFB607B68E7
:101C30009B6ABB603B68174A174900200EF006FC00
:101C4000FB68144A154900200EF000FCBB68114ADD
:101C5000134900200EF0FAFB3A68FB689A4205D857
:101C6000FA68BB68D21A3B689A4205D3094A0D4903
:101C700000200EF0EBFB03E0F9683868FFF7F6FE92
:101C8000FFF738FF00BF1037BD4680BD5C0E002057
:101C9000E04102085C45020894440208AC44020892
:101CA000C4440208DC44020880B584B000AF786008
:101CB000084B1B68002B05D1074B1B68B3F90C3090
:101CC000002B04D1EFF3108372B6FB81FEE7786836
:101CD00002F042FC480E00205C0E002080B586B069
:101CE00002AF786039600A4B1B68FB60FB6803F544
:101CF000A67301933B6800937B68064A064900205F
:101D00000EF0A4FBFFF77AFF0120FFF7CDFF00BF25
:101D10005C0E00207C4502081845020880B588B09A
:101D200002AFF860B9607A60EFF3108372B6FB829D
:101D3000094A0A4900200EF089FB094B1A68094B31
:101D40001B6800931346044A074900200EF07EFBEF
:101D500076210648FFF7C2FFEC45020888450208D5
:101D600028ED00E034ED00E0B0450208D44502085B
:101D700080B588B000AFF860B9607A60BB68FB617D
:101D8000FB69C4331B68023BBB61BB69134A9342C6
:101D900011D3BB69124A93420DD2BB691B88FB82E7
:101DA000FB8AB3F55F4F06D17A68B968F86800F02E
:101DB00021F803460EE0EFF3108372B6BB82094BA5
:101DC0001B68094A094900200EF040FBAB21084876
:101DD000FFF784FF18462037BD4680BD000000088D
:101DE000A45D02082CED00E030460208F845020828
:101DF0001846020880B586B000AFF860B9607A6016
:101E0000BB687B617B69D3F8AC303B613B69012BDC
:101E100013D0012B02D3022B16D02AE07B69B033FA
:101E20001B68CC22796918460EF0D0FA7B69B03372
:101E30001B681846FEF742FB1BE07B69B0331B684A
:101E40001A460E4B1A6014E07B69B0331B68CC2233
:101E5000796918460EF0BAFA7B69B0331B681846E8
:101E6000FEF72CFB7B69B4331B681A46034B1A60E0
:101E700000BF002318461837BD4680BD480E00201D
:101E800080B500AF034B002B01D01DF0E7FC00BF75
:101E900080BD00BF5DF8010880B500AF00F002F81A
:101EA00000BF80BD80B584B002AF00237B603B489B
:101EB00004F060F978607B68002B04DA7A683849AE
:101EC00003200EF0C3FA002300930023354A36495D
:101ED000002017F051FD7860002000F005F97860CF
:101EE0007B68002B04DA7A68304903200EF0AEFAE2
:101EF000002000F069F978607B68002B04DA7A68CA
:101F00002B4903200EF0A2FA002000F08DF9786032
:101F10007B68002B04DA7A68264903200EF096FAD3
:101F2000002000F099F978607B68002B04DA7A6869
:101F3000214903200EF08AFA002000F0A9F9786008
:101F40007B68002B04DA7A681C4903200EF07EFAC5
:101F5000002000F0AFF978607B68002B04DA7A6823
:101F6000174903200EF072FA00F0F2F978607B68EE
:101F7000002B04DA7A68134903200EF067FA12483E
:101F8000FEF7B2FC1148FEF7AFFC1148FEF7ACFCBF
:101F90007B6818460837BD4680BD00BF4046020832
:101FA0005046020880460208884602089046020809
:101FB000B8460208E04602080C4702083847020803
:101FC0006447020890470208270804002608040016
:101FD0001008040080B582B000AF7860084801F0B6
:101FE000F9FA084B1B68002BF8D04FF47A7001F017
:101FF0003BFF044B1B68044A126810469847EDE704
:1020000078070020700700207407002080B586B094
:1020100000AFF860B9607A6007F11003194601203B
:1020200000F0AEF93B694FF47A7202FB03F27B6970
:102030000E4981FB03018914DB17CB1A13440C4AA8
:1020400013600B4B1B680B4A12689A1A0A4B1B68E9
:102050009A4206D9064B1B68074A1360074801F0ED
:1020600037FB002318461837BD4680BD83DE1B436F
:102070007C070020E0470208800700207807002046
:1020800080B485B000AFF860B9607A60064ABB687A
:102090001360064A7B681360002318461437BD4658
:1020A0005DF8047B704700BF7007002074070020B4
:1020B00080B485B000AFF860B9607A60002318463C
:1020C0001437BD465DF8047B704700BF80B485B00F
:1020D00000AFF860B9607A60002318461437BD4637
:1020E0005DF8047B704700BF80B592B002AF7860A6
:1020F00002200FF015FAF863FB6B002B02D16FF092
:10210000120350E0FA6B0021786805F0FFF8B8631D
:10211000BB6B002B01DABB6B45E000230193244B22
:10212000009301230122012140F617100EF094FEC6
:10213000002200211F480AF0B1FE07F12C031846C7
:102140000AF032FD07F12C034FF4806118460AF0C3
:1021500043FD32237B6307F1340207F12C03114660
:1021600018460AF053FD07F12C010023124A002003
:1021700000F0B0FC07F11C007B68104A10210AF047
:10218000C3FF07F10C007B680D4A10210AF0BCFF69
:1021900007F10C0107F11C00002300930023094AFA
:1021A00017F0EAFB034618464037BD4680BD00BF26
:1021B0000D20000878070020D51F0008BC47020842
:1021C000CC470208D847020880B584B000AF7860D9
:1021D00003200FF0A5F9F860FB68002B02D16FF027
:1021E000120304E07968F86806F06AFA03461846B4
:1021F0001037BD4680BD00BF80B586B002AFF86025
:10220000B9601346FB71F979BB680193FB680093D1
:102210000023002240F624100EF01EFE034618464E
:102220001037BD4680BD00BF80B584B000AF786078
:1022300001200FF075F9F860FB68002B02D16FF0F8
:10224000120305E000227968F86807F0D1F8034628
:1022500018461037BD4680BD80B588B000AF7860A5
:10226000022010F027F8F86107F10C007B68074A9C
:1022700010210AF049FF07F10C03F969184605F02F
:102280004FF9034618462037BD4680BDE447020893
:1022900080B584B000AF7860022010F00BF8F860D1
:1022A0007968F86805F03CFC034618461037BD46CF
:1022B00080BD00BF80B586B000AF786002200FF00F
:1022C000F9FF78617B69002B02D16FF0120313E0F4
:1022D00007F1080300221A605A609A6007F10800AB
:1022E0007B68074A0C210AF00FFF07F108037969A0
:1022F000184607F071FB034618461837BD4680BDE7
:10230000F447020880B584B002AF786039603B685A
:1023100001937B68009300230122002140F60810FE
:102320000EF09AFD034618460837BD4680BD00BF33
:1023300080B582B000AF0346FB71FB7919460348B4
:10234000FEF73AFC00BF0837BD4680BD1108040007
:1023500080B582B000AF03200FF0E2F878607B68B0
:10236000002B02D16FF0120304E00449786808F0F2
:10237000E1FF034618460837BD4680BDE400002053
:1023800080B58AB000AF03463960FB7100237B62E1
:10239000FB79012B44D1386800F0A4F878627B6A9D
:1023A000002B40F08380EFF3108372B6FB83FB8B2E
:1023B0003B843B681A68464B1B681A443B681A60AA
:1023C0003B685B681A46424B5B6813441A463B689D
:1023D0005A603B8C7B827B8A13F0010F00D162B67E
:1023E0003B685B683B4A934260DD3B685B683A4A06
:1023F00082FB03121217DB17D31ABB613B681A6802
:10240000BB691A443B681A603B685B681946BB6944
:10241000324A02FB03F3CB1A1A463B685A6045E086
:10242000FB79002B3FD107F10803184600F05AF85A
:1024300078627B6A002B39D1EFF3108372B6BB82CE
:10244000BB8AFB82BA68264B1B681344BB60FB68DF
:102450001A46234B5B681344FB60FB8A7B847B8CAE
:1024600013F0010F00D162B6FB681A4A934213DDE4
:10247000FB68194A82FB03121217DB17D31ABB61E0
:10248000BA68BB691344BB60FB681946BB69134A51
:1024900002FB03F3CB1AFB60BA683B681A60FA6868
:1024A0003B685A6002E06FF015037B627B6A002B89
:1024B00008DA00F095F802467B6A5B4213604FF041
:1024C000FF337B627B6A18462837BD4680BD00BF5C
:1024D000240F0020FFC99A3BA12FB84400CA9A3BA1
:1024E000300F00202DE9F04F8FB000AFF8613B4B6B
:1024F0001A6813469B0013445B004FF00004C7E9C1
:102500000C34D7E90C014FF47A724FF000031DF040
:10251000FFFF03460C46C7E90A34D7E90A120B4607
:102520001446A0007861786940EA937078619B0056
:102530003B61D7E904344FEA441949EAD3694FEAC9
:102540004318B8EB030869EB040918EB010849EBE1
:1025500002094FEAC903FB60FB6843EA5873FB605A
:102560004FEAC803BB60D7E9028941464A46D7E92A
:102570000C34591A64EB02020B4614466002786070
:10258000786840EAD35078605B023B60D7E900345A
:10259000660146EAD3665D01ED1A66EB04066D1826
:1025A00046EB02064FEA861B4BEA956B4FEA851A0B
:1025B000BAEB050A6BEB060B1AEB01034BEB0204BB
:1025C000C7E90834BA6AFB691A603A6AFB695A605B
:1025D000002318463C37BD46BDE8F08F2C0F002085
:1025E00080B582B000AF0FF0CFFF0346002B0CD1B7
:1025F000084B1B687B607B68002B06D07B689B7E4A
:10260000032B02D17B686C3300E0034B184608377C
:10261000BD4680BD5C0E00208407002080B586B0DA
:1026200000AF764B01221A70754B00221A60744B72
:1026300000225A60734B00221A60724B00225A60CB
:10264000714B00221A60704B00225A606F4B0022BF
:102650001A606E4B00225A606D4B00221A606C4B60
:1026600000225A606B4B00221A606A4B00225A60AB
:10267000694B00221A60684B00225A60674B0022A7
:102680001A60664B00225A60654B00221A800023B4
:102690007B610EE0634A7B69002142F83310614A96
:1026A0007B69DB0013444FF6FF729A807B6901332C
:1026B0007B617B690F2BEDDD594B1B881BB29BB2F5
:1026C00003F00F033B61574A3B69574942F8331007
:1026D000534B1B8819B2534A3B69DB0013440A462B
:1026E0009A804FF4B87200214F480DF06BFD4C4BAF
:1026F0001B881AB24C4B9A814B4B03229A764A4B59
:102700004A4A1A61484B494A5A61474B06229A8302
:102710001F22474947480DF02DFE434B002283F806
:102720006B21454B434A1A60434B00225A603E4B93
:10273000414AC3F86C21324BFB60F9683A480AF011
:102740005DFB39480FF0FEFE2C4B02221A703A1D39
:1027500007F10803114618460EF038FABB687A688C
:10276000114618460DF044FF244B03221A70334BD8
:10277000002B01D002F074F9314B002B01D003F093
:1027800009FB304B002B01D001F0F4FF2E4B002B46
:1027900001D01FF077F82D4B002B01D002F012FC76
:1027A0002B4B002B01D01EF083FF2A4B002B01D0B6
:1027B00000F00EFB15F0DAFF0FF0A4FE0F4B042221
:1027C0001A70194B9B8BDBB21946174802F00EF8B2
:1027D000154802F0CDF8144802F044F8124B9B68FB
:1027E00001221A70022007F037FE044B05221A70EE
:1027F00000F072F80FF0C6FDFCE700BF640E002089
:102800005C0E0020000F0020540E0020780E0020E7
:10281000680E00204C0E0020700E00200C0F0020CF
:10282000080F0020800E0020880700201D260008C9
:102830004C480208D4080020F8080020614A00082B
:10284000955D00087547000885180208C54F000807
:10285000B1160208D12D000880B500AF01F0E2FEEC
:1028600000BF80BD80B584B002AFFFF715FB002329
:102870000093064B4FF480526421054801F094FB0D
:10288000786000BF0837BD4680BD00BF113E01081B
:102890005848020880B582B000AF78603960FFF711
:1028A000E1FF002318460837BD4680BD80B584B0DF
:1028B00002AF00230093064B4FF40062F02105485D
:1028C00001F0AAFB786000BF0837BD4680BD00BF9D
:1028D000952800086048020880B500AFFFF7BCFFEC
:1028E000FFF7E4FF0023184680BD00BF80B588B025
:1028F00000AFF860B9607A606FF01503FB61FB68A8
:10290000612B25D8FB68BB61EFF3108372B67B8225
:102910007B8ABB82BB68002B06D1F868FFF742F8C0
:102920000E4BBB6000237B600D49BB69BA6841F860
:1029300033200B4ABB69DB0013447A685A60BB8AB8
:10294000FB82FB8A13F0010F00D162B60023FB610A
:10295000FB6918462037BD4680BD00BFB12900087D
:10296000380F002080B584B000AF786039607B6894
:10297000612B04D90C4BFB600023BB600AE00B4ABF
:102980007B6852F83330FB60084A7B68DB001344F5
:102990005B68BB60FB68BA6839687868984700BFB5
:1029A0001037BD4680BD00BFB1290008380F002098
:1029B00080B586B000AFF860B9607A60EFF310833D
:1029C00072B6FB82FB68044A044903200DF03EFD09
:1029D00041210348FFF782F9984802086C48020831
:1029E0008048020880B582B000AF786039607B68AB
:1029F00003F5A6731F22084918460DF0BBFC7B683F
:102A0000002283F86B217B683A68C3F86C2100BF11
:102A10000837BD4680BD00BFB448020880B483B00B
:102A200000AF786039603B6800221A607B685B69A0
:102A3000002B03D17B683A681A6103E07B685B690D
:102A40003A681A607B683A685A6100BF0C37BD4625
:102A50005DF8047B704700BF80B584B000AF1C4BAD
:102A60001B68FB60FB689B68BB60FB68D3F8703138
:102A70007B60BB680C330021184600F0B1F979681F
:102A8000B868FFF7CBFFBB680C33184600F0CAF9F3
:102A90007B6801225A717B680C33184600F0C2F93A
:102AA000FB681A7EFB685B7E9A4206D9FA68FB686F
:102AB0005B7E1946104600F011FCFB685B69FA6802
:102AC000D2F86C21104698473860386800F054F905
:102AD0005C0E002080B58EB000AFF860B9607A60FF
:102AE0003B60002387F82B30BB68002B01D19E4B45
:102AF000BB604FF4BC700DF0BDFD78627B6A002BAB
:102B000001D10C232BE1786A01F0BEFEF862FB6A6A
:102B1000002B02DA0C233B6312E114200DF0AAFD16
:102B200038623B6A002B02D10C233B6308E1BB688F
:102B30005B6801221946786A0FF08CFCF862FB6A28
:102B4000002B02D00C233B63F3E0BB689B78002B87
:102B500018D107F114031946002000F0F5FBF862C4
:102B6000FB6A002B03DAFB6A5B423B63E1E0002077
:102B700000F048FC78637B6B002B09DA7B6B5B42CF
:102B80003B63D6E0BB685B787B63BB681B787B618B
:102B900079697B68754A786A01F0BEFBF862FB6A66
:102BA000002B02D010233B63C3E03968786AFFF73B
:102BB00019FF786A01F07CFEF862FB6A002B02DAEA
:102BC0000C233B63B5E0012387F82B307B6A3A6A1C
:102BD000C3F870217B6A9B8B23F060039AB27B6AF7
:102BE0009A837B6B022B04D07B6A9A8B7B6A9A83D5
:102BF0000AE07B6A9B8B43F020039AB27B6A9A833C
:102C00007B6A14221A6200BF7B6A9B89FB833B6A42
:102C1000FA8B1A813B6A0C330022002118460AF015
:102C20003DF9F862FB6A002B07D13B6A0A330022A8
:102C3000002118460AF032F9F862FB6A002B02DA2A
:102C4000FB6A5B42FB62FB6A002B16D13B6A0C33CA
:102C5000002118460AF094F9F862FB6A002B06D1AD
:102C60003B6A0A33002118460AF08AF9F862FB6AC7
:102C7000002B02DAFB6A5B42FB62FB6A002B16D177
:102C80003B4B1B68BB617B6A1A7EBB691B7E9A4209
:102C90000DD27A6ABB691B7E1946104600F01EFBF6
:102CA000F862FB6A002B02DAFB6A5B42FB6200F00F
:102CB000EDFBFB6A002B0BD1786A01F055FBF86243
:102CC000FB6A002B04DAFFF78BFC03461B68FB62F0
:102CD000FB6A002B1AD13B6A0C330021184600F026
:102CE0007FF8FB68002B02D0FB68FA8B1A803B6AE6
:102CF0005B79002B01D11623FB6200F0E5FB3B6AF8
:102D00000C33184600F032FCFB6A28E000F0DCFBD4
:102D10001849786A0AF096F83B6A0C33184600F0B6
:102D200025FC3B6A0A33184600F020FC05233B6370
:102D300000BF386A00F0CEF97B6A0022C3F8702128
:102D40007B6A002B06D097F82B30002B02D17B6AD0
:102D500000229A600121786A00F008FA3B6B18465D
:102D60003837BD4680BD00BFAC480208592A00086C
:102D70005C0E0020700E002080B586B000AF786039
:102D8000124B1B687B614FF0FF33FB6007F10C03B4
:102D900000221946032000F00BFD01F0B5FB0346AD
:102DA0007968184600F0DEF838613B69002B02D0E4
:102DB000012001F0D1FB786900F054F900220021D4
:102DC000786901F05FFB00200FF088FB5C0E0020AB
:102DD00080B400AF00BFBD465DF8047B704700BF04
:102DE00080B584B000AF78600B46FB707B68002B29
:102DF00012D0786800F0EEFBF860FB68002B05DA73
:102E0000FB78002B02D0FB685B4206E0FB6813F105
:102E1000040FEED0002300E0162318461037BD46FD
:102E200080BD00BF80B584B000AF78607B68002BA8
:102E30000BD0786800F04CFCF860FB68002B02DADD
:102E4000FB685B4202E0002300E0162318461037BF
:102E5000BD4680BD80B584B000AF78607B680A3322
:102E600007F10802114618460AF052F8F860FB68AC
:102E7000002B2BD1BB68002B28DA7B6803F10C00F8
:102E8000BB6801331A4600210AF008F87B680A3350
:102E90001846FFF7C7FFF860FB68002B08D17B6876
:102EA0000A3307F10802114618460AF031F8F860B3
:102EB000BB68002B02DAFB68002BE7D07B680C3381
:102EC00000211846FFF78CFF012300E0002318467D
:102ED0001037BD4680BD00BF80B485B000AF7860BC
:102EE0000B467B800023FB607B681B69BB6004E0B2
:102EF000BB68FB60BB681B68BB60BB68002B06D06F
:102F0000BB68B3F90830B7F902209A42F0D1BB6828
:102F1000002B21D0FB68002B0FD1BB681B68002B56
:102F200006D17B6800221A617B6800225A6113E097
:102F3000BB681A687B681A610EE0BB681B68002BCF
:102F400006D17B68FA685A61FB6800221A6003E0C8
:102F5000BB681A68FB681A6000BF1437BD465DF88D
:102F6000047B704780B586B000AF03463960FB80B4
:102F7000B7F90630184601F0B1FA78617B690C3375
:102F800000211846FFF72CFFB7F90630194678697B
:102F900000F04AF838613B69002B07D17B690C339C
:102FA0001846FFF73FFF4FF0FF331BE03B6901225C
:102FB000DA713B693A681A613869FFF74BFF0346DB
:102FC000FB73FB7B002B07D13B699B79002B03D064
:102FD0003969786900F00AF87B690C331846FFF705
:102FE00021FF002318461837BD4680BD80B582B04A
:102FF00000AF786039603B68B3F9083019467868EB
:10300000FFF76AFF3B680C33184600F0AFFA3B68E5
:103010000A33184600F0AAFA386800F05BF800BFDF
:103020000837BD4680BD00BF80B485B000AF786072
:103030000B467B807B681B69FB6002E0FB681B68BA
:10304000FB60FB68002B06D0FB68B3F90830B7F9CA
:1030500002209A42F2D1FB6818461437BD465DF84B
:10306000047B704780B586B000AF786000F00EFA40
:1030700024E0EFF3108372B6FB81FB89FB827B684F
:10308000D3F874313B613B691A687B68C3F87421DB
:103090003B6900221A60FB8ABB81BB8913F0010FD8
:1030A00000D162B63B691B7A43F00203DAB23B6996
:1030B0001A723B6904331846FFF7B4FE7B68D3F8F5
:1030C0007431002BD5D100F0FFF900BF1837BD4691
:1030D00080BD00BF80B584B000AF78600FF054FAB7
:1030E0000346002B04D10DF093FA0346002B14D0B5
:1030F000EFF3108372B6BB81BB89FB810B49786803
:1031000009F0A0FD002001F061FAFB897B817B8939
:1031100013F0010F00D162B604E078680DF08CFA6C
:103120000DF080FA00BF1037BD4680BD0C0F0020A7
:1031300080B485B000AF0346FB80FB8803F00F032B
:10314000FB60094AFB68002142F83310064AFB681D
:10315000DB0013444FF6FF729A8000BF1437BD4660
:103160005DF8047B704700BF800E002080B584B0FE
:1031700000AF78600B46FB700023FB607B68002B80
:1031800022D0144B002B05D07B68B3F90C301846C5
:103190001EF0B0FB7B68B3F90C30002B05D07B68C8
:1031A000B3F90C301846FFF7C3FF7B68DB6A002BCE
:1031B00004D0FB78194678680FF05EFA786801F061
:1031C000B7FB7868FFF786FFFB6818461037BD46E7
:1031D00080BD00BFF518020880B584B000AF7860EC
:1031E00039607B681B68FB60FB681B7E1A463B6886
:1031F0009A4206DB3B68DBB2194678680FF056FA54
:1032000003E03B68DAB27B681A7600BF1037BD4630
:1032100080BD00BF80B584B000AF78603960164BC8
:103220001B68FB60FB681B7E1A463B689A4206DA05
:103230003B68DBB2194678680FF038FA18E0786816
:1032400001F058FD0346002B03D0FB210B48FEF78D
:1032500045FD3B68DAB27B681A76786801F00EFDAE
:103260000346002B04D040F203110448FEF736FD5C
:1032700000BF1037BD4680BD5C0E0020C04802086C
:1032800080B584B000AF786039607B689B7EFB734B
:10329000FB7B114A52F83330BB60FB7B0E4ADB00EC
:1032A00013441B7903F00103002B0CD0B968786834
:1032B00009F0C8FD3B68DAB27B681A76B9687868AD
:1032C00001F038FD03E03B68DAB27B681A7600BF94
:1032D0001037BD4680BD00BF0448020880B584B0E9
:1032E00000AF786039603B68002B02DD3B68FF2B44
:1032F00002DD6FF0150322E0EFF3108372B67B81DD
:103300007B89BB817B689B7E022B06D0032B09D176
:1033100039687868FFF760FF09E039687868FFF777
:1033200079FF04E039687868FFF7AAFF00BFBB891E
:10333000FB81FB8913F0010F00D162B60023184610
:103340001037BD4680BD00BF80B586B000AF0346D4
:103350003960FB8000237B613B68002B02D16FF05A
:1033600015032AE0174B1B683B61B7F90630002BA9
:1033700006D03B69B3F90C30B7F906209A4205D163
:103380003B691B7E1A463B681A6015E000F07EF828
:10339000B7F90630184601F03BFDF860FB68002BDA
:1033A00003D16FF002037B6104E0FB681B7E1A46C9
:1033B0003B681A6000F088F87B6918461837BD46EC
:1033C00080BD00BF5C0E002080B584B000AF034616
:1033D0003960FB80B7F9063039681846FFF7B4FF4B
:1033E000F860FB68002B08DAFFF7FAF80246FB6882
:1033F0005B4213604FF0FF33FB60FB6818461037E9
:10340000BD4680BD80B584B000AF0346FB80B7F9F0
:103410000630002B03D10E4B1B68FB6005E0B7F9AB
:103420000630184601F0F4FCF860FB68002B02D16E
:103430006FF0020307E0FB689B8B5B1103F0030353
:10344000BB60BB68013318461037BD4680BD00BF66
:103450005C0E002080B584B000AF0346FB80B7F956
:1034600006301846FFF7CEFFF860FB68002B08DA3D
:10347000FFF7B6F80246FB685B4213604FF0FF337C
:10348000FB60FB6818461037BD4680BD80B582B032
:1034900000AF0C4B1B687B607B68002B0DD00FF0DE
:1034A00073F80346002B08D17B68B3F91E309BB23A
:1034B00001339BB21AB27B68DA83002318460837BF
:1034C000BD4680BD5C0E002080B584B000AF254BAA
:1034D0001B68FB60FB68002B3FD00FF055F80346DC
:1034E000002B3AD1EFF3108372B6FB80FB883B814F
:1034F000FB68B3F91E30002B08DDFB68B3F91E3002
:103500009BB2013B9BB21AB2FB68DA83FB68B3F94A
:103510001E30002B1ADCFB680022DA83124B1B687A
:10352000002B01D00FF06EF8FB689B8B03F060035B
:10353000202B0BD1FB681B6A002B07D1094B1A68A3
:10354000FB689A4202D0FB6814221A623B897B8195
:103550007B8913F0010F00D162B6002318461037A3
:10356000BD4680BD5C0E0020000F002080B483B0FB
:1035700000AF78607B68002B09D07B681B881BB28A
:10358000002B02DB7B6801221A80002301E06FF030
:10359000150318460C37BD465DF8047B704700BF25
:1035A00080B584B000AF78607868FFF7DFFFF8601F
:1035B000FB68002B08DAFFF713F80246FB685B4252
:1035C00013604FF0FF33FB60FB6818461037BD46B1
:1035D00080BD00BF80B588B000AF78602C4B1B6801
:1035E000BB616FF01503FB61EFF3108372B6FB81D3
:1035F000FB89BB827B68002B3ED07B681B881BB29B
:10360000002B0EDD7B681B881BB29BB2013B9BB27B
:103610001AB27B681A80BB6900225A630023FB61DF
:103620002AE0BB695B6B002B03D083211948FEF7AE
:1036300055FB7B681B881BB29BB2013B9BB21AB245
:103640007B681A80BB697A685A63BB69DB6E3B6131
:10365000BB690022DA660521B8690EF09BFEBB69E2
:10366000DB6E002B03D0BB69DB6E5B4200E0002306
:10367000FB61BB693A69DA66BB8AFB82FB8A13F09D
:10368000010F00D162B6FB6918462037BD4680BDE8
:103690005C0E0020DC48020880B584B000AF786082
:1036A0007868FFF797FFF860FB68002B0BDAFB6880
:1036B0005B42BB6000BFFEF793FF0246BB6813602E
:1036C0004FF0FF3300E0002318461037BD4680BDA1
:1036D00080B586B000AF786000237B616FF0150382
:1036E0003B617B68002B3FD0EFF3108372B67B8188
:1036F0007B89BB817B681B881BB247F6FF729342B4
:1037000003D179211B48FEF7E9FA7B681B881BB2BD
:103710009BB201339BB21AB27B681A807B681B880C
:103720001BB2002B17DC144B1B687B6102E07B692A
:103730001B687B617B69002B04D07B695A6B7B68BB
:103740009A42F4D17B69002B05D07B6900225A6331
:1037500078690FF011F900233B61BB89FB81FB897C
:1037600013F0010F00D162B63B6918461837BD4609
:1037700080BD00BFF4480208540E002080B584B01C
:1037800000AF78607868FFF7A3FFF860FB68002B54
:1037900008DAFEF725FF0246FB685B4213604FF034
:1037A000FF33FB60FB6818461037BD4680BD00BF85
:1037B00080B58AB000AFF860B9607A60244B1B68AE
:1037C0003B6200237B62FFF761FE3B6A9B6BFB6100
:1037D0007B68002B02D07B68FA691A60BB68002BFB
:1037E0002FD0EFF3108372B6FB82FB8A3B83FB681A
:1037F000022B0BD0032B12D0012B15D13B6A9A6BF5
:10380000BB681B681A433B6A9A6311E03B6A9A6B78
:10381000BB681B68DB431A403B6A9A6308E0BB68DD
:103820001A683B6A9A6303E06FF015037B6200BF7E
:103830003B8B7B837B8B13F0010F00D162B600F0D2
:1038400027F8FFF741FE7B6A18462837BD4680BD42
:103850005C0E002080B586B000AFF860B9607A6079
:103860007A68B968F868FFF7A3FF78617B69002B75
:1038700008DAFEF7B5FE02467B695B4213604FF043
:10388000FF337B617B6918461837BD4680BD00BF9A
:1038900090B585B000AF1B4B1B68FB60FFF7F6FDD2
:1038A000FB689B6BDC43F86801F024FC0346234073
:1038B0003B601EE03B46184600F0A6F8B860BB68C7
:1038C000B3F1FF3F15D03B46B968184609F0AEFB8F
:1038D000B968F86800F018F878607B68002B08D0A9
:1038E0007B6804331946F86800F0A0F9786800F0A6
:1038F0004BF83B68002BDDD1FFF7E6FD00BF143726
:10390000BD4690BD5C0E002080B588B000AF7860E9
:1039100039607B689B687B61EFF3108372B6FB8133
:10392000FB893B820023BB617B695B6AFB6104E02E
:10393000FB69BB61FB691B68FB61FB69002B05D060
:10394000FB691B791A463B689A42F1D1FB69002B4F
:103950000ED0BB69002B06D07B6924331946B869A9
:1039600009F022FA04E07B692433184609F0FCF9D7
:103970003B8A7B827B8A13F0010F00D162B6FB6920
:1039800018462037BD4680BD80B586B000AF786050
:103990007B681B7B002B11D1EFF3108372B67B8207
:1039A0007B8ABB821649786809F04CF9BB8AFB8197
:1039B000FB8913F0010F00D162B61CE07B681B7B12
:1039C000022B11D1EFF3108372B63B823B8ABB828C
:1039D0000C49786809F036F9BB8AFB82FB8A13F040
:1039E000010F00D162B606E07B681B7B012B02D180
:1039F0007868FFF76FFB00BF1837BD4680BD00BF7A
:103A0000681200206012002080B584B000AF78609A
:103A10000023FB600BE0F968786809F035FB03468A
:103A2000002B01D0FB6807E0FB680133FB60FB68FB
:103A30001F2BF0DD4FF0FF3318461037BD4680BD19
:103A400080B588B000AF786039600023FB61FFF774
:103A50001DFD7B689A683B681B781946104601F08B
:103A6000C3FBB861BB69002B2FD0BB695B68002B1F
:103A70002BD001F0DDFB78617B69002B03D16FF067
:103A80000B03FB6121E0BB695A687B695A60BB6923
:103A90009A687B699A607B690C33082239681846FA
:103AA0000CF094FCEFF3108372B63B823B8A7B826E
:103AB0007B6840331946786909F0C4F87B8AFB813A
:103AC000FB8913F0010F00D162B6FFF7FDFCFB6923
:103AD00018462037BD4680BD80B584B000AF0EF0DB
:103AE00053FD0346002B0BD0184809F03DF9F86050
:103AF000FB68002B25D1164809F036F9F86020E064
:103B0000EFF3108372B63B813B897B810F4809F04C
:103B10002BF9F8607B89FB80FB8813F0010F00D143
:103B200062B6FB68002B0CD1FB68002B03D1102080
:103B30000CF090FDF860FB68002B02D0FB680122BE
:103B40001A73FB6818461037BD4680BD6812002006
:103B50006012002080B487B000AF78603960002325
:103B60007B61EFF3108372B6FB81FB893B827B683C
:103B70005B6A7B6102E07B691B687B617B69002B70
:103B800005D07B691B791A463B689A42F3D13B8A80
:103B90007B827B8A13F0010F00D162B67B691846E5
:103BA0001C37BD465DF8047B704700BF80B586B00A
:103BB00000AF786039607B689B683B613B681B782D
:103BC00019463869FFF7C6FF78617B69002B07D07B
:103BD0007B6904330822396818460CF0F7FB1FE0B4
:103BE000FFF77AFF78617B69002B19D07B6904337A
:103BF0000822396818460CF0E9FBEFF3108372B61F
:103C0000BB81BB89FB813B6924331946786909F084
:103C100019F8FB897B817B8913F0010F00D162B613
:103C20007B6918461837BD4680BD00BF80B586B099
:103C300000AF7860396000237B617B6803F1380254
:103C40003B681B781946104609F01EFA0346002B04
:103C50003DD0EFF3108372B63B813B893B827B689A
:103C60009B7E062B20D17B6803F13C023B681B78CE
:103C70001946104609F008FA0346002B14D07B6859
:103C800050330822396818460CF0A0FB7B680022EC
:103C9000DA6378680EF070FE3B8A7B827B8A13F0D1
:103CA000010F00D162B64DE03B8AFB81FB8913F026
:103CB000010F00D162B639687868FFF777FF0346D5
:103CC000002B3FD140F255112148FEF707F8396823
:103CD0007868FFF7B5FE7861EFF3108372B6BB81A9
:103CE000BB893B821B4978680EF044FD7B689B7E54
:103CF000062B0CD17B6850330822396818460CF02B
:103D000065FB7B680022DA6378680EF035FE3B8A3B
:103D10007B817B8913F0010F00D162B67B689B7EAB
:103D2000052B03D10421786801F0C4F87B689B7EE1
:103D3000072B03D07B689B7E082B03D10421786876
:103D400000F0ECFE7B6918461837BD4680BD00BF09
:103D50000C490208913D000880B584B000AF0346CD
:103D60003960FB80B7F90630184601F051F8F86069
:103D7000FB68002B02D16FF0020304E03968F86899
:103D8000FFF754FF034618461037BD4680BD00BFFD
:103D900080B58AB000AF7860FFF778FB7B68DB6E98
:103DA0003B627B681B6C7B6251E07B6A1B68FB613A
:103DB000EFF3108372B63B833B8B7B837B6840338E
:103DC0001946786A08F098FF7B6848331946786A84
:103DD00008F038FF7B8B7B827B8A13F0010F00D1C8
:103DE00062B67B689B6B7B617B6A9A687B691A43CE
:103DF0007B6A1B7B194601238B401A437B689A63BD
:103E00007B6A5B687A6A127B10467A6A02F10C015F
:103E1000002298477B687A699A63FFF739FDEFF3D0
:103E2000108372B63B823B8A7B837B68483319469A
:103E3000786A08F061FF7B8BFB81FB8913F0010F2F
:103E400000D162B6786A01F031FAFB697B627B6A65
:103E5000002BAAD17B683A6ADA66FFF735FB00BF10
:103E60002837BD4680BD00BF80B586B000AF786002
:103E700000237B617B68002B19D07B680E4AA2FB74
:103E800003239B0C3B613B69BB603B690B4A02FB14
:103E900003F37A68D31A4FF47A7202FB03F3FB60E0
:103EA00007F108030021184601F08CFA78617B695C
:103EB00018461837BD4680BD83DE1B4340420F00C5
:103EC00080B58AB002AFF8607A603B600B46FB7247
:103ED0004FF4B8700CF0CEFBB861BB69002B02D177
:103EE0006FF00B0358E0FB7A1946B86900F07EFCCE
:103EF000F861FB69002B40DBB86900F099FDF861BF
:103F0000FB69002B3BDB3B68FA7A1946B8690EF077
:103F1000A1FAF861FB69002B33DBFB7A0093BB6AE3
:103F20001F4A7968B86900F0E3F9F861FB69002B72
:103F300029DBFA6AF968B86900F002FAB86900F09A
:103F400091FCF861FB69002B1FDBBB699B89FB823D
:103F5000B86900F009FAF861FB69002B0ADAFEF78C
:103F60003FFB03461B685B42FB610E49B86908F0E2
:103F700069FF0BE0B7F916300EE000BF06E000BFA6
:103F800004E000BF02E000BF00E000BFFB7A19467A
:103F9000B869FFF7EBF8FB6918462037BD4680BDCE
:103FA0009D430008700E002080B586B002AFF86017
:103FB000B9607A603B60BB6901933B6800937B68A2
:103FC000BA680021F868FFF77BFF034618461037F0
:103FD000BD4680BD80B588B002AFF860B9607A6038
:103FE0003B603B6A00933B687A68B968F868FFF702
:103FF000DBFF78617B69002B08DAFEF7F1FA0246F5
:104000007B695B4213604FF0FF337B617B6918462D
:104010001837BD4680BD00BF80B586B002AFF860DE
:10402000B9607A603B60BB6901933B6800937B6831
:10403000BA680221F868FFF743FF034618461037B5
:10404000BD4680BD80B586B000AF7860FFF71EFA30
:1040500000233B6133E01F4B1B881BB29BB2013333
:104060009BB21AB21B4B114619801346FB82B7F95B
:104070001630002B04DC174B01221A800123FB822F
:10408000FB8A03F00F03FB60134AFB6852F83330DE
:10409000002B11D11049FB687A6841F833200E4A91
:1040A000FB68DB001344FA8A9A807B68FA8A9A815B
:1040B000FFF70AFA002309E03B6901333B613B69E2
:1040C0000F2BC8DDFFF700FA4FF0FF331846183703
:1040D000BD4680BD080F0020800E002080B586B050
:1040E00000AFF860B9607A603B60F868FFF7AAFF3C
:1040F00078617B69002B3BD1BB68DAB2FB681A762A
:10410000BB68DAB2FB685A76FB687A681A613A686B
:10411000FB685A6197F8203003F0030387F82030DA
:10412000FB689B8B23F003039AB2FB689A83FB68BE
:104130009A8B97F820309BB213439AB2FB689A830C
:10414000FB6838331A4600210320FFF731FBFB6878
:1041500000229A76F8680EF0F5F9FFF797F907490B
:10416000F86808F04BFEFB6804229A76FFF7ACF97A
:104170007B6918461837BD4680BD00BF700E002011
:1041800080B582B000AF786039603B68002B01D108
:10419000084B3B607B6803F5A6731F2239681846FD
:1041A0000CF0E8F87B68002283F86B2100BF083729
:1041B000BD4680BD2449020880B58AB000AF786052
:1041C00039607B6803F5A6737B6178690CF09CF815
:1041D000034601333B620023FB613B68002B26D082
:1041E0001EE0FB699B003A6813441B6818460CF0FC
:1041F0008BF8034601333A6A13443B627B689A6A40
:104200003B6A9A4202D86FF05A036CE0FB690133B3
:10421000FB61FB69B3F5807F02DD6FF0060362E0AE
:10422000FB699B003A6813441B68002BD9D1FB69DA
:1042300002339B003B6178683A693B6A1344194634
:104240000EF068FBF860FB68002B02D16FF00B03E7
:1042500049E0FA683B6913447B62FB687A6A1A603A
:1042600078690CF051F803460133BB607969786ACC
:104270000CF012F8BB687A6A13447B620023BB61BE
:1042800021E0BB6901339B00FA6813447A6A1A6023
:10429000BB699B003A6813441B6818460CF034F85D
:1042A00003460133BB60BB699B003A6813441B683B
:1042B0001946786A0BF0F0FFBB687A6A13447B6298
:1042C000BB690133BB61BA69FB699A42D9DBFB69FF
:1042D00001339B00FA68134400221A607B68FA6875
:1042E000C3F86C21002318462837BD4680BD00BFA7
:1042F00080B586B002AFF860B9607A603B603B7E03
:1043000000933B687A68B968F868FFF7E7FE0346F0
:1043100018461037BD4680BD80B586B002AFF86044
:10432000B9607A603B60012300933B687A68B968A2
:10433000F868FFF7D3FE034618461037BD4680BD28
:1043400080B584B000AFF860B9607A60B968F86889
:10435000FFF716FF7968F868FFF72EFF0346184647
:104360001037BD4680BD00BF80B584B000AF786017
:10437000EFF3108372B6BB81BB89FB8178680EF0C6
:10438000FBFAFB897B817B8913F0010F00D162B6B8
:10439000002318461037BD4680BD00BF80B584B0ED
:1043A00000AF124B1B68BB600123FB6009E0FB6898
:1043B0000133FB60FB68B3F5807F02DD012000F074
:1043C000CBF8BB68D3F86C21FB689B0013441B68D7
:1043D000002BECD1BB685B69BA68D2F86C2111463E
:1043E000F86898477860786800F0B6F85C0E0020AE
:1043F00080B584B000AF786039607B689B68FB60F3
:10440000FB68002B20D07B689B8B03F00303012B00
:1044100008D0FB689B68002B04D0FB689B683A6857
:1044200012021A60FB685B78012B0DD1FB68002239
:104430009A6004E0FB6804331846FFF749F9FB680B
:104440009B881BB2002BF5DB00BF1037BD4680BD3B
:1044500080B584B000AF78607B689B68FB60FB68C8
:10446000002B0AD0FB685B78012B06D17B689B6828
:1044700003F59C73184609F049FF00BF1037BD468D
:1044800080BD00BF80B584B000AFF860B96013464E
:10449000FB71FB689B8B03F48073002B1AD1F868C7
:1044A00000F048F8B968F868FFF7A2FFFB79002B25
:1044B00002D1F868FFF7CCFFF86800F039FAF86825
:1044C00000F034FFFB689B8B43F480739AB2FB6867
:1044D0009A8300E000BF1037BD4680BD80B584B030
:1044E00000AF0346FB80B7F90630184600F090FC99
:1044F000F860FB68002B02D0FB689B6800E000239B
:1045000018461037BD4680BD80B483B000AF084B5D
:104510001B687B607B68002B03D07B68B3F90C3091
:1045200000E0002318460C37BD465DF8047B704759
:104530005C0E002080B582B000AF7860786800F033
:104540001FF8786800F08CFC786800F0C1FA00BFB2
:104550000837BD4680BD00BF80B584B000AF78602D
:10456000064B1B68FB607B68DBB27B6000227968CE
:10457000F868FFF787FF78680DF0B0FF5C0E002049
:1045800080B584B000AF7860EFF3108372B67B81A2
:104590007B89BB817B685B6A002B0CD07B685B6A84
:1045A000184600F0CDFF7B685B6A184601F02CF8D6
:1045B0007B6800225A62BB89FB81FB8913F0010FE3
:1045C00000D162B600BF1037BD4680BD80B584B053
:1045D00000AF78607B68002B0AD1084B9B89FB8178
:1045E000B7F90E301121184600F0B2FD034601E084
:1045F0006FF0150318461037BD4680BD140F00201C
:1046000080B582B000AF7860396000F025FB044BC4
:104610001B6800221946024801F042F8F5E700BF86
:10462000140F002080B584B002AF134B0A221A6029
:10463000114B00225A60104B00229A600023009315
:104640000E4B4FF40062E0210D48FFF7E5FC0346F6
:10465000FB80B7F90630002B02DAB7F9063007E025
:10466000054AFB889381044B01229A73B7F90630FF
:1046700018460837BD4680BD140F002001460008CB
:104680003049020880B584B000AF78600023FB6039
:1046900006220B2140F2DB700BF010FFF860FB6884
:1046A000064A02FB03F27B681A607B6800225A60AC
:1046B000002318461037BD4680BD00BF8051010061
:1046C00080B582B000AF2748FFF7DCFF264B002201
:1046D0001A60254B1B68002B3FD0234B1B681A46E2
:1046E0003B461946104600F059F81E4B1A683B68C5
:1046F000D31A1C4A13601B4B5A687B68D31A194A99
:1047000053600AE0174B5A68184B1344154A53601C
:10471000144B1B68013B134A1360124B5B68002B60
:10472000F0DB134B1A683B68D31A114A1360104B25
:104730005A687B68D31A0E4A53600AE00C4B5A68D9
:104740000A4B13440A4A5360094B1B68013B084A51
:104750001360074B5B68002BF0DB00BF0837BD46DA
:1047600080BD00BF300F00202C0F002000CA9A3BF4
:10477000240F002080B500AFFFF7A2FF00BF80BD6F
:1047800080B400AF044B1B680133034A136000BFC1
:10479000BD465DF8047B70472C0F002080B485B0C7
:1047A00000AF786039607B680E4A82FB03125211B9
:1047B000DB17D31A1A463B681A607A683B681B6895
:1047C000642101FB03F3D31AFB60FB68064A02FB7A
:1047D00003F23B685A60002318461437BD465DF863
:1047E000047B70471F85EB518096980080B584B09C
:1047F00000AF78600B46FB704FF419700BF03AFF76
:10480000F860FB68002B02D16FF00B0326E07B6899
:10481000FA689A60F86801F079F8B860BB68002B14
:1048200007DAF8680BF008FF7B6800229A60BB6823
:1048300014E0FB680C3301220021184608F02EFB1F
:10484000FB68043300220021184608F027FBFB68B0
:1048500004330021184608F093FB00231846103754
:10486000BD4680BD80B485B000AF78607B689B6832
:10487000FB60FB6801225A70002318461437BD46BE
:104880005DF8047B704700BF80B485B000AF7860EE
:10489000064B1B68FB60FB689A687B689A60002384
:1048A00018461437BD465DF8047B70475C0E002047
:1048B00080B485B000AF78607B689B68FB60FB6864
:1048C0005B780133DAB2FB685A700023184614375C
:1048D000BD465DF8047B704780B582B000AF78605C
:1048E000786800F04DFD786800F05AF97B68343341
:1048F000184613F095FF786808F0C2F8786801F060
:1049000049F8786800F0CEF87B689B78002B07D0D8
:104910007B681B7843F00803DAB27B681A7002E008
:104920007868FEF7D7FB00BF0837BD4680BD00BFE3
:1049300080B584B000AF78607B689B68FB60FB68E3
:10494000002B10D0FB685B78012B06D9FB685B78E5
:10495000013BDAB2FB685A7002E0F868FFF7BCFF6F
:104960007B6800229A6000BF1037BD4680BD00BF43
:1049700080B584B000AF78607B689B68FB60FB68A3
:104980003433184613F03EFF0321104814F0CAFADE
:10499000B860BB68002B0CD10121002014F0D8F9BD
:1049A0000221002014F0D4F9786801F00BF80346D6
:1049B00007E0BB68002B02DDB86814F0A7F96FF0C0
:1049C000160318461037BD4680BD00BF384902089F
:1049D00080B586B000AF7860144B1B683B613B69C3
:1049E0009B683833FB607B689B683833BB6000236F
:1049F0007B6114E07B691B01FA6813449B68002B00
:104A00000AD07B691B01FA68D0187B691B01BA6860
:104A10001344194613F022FF7B6901337B617B69E4
:104A20000F2BE7DD00BF1837BD4680BD5C0E0020B0
:104A300080B584B000AF78607B689B68FB60FB68E2
:104A40003433184613F0DEFE7868FFF7C1FF78684C
:104A500000F0B8FF034618461037BD4680BD00BFC2
:104A600080B483B000AF00237B600DE00B4A7B680D
:104A70000B4942F83310094A7B68DB0013440022DB
:104A80005A607B6801337B607B68612BEEDD00BF81
:104A90000C37BD465DF8047B704700BF380F00201F
:104AA000B129000880B582B000AF786006E07B686D
:104AB000D3F85C327968184614F0D2FE7B68D3F8DC
:104AC0005C32002BF3D100BF0837BD4680BD00BF6C
:104AD00080B483B000AF78607B689B7E072B09D1E0
:104AE0007B689B6DB3F9122092B2013A92B212B276
:104AF0005A820CE07B689B7E082B08D17B689B6DFB
:104B0000B3F9102092B2013A92B212B21A8200BFE7
:104B10000C37BD465DF8047B704700BF80B586B09A
:104B200000AF78603960EFF3108372B6FB81FB89C8
:104B3000BB827B689B7E072B03D07B689B7E082B08
:104B400022D17B689B6D3B617B6800229A657B6804
:104B50009B7E072B09D13B69B3F912309BB2013B15
:104B60009BB21AB23B695A8208E03B69B3F9103034
:104B70009BB2013B9BB21AB23B691A827B683A68CE
:104B8000DA6678680DF0F8FEBB8AFB82FB8A13F0C8
:104B9000010F00D162B600BF1837BD4680BD00BF0F
:104BA00080B584B000AF786013E07B681B69FB6060
:104BB000FB681A687B681A61FB680C331846FEF7BD
:104BC000D5FCFB680A331846FEF7D0FCF868FEF700
:104BD00081FA7B681B69002BE7D17B680C33184690
:104BE000FEF7C4FC00BF1037BD4680BD80B584B061
:104BF00000AF16E0EFF3108372B6FB80FB88FB81F9
:104C00000C4808F0B1F8B860FB89BB80BB8813F092
:104C1000010F00D162B6BB68002B02D0B8680BF060
:104C20000BFD044B1B68002BE4D100BF1037BD46C1
:104C300080BD00BF0C0F002080B400AF054B1B6887
:104C4000002B14BF01230023DBB21846BD465DF8DC
:104C5000047B70470C0F002080B500AFFFF7C6FF44
:104C600000BF80BD80B500AFFFF7E6FF0346002B15
:104C700014BF01230023DBB2184680BD80B584B089
:104C800000AF7860194B1B68BB60BB68B3F91E307E
:104C9000002B0FDDBB681A7E7B681B7E9A4209D20F
:104CA0001349786800F046F87B6801229A76002361
:104CB000FB7315E00D49786800F03CF80346002BC3
:104CC00009D07B6803229A767B681B6802229A7659
:104CD0000123FB7304E07B6802229A760023FB73B6
:104CE000FB7B18461037BD4680BD00BF5C0E002020
:104CF000000F002080B584B000AF78600023FB7304
:104D00007B685B68002B07D17B681B68BB60BB6856
:104D100003229A760123FB730549786808F092F81C
:104D20007B6800229A76FB7B18461037BD4680BD13
:104D30005C0E002080B586B000AF786039607B687B
:104D40001B7EBB740023FB74BB7C002B03D158215A
:104D50002E48FCF7C3FF3B681B687B6102E07B6960
:104D60001B687B617B69002B04D07B691B7EBA7C4E
:104D70009A42F4D97B69002B21D13B685B68FB60C8
:104D8000FB68002B0ED17B6800221A607B68002232
:104D90005A603B687A681A603B687A685A600123F7
:104DA000FB742DE07B6800221A607B68FA685A6009
:104DB000FB687A681A603B687A685A6020E07B6911
:104DC0005B68FB60FB68002B0ED17B687A691A6018
:104DD0007B6800225A607B697A685A603B687A680F
:104DE0001A600123FB740BE07B687A691A607B68A8
:104DF000FA685A60FB687A681A607B697A685A6058
:104E0000FB7C18461837BD4680BD00BF48490208E4
:104E100080B485B000AF0346FB800023FB60B7F988
:104E20000630002B12DBFB8803F00F03BB600B4A3C
:104E3000BB68DB001344B3F90430B7F906209A428B
:104E400004D1064ABB6852F83330FB60FB68184651
:104E50001437BD465DF8047B704700BF800E00200C
:104E600080B487B000AF7860EFF3108372B6FB8137
:104E7000FB89BB827B689B7E052B0ED17B685B6BBD
:104E80003B613B691B881BB29BB201339BB21AB2D8
:104E90003B691A807B6800225A63BB8AFB82FB8ACB
:104EA00013F0010F00D162B600BF1C37BD465DF89C
:104EB000047B704780B586B000AF78603960EFF34F
:104EC000108372B6FB81FB89BB827B689B7E052BBE
:104ED00014D17B685B6B3B613B691B881BB29BB247
:104EE00001339BB21AB23B691A807B6800225A6375
:104EF0007B683A68DA6678680DF03EFDBB8AFB8213
:104F0000FB8A13F0010F00D162B600BF1837BD460F
:104F100080BD00BF80B586B000AF78600B467B8057
:104F200013467B707A8813465B001344DB001846F7
:104F30000BF090FBF860FB687B6100233B610DE0A8
:104F40007B697A781A757B6903F118027A6179684E
:104F5000184607F077FE3B6901333B617A883B696D
:104F60009A42EDDCFB6818461837BD4680BD00BF8D
:104F700080B586B000AF78600B467B8013467B70AF
:104F80007B881B0118460BF065FBF860FB687B61B2
:104F900000233B610DE07B697A781A737B6903F12A
:104FA00010027A617968184607F04CFE3B690133BC
:104FB0003B617A883B699A42EDDCFB6818461837FA
:104FC000BD4680BD80B500AF204B00221A601F4B4C
:104FD00000225A601E4B00221A601D4B00225A60AC
:104FE0001C4B00221A601B4B00225A601A4B0022F5
:104FF0001A60194B00225A60184B00221A60174B96
:1050000000225A60002210211148FFF783FF024658
:10501000134B1A60022208210E48FFF77BFF02465D
:10502000104B1A6000F024F8002210210A48FFF704
:105030009FFF02460C4B1A60022208210748FFF727
:1050400097FF0246094B1A6000BF80BD481200203E
:105050005012002058120020681200206012002018
:1050600004090020080900200C0900201009002074
:1050700080B582B000AF4FF4A0700BF0EBFA02469F
:105080000C4B1A600B4B1B687B6000233B600AE0F3
:105090007B6803F114027A600749184607F0D2FDD5
:1050A0003B6801333B603B680F2BF1DD00BF0837E5
:1050B000BD4680BD000900204812002080B584B0A4
:1050C00000AF78600A4B1B68BB604FF0FF33FB609A
:1050D0007B68002B07D0B86800F00CF802467B68AC
:1050E0001A600023FB60FB6818461037BD4680BD80
:1050F0005C0E002080B588B000AF78607B689B684C
:10510000BB610023FB60EFF3108372B67B827B8A66
:10511000BB82BB695B6AFB610BE0FB691B791A46CA
:1051200007F10C031146184607F062FFFB691B6884
:10513000FB61FB69002BF0D1BB8AFB82FB8A13F079
:10514000010F00D162B6FB6818462037BD4680BD0E
:1051500080B586B000AF03463960FB80B7F90630F2
:10516000002B02DC6FF057031CE03B681F2B02D9B9
:105170006FF0150316E0FEF789F93B68DBB23B736D
:1051800000237B730423BB7300233B6107F10C02F4
:10519000B7F9063011461846FEF7DEFD7861FEF7D6
:1051A00093F97B6918461837BD4680BD80B584B039
:1051B00000AF03463960FB80B7F9063039681846FE
:1051C000FFF7C6FFF860FB68002B08DAFDF708FA66
:1051D0000246FB685B4213604FF0FF33FB60FB68E5
:1051E00018461037BD4680BD80B584B000AF7860EA
:1051F00039600023FB607B68002B13D0FEF746F973
:105200007B68DB69FB6002E0FB681B68FB60FB6896
:10521000002B05D0FB681B7C1A463B689A42F3D1F1
:10522000FEF752F9FB6818461037BD4680BD00BF37
:1052300080B584B000AF0DF0A7F90346002B0BD06A
:10524000184807F091FDF860FB68002B25D116483F
:1052500007F08AFDF86020E0EFF3108372B63B811F
:105260003B897B810F4807F07FFDF8607B89FB80DD
:10527000FB8813F0010F00D162B6FB68002B0CD144
:10528000FB68002B03D118200BF0E4F9F860FB68F1
:10529000002B02D0FB6801221A75FB6818461037F4
:1052A000BD4680BD501200205812002080B586B047
:1052B00000AF78607B681B7D002B11D1EFF310836A
:1052C00072B67B827B8ABB821649786807F0BAFC8B
:1052D000BB8AFB81FB8913F0010F00D162B61CE091
:1052E0007B681B7D022B11D1EFF3108372B63B82DA
:1052F0003B8ABB820C49786807F0A4FCBB8AFB821E
:10530000FB8A13F0010F00D162B606E07B681B7DBB
:10531000012B02D17868FDF7DDFE00BF1837BD46CE
:1053200080BD00BF501200205812002080B584B00C
:1053300000AF786002E0F868FFF7B8FF7B684033A1
:10534000184607F011FDF860FB68002BF3D102E06E
:10535000F868FFF7ABFF7B684833184607F004FD99
:10536000F860FB68002BF3D17B684FF0FF329A6343
:105370007B680022DA6300BF1037BD4680BD00BFE6
:1053800080B584B000AF786002E0F86800F0D4FB2C
:105390007B681C33184607F0E7FCF860FB68002BBD
:1053A000F3D102E0B868FEF7EFFA7B6824331846C1
:1053B00007F0DAFCB860BB68002BF3D100BF1037F0
:1053C000BD4680BD80B58CB000AF786039607B6829
:1053D000002B08D07B685B68002B04DB7B685B6874
:1053E0002A4A934202DD6FF015034AE0EFF310837F
:1053F00072B6FB82FB8A3B85254B1B687B6207F1FB
:105400001003184607F032FE07F110037A680021F6
:10541000184600F0C3FB38623B6A13F10B0F08D14A
:105420003B8D7B857B8D13F0010F00D162B600238D
:1054300027E03B68002B1CD007F10C031946786865
:1054400000F0D2F9124B1A687B6AD31ABB61FB6871
:105450001A46BB69934202D30023FB6204E0FB6857
:105460001A46BB69D31AFB62FB6A39681846FFF714
:1054700095F93B8DFB83FB8B13F0010F00D162B6D6
:105480003B6A18463037BD4680BD00BFFFC99A3B16
:105490002C0F002080B58CB000AFB9607A603B6003
:1054A0000346FB73BB6803F00103002B31D0EFF31D
:1054B000108372B6BB84BB8C3B8507F11402FB7B67
:1054C00011461846FCF75CFFF862FB6A002B09DA0C
:1054D0003B8D7B857B8D13F0010F00D162B64FF0C1
:1054E000FF3328E007F11C0207F11403194678681E
:1054F00000F0BEF907F11C0339681846FFF762FF98
:10550000F8623B8DFB84FB8C13F0010F00D162B677
:1055100004E039687868FFF755FFF862FB6A002BF2
:1055200008DAFDF75DF80246FB6A5B4213604FF054
:10553000FF33FB62FB6A18463037BD4680BD00BFB3
:1055400080B588B000AF78606FF015037B61EFF332
:10555000108372B6FB81FB893B827B68002B42D0B3
:105560007B681B7B03F00103002B3CD00023BB6155
:10557000234B1B68FB6104E0FB69BB61FB691B6893
:10558000FB61FB69002B03D0FA697B689A42F3D177
:10559000FB69002B03D16E211A48FCF79FFBFB69C6
:1055A0001B68002B08D0FB691B68FA6912689168B8
:1055B000FA6992680A449A60BB69002B04D01049CA
:1055C000B86907F0F1FB02E00D4807F0CDFB7B68FE
:1055D00000221A607B681B7B23F00103DAB27B6830
:1055E0001A7300237B613B8A7B827B8A13F0010F55
:1055F00000D162B67B6918462037BD4680BD00BF2A
:105600007C1200206849020880B586B000AF78603F
:10561000EFF3108372B6FB81FB89BB827B681B7B37
:1056200003F00103002B02D07868FFF789FF7B6845
:105630001B7B03F00203002B0AD0BB8AFB82FB8A90
:1056400013F0010F00D162B67868FDF743FD1EE04C
:105650007B681B7B03F00403002B11D10E49786893
:1056600007F0F0FA0D4B1B8801339AB20B4B1A80EE
:10567000BB8A7B827B8A13F0010F00D162B606E001
:10568000BB8A3B823B8A13F0010F00D162B6002334
:1056900018461837BD4680BD7012002078120020D1
:1056A00080B590B000AFF860B9607A60BB683B63CA
:1056B000EFF3108372B67B827B8A7B87494B1B6832
:1056C000BB62FB685B68FB6352E0464B1B687B6216
:1056D000FB6B1B697A6AD31A7B63FB6B5A697B6B22
:1056E0009A4229D8FB6804331946F86B07F0AAFBE5
:1056F000FB6B9B683B623B6A002B19D0FB6BDB6842
:10570000FB61FB6B00229A607B8F3B833B8B13F02A
:10571000010F00D162B63B6AF8699847EFF3108336
:1057200072B6FB85FB8D7B87FB685B68FB631FE0C4
:10573000FB6B1B68FB631BE07A6ABB6AD31A7A6B4C
:1057400013447B63FB6B5A697B6B9A4202D2FB6BFF
:105750005B697B63FB6B5A697B6BD31A7B617A69EC
:105760003B6B9A4201D27B693B63FB6B1B68FB631B
:10577000FB6B002BA9D11B4B1A68BB6AD31A7B6346
:105780007A6BBB689A4222D23B6B002B1FD0BA685F
:105790007B6BD31A7B613A6B7B69934228BF1346BC
:1057A0003B63FA687B6802339B00134400229A71C2
:1057B0003B6B42F2107202FB03F31846FEF754FBF8
:1057C000FA687B6802339B00134401229A717B8F35
:1057D0007B837B8B13F0010F00D162B600BF403793
:1057E000BD4680BD2C0F00202DE9904884B000AF4D
:1057F000786039607B681B684FF000041A4A02FB2E
:1058000004F1002202FB03F20A441749A3FB01340E
:10581000224414467A68526811464FEAE1725B18D6
:1058200044EB0204C7E90234D7E902340CA2D2E9FE
:10583000001213EB010B44EB020C584661460B4A75
:105840004FF000031AF014FE03460C461A463B685C
:105850001A60002318461037BD46BDE8908800BF87
:105860007F9698000000000000CA9A3B809698003E
:1058700080B487B000AFF860B9607A60FB681A68DE
:10588000BB681B689A4204D200237B6100233B6102
:105890002EE0FB681A68BB681B689A420AD1FB6855
:1058A0005A68BB685B689A4204DC00237B61002372
:1058B0003B611DE0FB681A68BB681B68D31A7B61FB
:1058C000FB685A68BB685B689A420BDAFB685A68E7
:1058D0000D4B1344BA6852689B1A3B617B69013BCC
:1058E0007B6105E0FB685A68BB685B68D31A3B6163
:1058F0007B687A691A607B683A695A6000BF1C3716
:10590000BD465DF8047B704700CA9A3B80B586B0FF
:1059100000AF78601E4B1B68BB6000237B610023D7
:10592000FB60FDF7B3FDBB689B68002B28D0BB680C
:105930009B681B6B002B23D0BB689B68DB6A3B61B9
:1059400000237B613B69002B14D038690AF082FE8A
:1059500078617B69002B05D100233B616FF00B035D
:10596000FB6007E0BB689B681B6B3A691946786966
:105970000AF02CFD7B683A69DA627B687A691A63FF
:10598000FDF7A2FDFB6818461837BD4680BD00BF75
:105990005C0E002080B582B000AF78607B681B6B26
:1059A000002B04D07B681B6B1846FDF793FB7B68CC
:1059B0000022DA627B6800221A6300BF0837BD4606
:1059C00080BD00BF80B582B000AF78607B689B6807
:1059D000184607F01DF87A680121002013F0C0FD79
:1059E0007A680621012013F0BBFD7A6806210220A7
:1059F00013F0B6FD002318460837BD4680BD00BF32
:105A000080B582B000AF0C4807F0AEF978607B68D3
:105A1000002B0CD1FFF72CFB074807F0A5F97860A5
:105A20007B68002B03D15F210448FCF757F97B68A2
:105A300018460837BD4680BD481200207C49020840
:105A400080B588B000AFF860B9607A60394B1B68E8
:105A5000BB61BB699B687B61FB681F2B07D9FCF7A7
:105A6000BFFD0246162313604FF0FF335EE0F96876
:105A70007869FFF7B9FBF8617B68002B18D0FB69E8
:105A8000002B0CD0FB695A687B681A60FB699A6826
:105A90007B685A60FB69DA687B689A6008E07B681B
:105AA00000221A607B6800225A607B6800229A609C
:105AB000BB68002B01D1002338E0BB681B68002BBA
:105AC0000CD1FB69002B30D07B691C331946F86977
:105AD00007F012F9F86900F02FF826E0FB69002BB7
