:020000040800F2
:1000000000000220B9020008C1020008C502000871
:10001000390300083D0300088503000800000000C4
:10002000000000000000000000000000CD030008F8
:10003000D103000800000000D5030008052E0008C9
:10004000E9030008E9030008E9030008E9030008E0
:10005000E9030008E9030008E9030008E9030008D0
:10006000E9030008E9030008E9030008E9030008C0
:10007000E9030008E9030008E9030008E9030008B0
:10008000E9030008E9030008E9030008E9030008A0
:10009000E9030008E9030008E9030008E903000890
:1000A000E9030008E9030008E9030008E903000880
:1000B000E9030008E9030008E9030008E903000870
:1000C000E9030008E9030008E9030008E903000860
:1000D000E9030008E9030008E9030008E903000850
:1000E000E9030008E9030008E9030008E903000840
:1000F000E9030008E9030008E9030008E903000830
:10010000E9030008E9030008E9030008E90300081F
:10011000E9030008E9030008E9030008E90300080F
:10012000E9030008E9030008E9030008E9030008FF
:10013000E9030008E9030008E9030008E9030008EF
:10014000E9030008E9030008E9030008E9030008DF
:10015000E9030008E9030008E9030008E9030008CF
:10016000E9030008E9030008E9030008E9030008BF
:10017000E9030008E9030008E903000800000000A3
:10018000E9030008E903000800B583B002F056F85F
:10019000384B394A1360394A136039490CE00A6810
:1001A0004B6801F10C04886803E01168196004339E
:1001B00004329842F9D82146324B9942EFD32E4B64
:1001C0001A68314B9A4204D12C4B1A682F4B9A4231
:1001D00000D0FEE7274B2E4A13602E4A13602E4BA9
:1001E0000AE0194651F8082B5B6802E00020106015
:1001F00004329A42FAD30B46284A9342F1D3244B55
:100200001B6813B9234B1B6803B1FEE702F04EFED7
:10021000694601A801F0A2FF214C224B1C1BA4102F
:10022000002504E01E4B53F8253098470135AC42B9
:10023000F8DC1D4C1D4B1C1BA410002504E01A4BC0
:1002400053F8253098470135AC42F8DC0099019805
:1002500002F0B6FE0546164C164B1C1BA41004E01B
:10026000013C134B53F824309847002CF8DC284607
:1002700001F046FFBABADECA00000020F8000020F4
:10028000EC030008040400087856341232547698BF
:10029000FC0000201C0300200404000814040008D3
:1002A00014040008140400081404000814040008CE
:1002B000140400081404000808B5FFF765FF00BF28
:1002C00000BEFEE71EF0040F0CBFEFF30880EFF353
:1002D00009807146414A10472DE9F04182B0044639
:1002E0008846134B5E6B9F6B9D6A1B6B13F0020F6E
:1002F0000DD00F4BDB6A002B09DA4BF6AB6102F035
:1003000021F820B14FF00042094BDA620CE00948B5
:1003100001F036FFCDF800803B46324629462046A4
:1003200001F098FF00BEFEE702B0BDE8F08100BF1B
:1003300000ED00E01876000800BEFEE71EF0040F96
:100340000CBFEFF30880EFF309807146244A104791
:100350002DE9F04182B004468846084B5E6B9F6BE6
:100360009D6A074801F00CFFCDF800803B463246FD
:100370002946204601F06EFF00BEFEE700ED00E0DA
:10038000287600081EF0040F0CBFEFF30880EFF38F
:1003900009807146134A10472DE9F04182B00446A6
:1003A0008846084B5E6B9F6B9D6A074801F0E8FE2C
:1003B000CDF800803B4632462946204601F04AFFF0
:1003C00000BEFEE700ED00E03476000800BEFEE768
:1003D00000BEFEE700BEFEE770470000D90200083D
:0C03E000510300089903000800BEFEE76E
:1003EC000C78000800000020FC0000200C780008AD
:1003FC000000001000000010FC0000202003002072
:08040C000000001000000010C8
:1004400010B5044601F0ECFA064BA3FB003080091E
:1004500000F0A0F8002221464FF0FF3000F058F8DD
:10046000002010BDD34D621008B50B4B1A6842F442
:1004700000721A601A6842F480621A601A6842F4C4
:1004800080721A60032000F025F80F20FFF7D8FFD4
:1004900002F08EFE002008BD003C0240024A1368B4
:1004A00001331360704700BF9C010020014B1868A6
:1004B000704700BF9C01002010B582B00190FFF78B
:1004C000F5FF0446FFF7F2FF001B019B9842F9D3AA
:1004D00002B010BD10B50446C31E042B03D9A421DD
:1004E000094801F043FE094AD36823F4E0631B0482
:1004F0001B0C240204F4E064234343F0BF6343F481
:100500000033D36010BD00BF4C73000800ED00E065
:1005100070B504460E4615460F2A03D9BC211A4869
:1005200001F024FE0F2E03D9BD21174801F01EFE55
:10053000164BDA68C2F30222C2F10701042928BF70
:100540000421131D062B01D9033A00E000220123E8
:1005500003FA01F101393140914003FA02F2013A04
:100560002A400A43002C06DA04F00F041201D2B22A
:10057000074B1A5570BD1201D2B204F1604404F564
:10058000614484F8002370BD4C73000800ED00E066
:1005900014ED00E00138B0F1807F0AD2064B5860BC
:1005A000F021064A82F823100020986007221A6082
:1005B00070470120704700BF10E000E000ED00E050
:1005C00010B50446042805D020B140F2B311084804
:1005D00001F0CCFD042C05D1064A136843F0040356
:1005E000136010BD034A136823F00403136010BDA9
:1005F0004C73000810E000E02DE9F04782B080461F
:100600000F46A44B984223D003F5806398421FD035
:1006100003F5806398421BD003F58063984217D09E
:1006200003F58063984213D003F5806398420FD09E
:1006300003F5806398420BD003F58063984207D09E
:1006400003F58063984203D0C521934801F08EFDE5
:100650003B881BB9C621904801F088FD7B68012BBF
:1006600022D9112B20D0022B1ED0122B1CD08B4A4A
:10067000934219D002F58012934215D002F58012F0
:10068000934211D0A2F5F81293420DD002F58012D8
:10069000934209D002F58012934205D0032B03D078
:1006A000C7217D4801F062FDBB68022B03D9C82138
:1006B000794801F05BFD00252CE10124AC403E6847
:1006C0002640B44240F025817B68022B01D0122BDA
:1006D0004AD13B69C3B3092B36D0ABB3A3B39BB3A9
:1006E00093B3012B30D02FD0022B2DD02CD02BD078
:1006F000032B29D0042B27D026D025D0052B23D09F
:1007000022D0092B20D0062B1ED0092B1CD0072B62
:100710001AD019D018D0082B16D015D014D0092B08
:1007200012D011D00A2B0FD00ED00B2B0CD00C2BCB
:100730000AD009D00D2B07D00C2B05D00F2B03D0DE
:10074000D921554801F012FDEA08083258F8220074
:1007500005F0070399000F238B4020EA03003B6953
:100760008B40034348F82230D8F800304FEA450A5E
:100770004FF0030909FA0AF96FEA090903EA0902C5
:100780007B6803F0030303FA0AF31343C8F800304D
:100790007B685A1E012A03D9112B01D0122B1BD1C1
:1007A000FB68032B03D9EC213B4801F0DFFCD8F8B0
:1007B000083009EA0302FB6803FA0AF31343C8F896
:1007C0000830D8F8043023EA04047B68C3F300132C
:1007D000AB401C43C8F80440D8F80C3009EA0309C0
:1007E000BB6803FA0AF349EA0303C8F80C307B68D4
:1007F00013F0805F00F08D8000230193284B5A6C2A
:1008000042F480425A645B6C03F480430193019B81
:10081000A9088A1C234B53F8220005F003039B0010
:100820000F229A4020EA02001A4A904521D002F590
:10083000806290451FD002F5806290451DD002F580
:10084000806290451BD002F58062904519D002F578
:100850008062904517D002F58062904515D002F570
:100860008062904513D002F5806290451CD1082229
:100870001BE0002219E0012217E0022215E003220A
:1008800013E0042211E005220FE006220DE007220A
:100890000BE000BF00000240807300080000111050
:1008A0000038024000380140092202FA03F30343F2
:1008B00002311B4A42F821301A4B1A68F34302EA0C
:1008C0000301786810F4803F01D046EA0201154A1E
:1008D0001160526803EA0201786810F4003F01D009
:1008E00046EA02010F4A5160926803EA0201786801
:1008F00010F4801F01D046EA02010A4A9160D268D2
:100900001340796811F4001F01D046EA0203054A3A
:10091000D36001350F2D7FF6D0AE02B0BDE8F08771
:1009200000380140003C014003685A6912F4806FAE
:100930000DD06FF480625A610423036400230363C3
:10094000202280F83D2080F83C30012070470020B4
:10095000704700BF2DE9F04106460C4690461D4603
:10096000FFF7A4FD0746B8F1000F13D03FE0B5F143
:10097000FF3F0FD025B1FFF799FDC01B854209D27B
:1009800000233363202286F83D2086F83C30032084
:10099000BDE8F081C4F30743012B08D133685B69DC
:1009A00024EA03039BB2003318BF012307E0336836
:1009B0009B6924EA03039BB2003318BF0123002B79
:1009C000D5D10020BDE8F081B5F1FF3F0FD025B1B2
:1009D000FFF76CFDC01B854209D200233363202240
:1009E00086F83D2086F83C300320BDE8F081C4F352
:1009F0000743012B08D133685B6924EA03039BB2E8
:100A0000B3FA83F35B0907E033689B6924EA0303C5
:100A10009BB2B3FA83F35B09002BD5D10020BDE86C
:100A2000F08100BFF8B504460D461646FFF73EFDBF
:100A3000074629E023685A6912F4806F12D01A68B9
:100A400042F400721A6023686FF480625A610423D2
:100A5000236400232363202284F83D2084F83C3063
:100A60000120F8BDB6F1FF3F0ED026B1FFF71EFD05
:100A7000C01B864208D200232363202284F83D2035
:100A800084F83C300320F8BDC5F30743012B08D19F
:100A900023685B6925EA03039BB2003318BF012377
:100AA00007E023689B6925EA03039BB2003318BF64
:100AB0000123002BBED10020F8BD00BF70B5044655
:100AC0000D46FFF7F3FC064619E02046FFF72CFF22
:100AD000E0B9B5F1FF3F12D025B1FFF7E7FC801B6D
:100AE00085420CD2236C43F020032364002323634C
:100AF000202284F83D2084F83C30032070BD236818
:100B00005B6913F0800FE0D0002070BD012070BD44
:100B1000F0B583B004460D4616461F4602681368BA
:100B200043F480731360089B00224FF00111FFF71C
:100B300011FF002843D1236805F0FE051D61089AC6
:100B400024492046FFF76EFF20B1236C042B38D1D7
:100B500001233BE00023019323685A6901929B69BA
:100B60000193019B08992046FFF7A8FF034648B16F
:100B7000236C042B27D12268136843F4007313609D
:100B8000012323E0012F03D12268F6B216611DE094
:100B90002368320A1A6108992046FFF78FFF03463F
:100BA00048B1236C042B10D12268136843F40073FE
:100BB000136001230AE02268F6B2166106E00323FF
:100BC00004E0032302E0032300E00323184603B0FC
:100BD000F0BD00BF02000100F0B583B004460D4631
:100BE00016461F460268136843F480631360026868
:100BF000136843F480731360089B00224FF00111C7
:100C0000FFF7A8FE00286DD12368EDB205F0FE02C3
:100C10001A61089A3B492046FFF704FF20B1236C74
:100C2000042B61D101236AE00023019323685A69F0
:100C300001929B690193019B08992046FFF73EFFB3
:100C400048B1236C042B51D12268136843F400731C
:100C50001360012353E0012F03D12368F6B21E6114
:100C600014E02368320A1A6108992046FFF726FF2C
:100C700048B1236C042B3BD12268136843F4007302
:100C8000136001233BE02368F6B21E6108992046F9
:100C9000FFF714FF48B1236C042B2BD12268136893
:100CA00043F400731360012329E02268136843F4BE
:100CB00080731360089B00224FF001112046FFF75C
:100CC00049FEC8B9236845F001051D61089A0D4920
:100CD0002046FFF7A7FE034688B1236C042B0DD1F5
:100CE00001230CE003230AE0032308E0032306E0CA
:100CF000032304E0032302E0032300E00323184658
:100D000003B0F0BD0200010070B505460C46FFF7C8
:100D1000CDFB064622E05A6912F0100F0CD06FF09E
:100D200010025A6100232B642B63202285F83D209A
:100D300085F83C30012070BD24B1FFF7B7FB801B64
:100D400084420BD22B6C43F020032B64202385F8C4
:100D50003D30002385F83C30032070BD2B685A6974
:100D600012F0400FD7D0002070BD00BF002800F067
:100D7000E38038B504460368704A93420CD002F50C
:100D80008062934208D002F58062934204D04FF40F
:100D9000B1716B4801F0EAF96368013B694A93421B
:100DA00004D940F26311664801F0E0F9A3683BB151
:100DB000B3F5804F04D04FF4B271614801F0D6F919
:100DC000E36823F47F7323F0030323B140F265113A
:100DD0005B4801F0CBF92369B3F5804F07D0B3F539
:100DE000404F04D04FF4B371554801F0BFF9636927
:100DF000012B04D940F26711514801F0B7F9A369FA
:100E000033F0FE0304D04FF4B4714D4801F0AEF955
:100E1000E36933B1402B04D040F26911484801F036
:100E2000A5F9236A33B1802B04D04FF4B57144483F
:100E300001F09CF994F83D3013F0FF0F05D1002329
:100E400084F83C30204602F049F9242384F83D30F0
:100E50002268136823F00103136000F0FBFD3A4B96
:100E6000A3FB00239B0C2268536021686568374A06
:100E7000954201D8013308E04FF4967202FB03F368
:100E8000334AA2FB03239B0901330B622168636889
:100E90002E4A934208D85B00B0FBF3F0C0F30B037B
:100EA000032B2BD8042029E0A5684DB903EB43029E
:100EB000B0FBF2F2C2F30B02B2FA82F252090AE07C
:100EC00003EB830202EB8202B0FBF2F2C2F30B02ED
:100ED000B2FA82F2520982B935B903EB4303B0FB8F
:100EE000F3F040F4004009E003EB830303EB8303DA
:100EF000B0FBF3F040F4404000E00120C8612268FC
:100F0000E169236A0B43136022682169E3680B439C
:100F1000936022686169A3690B43D36022681368F8
:100F200043F00103136000202064202384F83D3047
:100F3000206384F83E0038BD012070470054004013
:100F4000B07300087F1A060083DE1B43A0860100F1
:100F5000D34D62102DE9F04182B005460F46904610
:100F60001C46BDF82460012B06D0102B04D040F69F
:100F7000FE01484801F0FAF895F83D30DBB2202B2D
:100F80007BD142F21073012243492846FFF7E2FC6D
:100F9000002874D195F83C30012B72D0012385F8DC
:100FA0003C302A68136823F400631360212385F81A
:100FB0003D30402385F83E3000232B64A3F5803379
:100FC000EB620A9B00932346424639462846FFF7C8
:100FD0009FFD002831D02B6C042B04D1002385F811
:100FE0003C30012352E0002385F83C3003234DE0E0
:100FF0000A992846FFF762FD48B12B6C042B42D1B9
:101000002A68136843F40073136001233EE02B68E1
:10101000089A0132089909781961731E9BB22968F0
:10102000486910F0040F06D02BB1089B9A1C5B781E
:101030000B61B31E9BB21E460892002ED8D10A99AE
:101040002846FFF73BFD034648B12B6C042B1CD10F
:101050002A68136843F400731360012316E02968BB
:101060000A6842F400720A60202285F83D200022BE
:1010700085F83E2085F83C2008E0022306E00223A4
:1010800004E0022302E0032300E00323184602B039
:10109000BDE8F081B0730008020010002DE9F041B6
:1010A00086B005460F4690461C46BDF83460012BBD
:1010B00006D0102B04D04FF41761914801F056F878
:1010C00095F83D30DBB2202B40F0078142F21073DF
:1010D00001228C492846FFF73DFC002840F0FF80A4
:1010E00095F83C30012B00F0FC80012385F83C3062
:1010F0002A68136823F400631360222385F83D30C7
:10110000402385F83E3000232B64A3F58033EB6247
:101110000E9B00932346424639462846FFF75CFD66
:10112000044660B12B6C042B04D1002385F83C30BD
:101130000124E1E0002385F83C300324DCE066B9BB
:10114000002302932B685A6902929A690292029ACA
:101150001A6842F400721A60B3E0012E11D12A68B5
:10116000136823F480631360002303932B685A6988
:1011700003929A690392039A1A6842F400721A6001
:101180009FE0022E12D12A68136823F48063136053
:101190002A68136843F400631360002304932B68E8
:1011A0005A6904929B690493049B8AE00023059387
:1011B0002B685A6905929B690593059B81E0032E74
:1011C0005DD8012E14D10E992846FFF79DFD28B158
:1011D0002B6C202B40F0878003248DE02B681B694B
:1011E0000C9A1370013EB6B2134601330C9368E0BB
:1011F000022E19D10E9B002243492846FFF7AAFB75
:10120000002872D12A68136843F4007313602B68B6
:101210001A690C9B03F8022B2A6812690C994A7010
:10122000023EB6B20C934CE00E9B00223649284693
:10123000FFF790FB00285AD12A68136823F48063D3
:1012400013602B681B690C9A13700E9B00222E49A9
:101250002846FFF77FFB00284BD12A68136843F428
:10126000007313602B681B690C9A53702B681B6901
:101270009370033EB6B2134603330C9321E00E99EC
:101280002846FFF741FD20B12B6C202B33D10324DE
:1012900032E00C9B581C2B681B690C9A1370731E50
:1012A0009BB22A68516911F0040F08D013690C9A97
:1012B0005370023EB6B2134602330C9301E01E4651
:1012C0000C90002E7FF47BAF202385F83D30002367
:1012D00085F83E3085F83C300EE002240CE0022414
:1012E0000AE0022408E0012406E0032404E00324C9
:1012F00002E0032400E00124204606B0BDE8F081AE
:10130000B0730008020010000400010030B583B083
:10131000044603680F2B03D9F6219C4800F026FFF2
:10132000236813F0010F45D06368012B05D9052B05
:1013300003D0FB21954800F019FF954B9B6803F003
:101340000C03042B0AD0924B9B6803F00C03082B70
:101350000CD18F4B5B6813F4800F07D08C4B1B684C
:1013600013F4003F26D0636823BBCCE12279894B7C
:101370001A7063687BB1FFF799F8054605E0FFF73F
:1013800095F8401B642800F2C081814B1B6813F460
:10139000003FF4D00EE0FFF789F8054605E0FFF7BF
:1013A00085F8401B642800F2B281794B1B6813F466
:1013B000003FF4D1236813F0020F6AD0E368012BD9
:1013C00004D940F22D11714800F0D0FE23691F2B83
:1013D00004D94FF497716D4800F0C8FE6C4B9B68C0
:1013E00013F00C0F0AD06A4B9B6803F00C03082B18
:1013F0001BD1674B5B6813F4800F16D1644B1B68DD
:1014000013F0020F03D0E368012B40F082816048A3
:10141000036823F0F8012369F82292FAA2F2B2FAE3
:1014200082F293400B43036033E0E368FBB1012297
:10143000594B1A60FFF73AF8054605E0FFF736F812
:10144000401B022800F26781514B1B6813F0020F0A
:10145000F4D04F48036823F0F8012369F82292FA88
:10146000A2F2B2FA82F293400B43036011E0002231
:10147000494B1A60FFF71AF8054605E0FFF716F822
:10148000401B022800F24981414B1B6813F0020FF8
:10149000F4D1236813F0080F2ED06369012B04D90F
:1014A0004FF4B771394800F061FE636993B10122CE
:1014B0003A4B1A60FEF7FAFF054605E0FEF7F6FF25
:1014C000401B022800F22B81314B5B6F13F0020F9F
:1014D000F4D011E00022314B1A60FEF7E7FF054619
:1014E00005E0FEF7E3FF401B022800F21A81284BBB
:1014F0005B6F13F0020FF4D1236813F0040F60D078
:10150000A368012B06D9052B04D04FF4CC711F48DA
:1015100000F02CFE002301931D4B1A6C42F0805208
:101520001A641B6C03F080530193019B1C4A1368DF
:1015300043F480731360FEF7B9FF054605E0FEF73C
:10154000B5FF401B022800F2EE80154B1B6813F418
:10155000807FF4D0227A134B1A70A3688BB1FEF708
:10156000A5FF054607E0FEF7A1FF401B41F28833C7
:10157000984200F2DA80064B1B6F13F0020FF2D094
:101580001FE0FEF793FF054616E000BFF07300086A
:10159000003802400238024000004742800E4742B5
:1015A0000070004070380240FEF780FF401B41F29F
:1015B0008833984200F2BB80634B1B6F13F0020F1D
:1015C000F2D1A369022B04D940F2CD115F4800F09B
:1015D000CDFDA369002B00F0AC805B4A926802F05D
:1015E0000C02082A00F0A780022B79D1E3693BB1F5
:1015F000B3F5800F04D04FF4EB71544800F0B6FD02
:10160000236A3F2B04D940F2D711504800F0AEFDB9
:10161000636A323BB3F5BF7F04D94FF4EC714B489A
:1016200000F0A4FDA36A022B0AD0042B08D0062BDD
:1016300006D0082B04D040F2D911444800F096FDA2
:10164000E36A043B0B2B04D94FF4ED713F4800F0E3
:101650008DFD00223E4B1A60FEF728FF054604E090
:10166000FEF724FF401B022867D8374B1B6813F096
:10167000007FF5D1E169236A1943636A47F6C072B6
:1016800092FAA2F2B2FA82F293401943A36A5B087B
:101690005A1E4FF4403393FAA3F3B3FA83F302FADA
:1016A00003F30B43E26A4FF0706191FAA1F1B1FAD2
:1016B00081F18A401343244A53600122244B1A606B
:1016C000FEF7F4FE044604E0FEF7F0FE001B0228DD
:1016D00035D81D4B1B6813F0007FF5D0002031E09A
:1016E00000221B4B1A60FEF7E1FE044604E0FEF701
:1016F000DDFE001B022824D8134B1B6813F0007F6B
:10170000F5D100201EE001201CE003201AE0032098
:1017100018E0012016E0032014E0032012E003206B
:1017200010E003200EE003200CE003200AE0032079
:1017300008E0002006E0012004E0032002E003208E
:1017400000E0032003B030BD00380240F073000811
:101750006000474270B504460D460368013B0E2BFE
:1017600004D94FF40E71834800F000FD072D04D911
:1017700040F239217F4800F0F9FC7F4B1B6803F0F1
:101780000F039D4208D9EBB27B4A1370136803F034
:101790000F039D4240F0DB80236813F0020F1DD041
:1017A000A368A3B1802B12D0902B10D0A02B0ED009
:1017B000B02B0CD0C02B0AD0D02B08D0E02B06D0F9
:1017C000F02B04D04FF414716A4800F0CFFC6B4941
:1017D0008B6823F0F002A36813438B60236813F037
:1017E000010F64D06368032B04D940F2572161488C
:1017F00000F0BCFC6268012A05D1604B1B6813F441
:10180000003F0FD1A5E0931E012B05D85B4B1B6851
:1018100013F0007F06D19EE0584B1B6813F0020FB7
:1018200000F09B8055498B6823F0030313438B60C2
:10183000FEF73CFE06466368012B0FD107E0FEF77A
:1018400035FE801B41F28833984200F288804B4B72
:101850009B6803F00C03042BF1D128E0022B0ED17E
:1018600006E0FEF723FE801B41F28833984278D8C9
:10187000424B9B6803F00C03082BF2D117E0032BBB
:1018800010D13E4B9B68FEF711FE801B41F288335E
:101890009842F6D967E0FEF709FE801B41F28833D3
:1018A000984262D8354B9B6813F00C0FF3D1324B42
:1018B0001B6803F00F039D4207D2EAB22E4B1A7049
:1018C0001B6803F00F039D4251D1236813F0040FEE
:1018D00019D0E36883B1B3F5805F0DD0B3F5A05F95
:1018E0000AD0B3F5C05F07D0B3F5E05F04D040F293
:1018F000B521204800F03AFC20498B6823F4E052DF
:10190000E36813438B60236813F0080F1AD0236930
:1019100083B1B3F5805F0DD0B3F5A05F0AD0B3F506
:10192000C05F07D0B3F5E05F04D04FF42F711148CA
:1019300000F01CFC114A936823F46043216943EAD8
:10194000C10393600F20FEF77BFD002070BD0120D6
:1019500070BD012070BD012070BD012070BD03204D
:1019600070BD032070BD032070BD032070BD012039
:1019700070BD00BFF0730008003C02400038024018
:10198000244B9B6803F00C03042B3FD0082B01D0A1
:101990002148704710B41F4B586800F03F005B6847
:1019A00013F4800F10D01D4BB3FBF0F0194B5A68A5
:1019B00047F6C0710A4091FAA1F3B3FA83F322FA11
:1019C00003F303FB00F310E0134BB3FBF0F0114BF8
:1019D0005A6847F6C07402EA040194FAA4F2B2FA13
:1019E00082F221FA02F202FB00F30A4A506800F484
:1019F00040324FF4403090FAA0F0B0FA80F022FA72
:101A000000F001304000B3FBF0F001E00348704704
:101A100010BC7047003802400024F40000127A0025
:101A200008B5FFF7ADFF084B9B6803F0F002F02309
:101A300093FAA3F3B3FA83F322FA03F3034AD35CD2
:101A4000D840034B186008BD00380240E07300081E
:101A50000C00002008B5FFF7E3FF084B9B6803F478
:101A6000E0524FF4E05393FAA3F3B3FA83F322FA6C
:101A700003F3034AD35CD84008BD00BF00380240DE
:101A8000E073000808B5FFF7CBFF084B9B6803F431
:101A900060424FF4604393FAA3F3B3FA83F322FA5C
:101AA00003F3034AD35CD84008BD00BF00380240AE
:101AB000E07300082DE9F84304464268B14B9A42AE
:101AC00004D940F2DD61B04800F050FBE3683BB15F
:101AD000B3F5005F04D040F2DE61AB4800F046FB96
:101AE000236953B1B3F5806F07D0B3F5C06F04D04D
:101AF00040F2DF61A44800F039FB63694FF6F372EE
:101B0000134200D123B94FF4DC619F4800F02EFB53
:101B100021680B6923F44052E36813430B6120688A
:101B2000C36823F4164222F00C02A168236919430A
:101B300063691943E3690B431343C36021684B692D
:101B400023F44072A36913434B61E369B3F5004F7B
:101B500040F0BB80276803F1804303F510439F42A8
:101B600003D003F580639F4257D1FFF78BFF00EB53
:101B7000800000EB800065686D00B0FBF5F5834EDA
:101B8000A6FB05356D092D01FFF77CFF00EB8000FA
:101B900000EB800063685B00B0FBF3F9FFF772FFB6
:101BA00000EB800000EB800063685B00B0FBF3F3A8
:101BB000A6FB03235B094FF0640808FB1393DB00CB
:101BC0003233A6FB03235B095B0003F4F8731D4467
:101BD000FFF758FF00EB800000EB800063685B00BC
:101BE000B0FBF3F9FFF74EFF00EB800000EB800045
:101BF00063685B00B0FBF3F3A6FB03235B0908FB00
:101C000013984FEAC80808F13208A6FB0836C6F355
:101C100042163544BD60BDE8F883FFF71BFF00EBBB
:101C2000800000EB800065686D00B0FBF5F5574E55
:101C3000A6FB05356D092D01FFF70CFF00EB8000B9
:101C400000EB800063685B00B0FBF3F9FFF702FF75
:101C500000EB800000EB800063685B00B0FBF3F3F7
:101C6000A6FB03235B094FF0640808FB1393DB001A
:101C70003233A6FB03235B095B0003F4F8731D44B6
:101C8000FFF7E8FE00EB800000EB800063685B007C
:101C9000B0FBF3F9FFF7DEFE00EB800000EB800005
:101CA00063685B00B0FBF3F3A6FB03235B0908FB4F
:101CB00013984FEAC80808F13208A6FB0836C6F3A5
:101CC00042163544BD60BDE8F8832668304B9E421D
:101CD00003D003F580639E425CD1FFF7D3FE00EB97
:101CE000800000EB80006568AD00B0FBF5F5274F84
:101CF000A7FB05356D092D01FFF7C4FE00EB800041
:101D000000EB800063689B00B0FBF3F8FFF7BAFEBE
:101D100000EB800000EB800063689B00B0FBF3F3F6
:101D2000A7FB03235B094FF0640909FB13831B0125
:101D30003233A7FB03235B0903F0F0031D44FFF7D5
:101D4000A1FE00EB800000EB800063689B00B0FB0D
:101D5000F3F8FFF797FE00EB800000EB800063686C
:101D60009B00B0FBF3F3A7FB03235B0909FB138381
:101D70001B013233A7FB0323C3F343131D44B56098
:101D8000BDE8F883A037A000207400081F85EB5140
:101D900000100140FFF75EFE00EB800000EB8000CA
:101DA0006568AD00B0FBF5F5254FA7FB05356D095E
:101DB0002D01FFF74FFE00EB800000EB8000636811
:101DC0009B00B0FBF3F8FFF745FE00EB800000EB53
:101DD000800063689B00B0FBF3F3A7FB03235B0960
:101DE0004FF0640909FB13831B013233A7FB032364
:101DF0005B0903F0F0031D44FFF72CFE00EB8000AD
:101E000000EB800063689B00B0FBF3F8FFF722FE55
:101E100000EB800000EB800063689B00B0FBF3F3F5
:101E2000A7FB03235B0909FB13831B013233A7FBC9
:101E30000323C3F343131D44B560BDE8F88300BF1B
:101E40001F85EB512DE9F04105460E4690461C4694
:101E5000FEF72CFB0746B8F1000F28D057E0B4F18D
:101E6000FF3F24D024B1FEF721FBC01B84421ED2C9
:101E70002A68D36823F08003D3602A68D36823F0EC
:101E80002003D3602A68D36823F48073D3602A6860
:101E9000536923F001035361202385F8393085F815
:101EA0003A30002385F838300320BDE8F0812B68F4
:101EB0001B6836EA0303D2D10020BDE8F081B4F1FB
:101EC000FF3F24D024B1FEF7F1FAC01B84421ED29A
:101ED0002A68D36823F08003D3602A68D36823F08C
:101EE0002003D3602A68D36823F48073D3602A6800
:101EF000536923F001035361202385F8393085F8B5
:101F00003A30002385F838300320BDE8F0812B6893
:101F10001B6836EA0303D2D00020BDE8F08100BF81
:101F2000002800F0868010B5044683691BB303685F
:101F3000414A93420FD0A2F54C4293420BD002F596
:101F40008062934207D002F54C42934203D0FB21BA
:101F50003A4800F00BF9A36953B3B3F5807F27D05B
:101F6000B3F5007F24D0B3F5407F21D0FC21334866
:101F700000F0FCF81CE003682F4A934218D0A2F549
:101F80004C42934214D002F58062934210D002F585
:101F9000806293420CD002F58062934208D002F531
:101FA0004442934204D04FF48071244800F0DEF89C
:101FB000A3683BB1B3F5805F04D04FF481711F4833
:101FC00000F0D4F8E3693BB1B3F5004F04D040F220
:101FD00003111A4800F0CAF894F8393013F0FF0FD3
:101FE00005D1002384F83830204601F0ABF82423D3
:101FF00084F839302268D36823F40053D360204634
:10200000FFF758FD2268136923F490431361226897
:10201000536923F02A0353612268D36843F40053C1
:10202000D3600020E063202384F8393084F83A300C
:1020300010BD0120704700BF00100140207400084F
:1020400070B51E4690F83930DBB2202B49D10446DA
:102050000D46002947D0002A47D090F83830012B90
:1020600045D0012380F838300023C363212380F852
:1020700039308284C28422E0013BE384A368B3F553
:10208000805F11D13346002280212046FFF7DAFE1F
:1020900078BB22682B88C3F30803536023690BB90C
:1020A00002350CE001350AE033460022802120464B
:1020B000FFF7C8FEF8B923682A785A600135E38C27
:1020C000002BD9D13346002240212046FFF7BAFE2B
:1020D000034690B9202284F83920002284F8382061
:1020E0000CE002230AE0012308E0012306E00223BA
:1020F00004E0032302E0032300E00323184670BD3D
:10210000FEE700BF08B5034800F052F80120FFF7D2
:10211000F7FF00BF5074000808B50D4B1B6813B9DA
:102120000C4A0B4B1A600A4B1A68C31C23F00303BA
:10213000134409498B4206D901F0C8FF0C23036000
:102140004FF0FF3008BD02490B60104608BD00BFCC
:10215000000100202003002000FC01200123036077
:10216000014B0B60704700BF0400002008B50A4611
:102170000146024800F004F8FFF7C4FFA474000809
:102180000FB400B583B004AB53F8042B0193802146
:10219000064802F0DDFD002803DD0146034800F09B
:1021A00049F803B05DF804EB04B070470801002063
:1021B00010B5044602F024FD0146204600F03AF82E
:1021C0000121024800F036F810BD00BF94750008E8
:1021D0002DE9F04385B004460F46435613BB042552
:1021E00028462146ABBE04461FE03546102E28BFC8
:1021F0001025002306E014F9011B04AA1A4402F872
:10220000101C0133AB42F6D304AA1344002203F896
:10221000102CE9464FF0040840464946ABBE8046C4
:10222000761B00E00E46002EDFD1384605B0BDE833
:10223000F08300BF08B5FFF7CBFF08BD08B500F07D
:1022400091F8024B024A9A6008BD00BF00ED00E021
:1022500000000008F8B504460D4617461E462648FD
:10226000FFF78EFF21682548FFF78AFF6168244841
:10227000FFF786FFA1682348FFF782FFE168224845
:10228000FFF77EFF21692148FFF77AFF6169204847
:10229000FFF776FFA1691F48FFF772FFE1691E484B
:1022A000FFF76EFF1D48FFF76BFF29461C48FFF73D
:1022B00067FF1C4CE16A1C48FFF762FF216B1B485B
:1022C000FFF75EFFE16B1A48FFF75AFF15F0800F2A
:1022D00003D039461748FFF753FF15F4004F03D0DA
:1022E00031461548FFF74CFF1448FFF749FF0699A0
:1022F0001348FFF745FFF8BDFC7400080C75000893
:102300001C7500082C7500083C7500084C75000809
:102310005C7500086C7500087C7500088C750008F9
:102320009875000800ED00E0A8750008B875000871
:10233000C8750008D8750008E8750008F875000829
:102340000076000883691A888A4207D10268033A36
:10235000012A05D8023383610120704700207047AD
:10236000002070470C4B1A6842F001021A600021ED
:1023700099601A6822F0847222F480321A60074A47
:102380005A601A6822F480221A60D9604FF0006205
:10239000034B9A60704700BF0038024010300024A1
:1023A00000ED00E0224B9B6803F00C03042B07D0E8
:1023B000082B09D0002B2DD11E4A1F4B1A602CE090
:1023C0001E4A1D4B1A6028E0194B5A685B6803F0DF
:1023D0003F0312F4800F09D0184AB2FBF3F2144BFA
:1023E0005B68C3F3881303FB02F208E0114AB2FBF7
:1023F000F3F30F4A5168C1F3881101FB03F20C4B50
:102400005B68C3F3014301335B00B2FBF3F30A4A99
:10241000136002E0074A084B1A60054B9B68C3F340
:102420000313074AD15C044A1368CB40136070471A
:10243000003802400024F4000C00002000127A0052
:102440004476000810B504464FF07C5101F078FC4A
:10245000094BA3EB6404214601F072FC01462046BF
:1024600001F06EFC01464FF07F5001F05FFB01462A
:10247000204601F065FC10BDDF59375F2DE9F04FB4
:1024800091B004460D4616460093DFF8D482D8F882
:10249000000000F10040214601F052FC8146AF4FA0
:1024A0003868294601F04CFC0146484601F03EFBE5
:1024B0008146DFF8B0A2DAF80000314601F040FCB6
:1024C0000146484601F032FB4FF07C5101F038FCE8
:1024D0000190DFF89492D9F80010204601F030FC0A
:1024E00083463968304601F02BFC0146584601F01E
:1024F0001FFB8346DAF80010284601F021FC014654
:10250000584601F013FB4FF07C5101F019FC02908A
:10251000D9F80010284601F013FC8346D8F80010C3
:10252000304601F00DFC0146584601F0FFFA8346A3
:10253000DAF80010204601F003FC0146584601F08D
:10254000F7FA4FF07C5101F0FBFB0390D9F8001033
:10255000304601F0F5FB0646D8F80010284601F099
:10256000EFFB0146304601F0E3FA054639682046A4
:1025700001F0E6FB0146284601F0D8FA4FF07C5105
:1025800001F0DEFB04900021009801F06DFD58B1D0
:1025900000211A9801F068FD30B100211B9801F06C
:1025A00063FD002840F0A881009D2946284601F0DF
:1025B000C7FB04461A99084601F0C2FB01462046B3
:1025C00001F0B6FA04461B99084601F0B9FB014632
:1025D000204601F0ADFAFFF735FF044601462846D4
:1025E00001F0AEFB009021461A9801F0A9FB83464A
:1025F00021461B9801F0A4FB0690DFF86C91D9F8F6
:102600000000014601F094FA0790554D28680146F4
:1026100001F08EFA0890514C2068014601F088FACA
:102620000990504E3068014601F082FA0A90D9F8BC
:1026300000004FF0814101F083FB074628684FF00E
:10264000814101F07DFB059020684FF0814101F050
:1026500077FB804628684FF0824101F071FB0B90B8
:1026600020684FF0824101F06BFB0C90D9F800001C
:10267000D9F8001001F064FB0F902868296801F078
:102680005FFB0D902068216801F05AFB814630689D
:10269000316801F055FB0E904946384601F050FB79
:1026A00082460999009801F04BFB0146504601F023
:1026B0003FFA82460D99384601F042FB01465046EA
:1026C00001F036FA07460899584601F039FB0146F1
:1026D000384601F02BFA07460E99059801F030FBB9
:1026E00082460A99009801F02BFB0146504601F002
:1026F0001DFA82464FF081410F9801F021FB0F90A7
:10270000296801F01DFB0146504601F011FA05460B
:102710000799584601F014FB0146284601F006FAD5
:10272000059901F003FA0546DDF834A051460B98EF
:1027300001F006FB0146284601F0FAF90546494634
:102740000B9801F0FDFA0146284601F0F1F9054623
:102750000599069801F0F4FA08E000BF8C0100200A
:10276000880100209001002010000020014628462A
:1027700001F0DEF9054621680F9801F0E1FA044600
:102780000799009801F0DCFA0146204601F0D0F9E3
:1027900004460E99404601F0D3FA0146204601F066
:1027A000C7F904460A99584601F0CAFA014620467C
:1027B00001F0BCF9414601F0B9F9044651460C98C4
:1027C00001F0BEFA0146204601F0B2F9044649463E
:1027D0000C9801F0B5FA0146204601F0A9F904462B
:1027E0004146069801F0ACFA0146204601F0A0F9F6
:1027F00080464FF08141504601F0A2FA316801F065
:102800009FFA04460899009801F09AFA014620467A
:1028100001F08CF904464FF08141484601F090FAEE
:10282000316801F08DFA0146204601F081F9044635
:102830000999584601F084FA0146204601F076F9DC
:1028400006463946384601F07BFA044629462846B2
:1028500001F076FA0146204601F06AF90446414645
:10286000404601F06DFA0146204601F061F9044648
:102870003146304601F064FA0146204601F058F92D
:10288000FFF7E0FD04460146384601F059FA0746D5
:102890002146284601F054FA05462146404601F0FB
:1028A0004FFA80462146304601F04AFA0646404C2F
:1028B0002168384601F044FA0146019801F036F9E2
:1028C00001902168284601F03BFA0146029801F088
:1028D0002DF902902168404601F032FA0146039832
:1028E00001F024F903902168304601F029FA0146ED
:1028F000049801F01BF904902E49019801F020FA88
:102900002D4F396801F014F938602A49029801F016
:1029100017FA2A4E316801F00BF930602549039807
:1029200001F00EFA264D296801F002F928602149CC
:10293000049801F005FA234C216801F0F9F82060B1
:102940003868396801F0FCF980463068316801F078
:10295000F7F90146404601F0EBF8804628682968FF
:1029600001F0EEF90146404601F0E2F880462068A9
:10297000216801F0E5F90146404601F0D9F8FFF77A
:1029800061FD8046396801F0DBF938603168404606
:1029900001F0D6F930602968404601F0D1F928608D
:1029A0002168404601F0CCF9206011B0BDE8F08FFD
:1029B000140000200AD7A33B10000020880100204B
:1029C0008C0100209001002010B584B004790068CB
:1029D00042F2107302930123019300920A462146AA
:1029E000FEF75CFB04B010BD30B585B0047900681B
:1029F00042F2107502950193009201230A46214686
:102A0000FEF74CFB05B030BD30B587B006AC04F81E
:102A1000012D0579006842F210730293012301939E
:102A200000940A462946FEF795FA07B030BD00BF6C
:102A300070B582B005460C4600238DF807300B793F
:102A4000002B00F08680CB79032B08D0042B02D01A
:102A5000022B0BD107E003238DF8073006E0022399
:102A60008DF8073002E001238DF807306379012BE0
:102A700006D013B1022B0CD014E08B4BAB6019E0E5
:102A80009DF8073043F008038DF80730874BAB60A3
:102A900010E09DF8073043F00C038DF80730844BAD
:102AA000AB6007E09DF8073043F004038DF8073072
:102AB000804BAB60A379092B1BD8DFE803F0050C32
:102AC000131A21282F363D449DF8073043F0100398
:102AD0008DF807303DE09DF8073043F020038DF876
:102AE000073036E09DF8073043F030038DF80730AB
:102AF0002FE09DF8073043F040038DF8073028E0C1
:102B00009DF8073043F050038DF8073021E09DF821
:102B1000073043F060038DF807301AE09DF8073066
:102B200043F070038DF8073013E09DF8073063F031
:102B30007F038DF807300CE09DF8073063F06F03DA
:102B40008DF8073005E09DF8073063F05F038DF8DE
:102B500007305948FFF714FB9DF80720102128463D
:102B6000FFF752FF0646002840F09A805348FFF7CF
:102B700007FB0DF1070213212846FFF725FF064644
:102B8000002840F08D804E48FFF7FAFA9DF8073094
:102B900003F07F038DF80730E2791AB963F07F0301
:102BA0008DF807309DF8072013212846FFF72CFFEA
:102BB0000646002874D14348FFF7E2FA00238DF857
:102BC00007306378002B60D0A378032B18D8DFE898
:102BD00003F002080B1102238DF807303A4BEB602B
:102BE00013E03A4BEB6010E004238DF80730384BCC
:102BF000EB600AE008238DF80730364BEB6004E009
:102C00000C238DF80730344BEB60E378072B1AD890
:102C1000DFE803F0040B121920272E359DF807304A
:102C200043F010038DF807302FE09DF8073043F094
:102C300020038DF8073028E09DF8073043F030037B
:102C40008DF8073021E09DF8073043F040038DF800
:102C500007301AE09DF8073043F050038DF8073035
:102C600013E09DF8073043F060038DF807300CE067
:102C70009DF8073043F070038DF8073005E09DF8AC
:102C8000073063F07F038DF807309DF8072011218E
:102C90002846FFF7B9FE064610B91048FFF770FA4C
:102CA000304602B070BD00BF23DB793D23DBF93D28
:102CB00023DB793E23DBF93E547600086476000876
:102CC000587600086076000800008C4000000C4137
:102CD00000008C4100000C4200008C426876000825
:102CE00008B50C230A462221FFF77EFE08BD00BF6F
:102CF000F8B506460D4614468768B1F9000000F0A5
:102D0000CBFF394601F01CF82060B768B5F9020026
:102D100000F0C2FF394601F013F86060B668B5F9FB
:102D2000040000F0B9FF314601F00AF8A060F8BDD8
:102D3000F8B506460D461446C768B1F9000000F024
:102D4000ABFF394600F0FCFF2060F768B5F90200E0
:102D500000F0A2FF394600F0F3FF6060F668B5F9B5
:102D6000040000F099FF314600F0EAFFA060F8BDD2
:102D700070B504460E4605690A2D0FDD41693068BD
:102D800000F0D4FE3060A169706800F0CFFE706082
:102D9000E169B06800F0CAFEB06070BD092D11DCB9
:102DA0000968406900F0C4FE60617168A06900F0C4
:102DB000BFFEA061B168E06900F0BAFEE0610135D4
:102DC000256170BD0A2D10D10849406901F06CF8E9
:102DD00060610649A06901F067F8A0610349E069F4
:102DE00001F062F8E0610135256170BD000020410D
:102DF000034B1B681BB1024A1368013B1360704709
:102E0000A401002008B5FDF749FBFFF7F1FF08BD5D
:102E100030B595B000240194214B1A6C42F08052D9
:102E20001A641B6C03F080530193019B02941D4BA9
:102E30001A6842F480421A601B6803F480430293CC
:102E4000029B0123089309934FF480030F930823F7
:102E500010934FF4A873119302251295072313932F
:102E60000E9508A8FEF752FA0F23039304950594D4
:102E70004FF4A05306934FF480530793052103A802
:102E8000FEF768FCFEF7CCFD074BA3FB0030800982
:102E9000FDF780FB0420FDF793FB15B030BD00BFAC
:102EA0000038024000700040D34D621008B5FDF7B5
:102EB000DBFAFFF7ADFFFFF775FA08BD0000000071
:102EC00070B584B0364C4FF480432361354B63605A
:102ED00000256561A560E5612562FF23E360F823B5
:102EE000A361314B2360102384F83E302046FDF768
:102EF0003DFF2E4B18702E4ED623337134600123C4
:102F00008DF808308DF80B5003228DF809208DF8CC
:102F10000A208DF80C508DF8053004218DF806102C
:102F20008DF8072004A901F80C3D3046FFF780FD1D
:102F3000204B1870B06800F0A1FA15A3D3E9002364
:102F400000F0F0FA00F09EFDB060F06800F096FA34
:102F500011A3D3E9002300F0E5FA00F093FDF0603F
:102F600015484FF4E13343608561082343614FF412
:102F70000043C3610561C560856003F1804303F5CB
:102F800010430360FEF7CCFF0C4B187004B070BD0B
:102F9000FCA9F1D24D62503F74341921154DF23E17
:102FA00070020020A086010000540040D9020020D9
:102FB0004C0200206C020020DC020020D80200201D
:102FC0002DE9F04182B0FFF77BFFFDF76FFA00F5C6
:102FD0001C501030344B1860FDF768FA471DDFF8BD
:102FE000F880324E41463046FFF77AFE304D2A4691
:102FF00008F106013046FFF77BFE2E4C2246414683
:103000003046FFF795FE21463046FFF7B1FE2B68AC
:10301000A26861682068AC6801946C680094FFF74E
:103020002DFAFDF743FA244BA3FB00231B093222A0
:1030300002FB1303042B18D8204C0A230422204936
:103040002046FEF7FDFF0A2304221E492046FEF714
:10305000F7FF0A2304221C492046FEF7F1FF0A234A
:1030600004221A492046FEF7EBFF194B186800F0BE
:1030700005FA0BA3D3E9002300F0BCFC40B9FDF72F
:1030800015FA094B1B68984202D9124A104B1A6074
:10309000FDF70CFA381A00289EDDFDF70DFA9BE7C4
:1030A0004C37894160E5B03FE40100204C0200202C
:1030B000C0020020CC0200201F85EB51DC02002062
:1030C00010000020880100208C01002090010020C9
:1030D00014000020022B873DB402002000B589B007
:1030E0000268164B9A4223D10022019203F5F23373
:1030F000196C41F400111964196C01F4001101916B
:1031000001990292196B41F0020119631B6B03F0E4
:1031100002030293029B0423079302230493C0211A
:1031200003910592069303A90548FDF765FA01E0AE
:10313000FEF7E8FF09B05DF804FB00BF0054004053
:103140000004024000B589B00268174B9A4225D1AD
:103150000022019203F59433596C41F01001596437
:10316000596C01F01001019101990292196B41F023
:10317000010119631B6B03F001030293029B0723F8
:103180000793122304934FF40073039305920223D1
:10319000069303A90548FDF72FFA01E0FEF7B2FFF9
:1031A00009B05DF804FB00BF0010014000000240C0
:1031B000704700BF81F0004102E000BF83F0004390
:1031C00030B54FEA41044FEA430594EA050F08BFC2
:1031D00090EA020F1FBF54EA000C55EA020C7FEA86
:1031E000645C7FEA655C00F0E2804FEA5454D4EB03
:1031F0005555B8BF6D420CDD2C4480EA020281EACD
:10320000030382EA000083EA010180EA020281EA04
:103210000303362D88BF30BD11F0004F4FEA013156
:103220004FF4801C4CEA113102D0404261EB410165
:1032300013F0004F4FEA03334CEA133302D05242EB
:1032400063EB430394EA050F00F0A780A4F10104A7
:10325000D5F1200E0DDB02FA0EFC22FA05F28018E1
:1032600041F1000103FA0EF2801843FA05F35941C7
:103270000EE0A5F120050EF1200E012A03FA0EFC46
:1032800028BF4CF0020C43FA05F3C01851EBE37170
:1032900001F0004507D54FF0000EDCF1000C7EEB8D
:1032A00000006EEB0101B1F5801F1BD3B1F5001FCB
:1032B0000CD349085FEA30004FEA3C0C04F10104EA
:1032C0004FEA445212F5800F80F09A80BCF1004F13
:1032D00008BF5FEA500C50F1000041EB045141EA95
:1032E000050130BD5FEA4C0C404141EB010111F496
:1032F000801FA4F10104E9D191F0000F04BF014641
:103300000020B1FA81F308BF2033A3F10B03B3F11E
:1033100020020CDA0C3208DD02F1140CC2F10C02AE
:1033200001FA0CF021FA02F10CE002F11402D8BF0C
:10333000C2F1200C01FA02F120FA0CFCDCBF41EAD8
:103340000C019040E41AA2BF01EB0451294330BDA7
:103350006FEA04041F3C1CDA0C340EDC04F1140484
:10336000C4F1200220FA04F001FA02F340EA03005B
:1033700021FA04F345EA030130BDC4F10C04C4F1A1
:10338000200220FA02F001FA04F340EA0300294681
:1033900030BD21FA04F0294630BD94F0000F83F4CB
:1033A000801306BF81F480110134013D4EE77FEAAE
:1033B000645C18BF7FEA655C29D094EA050F08BFFA
:1033C00090EA020F05D054EA000C04BF19461046DB
:1033D00030BD91EA030F1EBF0021002030BD5FEA1F
:1033E000545C05D14000494128BF41F0004130BD47
:1033F00014F580043CBF01F5801130BD01F000459B
:1034000045F0FE4141F470014FF0000030BD7FEA0D
:10341000645C1ABF194610467FEA655C1CBF0B4608
:10342000024650EA013406BF52EA033591EA030F1F
:1034300041F4002130BD00BF90F0000F04BF002117
:10344000704730B54FF4806404F132044FF000054A
:103450004FF0000150E700BF90F0000F04BF0021C3
:10346000704730B54FF4806404F1320410F0004529
:1034700048BF40424FF000013EE700BF42004FEA24
:10348000E2014FEA31014FEA02701FBF12F07F43A1
:1034900093F07F4F81F06051704792F0000F14BF9E
:1034A00093F07F4F704730B54FF4607401F00045E2
:1034B00021F0004120E700BF50EA010208BF704739
:1034C00030B54FF000050AE050EA010208BF70472E
:1034D00030B511F0004502D5404261EB41014FF497
:1034E000806404F132045FEA915C3FF4DCAE4FF09B
:1034F00003025FEADC0C18BF03325FEADC0C18BF82
:10350000033202EBDC02C2F1200300FA03FC20FAD2
:1035100002F001FA03FE40EA0E0021FA02F114441F
:10352000C1E600BF70B54FF0FF0C4CF4E06C1CEA34
:1035300011541DBF1CEA135594EA0C0F95EA0C0FA9
:1035400000F0DEF82C4481EA030621EA4C5123EA1C
:103550004C5350EA013518BF52EA033541F480114B
:1035600043F4801338D0A0FB02CE4FF00005E1FBFE
:1035700002E506F00042E0FB03E54FF00006E1FB48
:1035800003569CF0000F18BF4EF0010EA4F1FF048B
:10359000B6F5007F64F5407404D25FEA4E0E6D41CB
:1035A00046EB060642EAC62141EA55514FEAC520DC
:1035B00040EA5E504FEACE2EB4F1FD0C88BFBCF558
:1035C000E06F1ED8BEF1004F08BF5FEA500E50F109
:1035D000000041EB045170BD06F0004646EA0101CF
:1035E00040EA020081EA0301B4EB5C04C2BFD4EB01
:1035F0000C0541EA045170BD41F480114FF0000EFA
:10360000013C00F3AB8014F1360FDEBF002001F067
:10361000004170BDC4F10004203C35DA0C341BDCE1
:1036200004F11404C4F1200500FA05F320FA04F0B3
:1036300001FA05F240EA020001F0004221F00041E7
:1036400010EBD37021FA04F642EB06015EEA430E5A
:1036500008BF20EAD37070BDC4F10C04C4F120058A
:1036600000FA04F320FA05F001FA04F240EA02003D
:1036700001F0004110EBD37041F100015EEA430E0E
:1036800008BF20EAD37070BDC4F1200500FA05F22E
:103690004EEA020E20FA04F301FA05F243EA0203AD
:1036A00021FA04F001F0004121FA04F220EA0200BC
:1036B00000EBD3705EEA430E08BF20EAD37070BD02
:1036C00094F0000F0FD101F00046400041EB0101E2
:1036D00011F4801F08BF013CF7D041EA060195F0C4
:1036E000000F18BF704703F00046520043EB03037E
:1036F00013F4801F08BF013DF7D043EA060370476B
:1037000094EA0C0F0CEA135518BF95EA0C0F0CD075
:1037100050EA410618BF52EA4306D1D181EA0301BB
:1037200001F000414FF0000070BD50EA410606BFB5
:103730001046194652EA430619D094EA0C0F02D1FA
:1037400050EA013613D195EA0C0F05D152EA03363F
:103750001CBF104619460AD181EA030101F000415D
:1037600041F0FE4141F470014FF0000070BD41F0A6
:10377000FE4141F4780170BD70B54FF0FF0C4CF480
:10378000E06C1CEA11541DBF1CEA135594EA0C0F9F
:1037900095EA0C0F00F0A7F8A4EB050481EA030EEC
:1037A00052EA03354FEA013100F088804FEA0333D3
:1037B0004FF0805545EA131343EA12634FEA0222A1
:1037C00045EA111545EA10654FEA00260EF0004162
:1037D0009D4208BF964244F1FD0404F5407402D2B4
:1037E0005B084FEA3202B61A65EB03055B084FEA45
:1037F00032024FF480104FF4002CB6EB020E75EB42
:10380000030E22BFB61A754640EA0C005B084FEA69
:103810003202B6EB020E75EB030E22BFB61A7546E6
:1038200040EA5C005B084FEA3202B6EB020E75EB31
:10383000030E22BFB61A754640EA9C005B084FEAA9
:103840003202B6EB020E75EB030E22BFB61A7546B6
:1038500040EADC0055EA060E18D04FEA051545EAA5
:1038600016754FEA06164FEAC30343EA52734FEA4E
:10387000C2025FEA1C1CC0D111F4801F0BD141EAC7
:1038800000014FF000004FF0004CB6E711F4801F2C
:1038900004BF01430020B4F1FD0C88BFBCF5E06F0C
:1038A0003FF6AFAEB5EB030C04BFB6EB020C5FEA1C
:1038B000500C50F1000041EB045170BD0EF0004E71
:1038C0004EEA113114EB5C04C2BFD4EB0C0541EAA3
:1038D000045170BD41F480114FF0000E013C90E6A0
:1038E00045EA060E8DE60CEA135594EA0C0F08BF64
:1038F00095EA0C0F3FF43BAF94EA0C0F0AD150EA63
:1039000001347FF434AF95EA0C0F7FF425AF1046F5
:1039100019462CE795EA0C0F06D152EA03353FF41D
:10392000FDAE1046194622E750EA410618BF52EA9A
:1039300043067FF4C5AE50EA41047FF40DAF52EA6E
:1039400043057FF4EBAE12E74FF0FF3C06E000BF0B
:103950004FF0010C02E000BF4FF0010C4DF804CD18
:103960004FEA410C7FEA6C5C4FEA430C18BF7FEAD8
:103970006C5C1BD001B050EA410C0CBF52EA430C06
:1039800091EA030F02BF90EA020F0020704710F186
:10399000000F91EA030F58BF994208BF90422CBF15
:1039A000D8176FEAE37040F0010070474FEA410C0E
:1039B0007FEA6C5C02D150EA013C07D14FEA430C2C
:1039C0007FEA6C5CD6D152EA033CD3D05DF8040B9D
:1039D000704700BF8446104662468C4619466346CF
:1039E00000E000BF01B5FFF7B7FF002848BF10F1A6
:1039F000000F01BD4DF808EDFFF7F4FF0CBF0120EB
:103A000000205DF808FB00BF4DF808EDFFF7EAFF66
:103A100034BF012000205DF808FB00BF4DF808ED21
:103A2000FFF7E0FF94BF012000205DF808FB00BF16
:103A30004DF808EDFFF7CEFF94BF012000205DF8A0
:103A400008FB00BF4DF808EDFFF7C4FF34BF0120AD
:103A500000205DF808FB00BF4FEA410C7FEA6C5C78
:103A600002D150EA013C0AD14FEA430C7FEA6C5C78
:103A700002D152EA033C02D14FF0000070474FF0F0
:103A8000010070474FEA4102B2F1E04324BFB3F5B1
:103A9000001CDCF1FE5C0DD901F0004C4FEAC002C5
:103AA0004CEA5070B2F1004F40EB830008BF20F0A9
:103AB0000100704711F0804F21D113F13872BCBF63
:103AC00001F00040704741F480114FEA5252C2F1B8
:103AD0001802C2F1200C10FA0CF320FA02F018BF01
:103AE00040F001004FEAC1234FEAD32303FA0CFC54
:103AF00040EA0C0023FA02F34FEA4303CCE77FEAE3
:103B0000625307D150EA01331EBF4FF0FE4040F42C
:103B10004000704701F0004040F0FE4040F40000DB
:103B2000704700BF80F0004002E000BF81F000411C
:103B300042001FBF5FEA410392EA030F7FEA226C53
:103B40007FEA236C6AD04FEA1262D2EB1363C1BFE3
:103B5000D218414048404140B8BF5B42192B88BF52
:103B6000704710F0004F40F4000020F07F4018BF75
:103B7000404211F0004F41F4000121F07F4118BF95
:103B8000494292EA030F3FD0A2F1010241FA03FC3D
:103B900010EB0C00C3F1200301FA03F100F0004325
:103BA00002D5494260EB4000B0F5000F13D3B0F1ED
:103BB000807F06D340084FEA310102F10102FE2A5C
:103BC00051D2B1F1004F40EBC25008BF20F00100CC
:103BD00040EA03007047490040EB000010F4000F7A
:103BE000A2F10102EDD1B0FA80FCACF1080CB2EB0D
:103BF0000C0200FA0CF0AABF00EBC250524218436C
:103C0000BCBFD0401843704792F0000F81F4000110
:103C100006BF80F400000132013BB5E74FEA4103E3
:103C20007FEA226C18BF7FEA236C21D092EA030F4F
:103C300004D092F0000F08BF0846704790EA010FC9
:103C40001CBF0020704712F07F4F04D1400028BFF6
:103C500040F00040704712F100723CBF00F50000D8
:103C6000704700F0004343F0FE4040F4000070470E
:103C70007FEA226216BF08467FEA236301464202BA
:103C800006BF5FEA412390EA010F40F480007047CD
:103C90004FF0000304E000BF10F0004348BF404273
:103CA0005FEA000C08BF704743F0964301464FF0AF
:103CB00000001CE050EA010208BF70474FF000030B
:103CC0000AE000BF50EA010208BF704711F000434C
:103CD00002D5404261EB41015FEA010C02BF84461C
:103CE0000146002043F0B64308BFA3F18053A3F57B
:103CF0000003BCFA8CF2083AA3EBC25310DB01FAC2
:103D000002FC634400FA02FCC2F12002BCF1004F45
:103D100020FA02F243EB020008BF20F001007047D6
:103D200002F1200201FA02FCC2F1200250EA4C002A
:103D300021FA02F243EB020008BF20EADC70704770
:103D40004FF0FF0C1CEAD0521EBF1CEAD15392EA7E
:103D50000C0F93EA0C0F6FD01A4480EA010C40025A
:103D600018BF5FEA41211ED04FF0006343EA5010B4
:103D700043EA5111A0FB01310CF00040B1F5000FF6
:103D80003EBF490041EAD3715B0040EA010062F1A5
:103D90007F02FD2A1DD8B3F1004F40EBC25008BF8F
:103DA00020F00100704790F0000F0CF0004C08BFAD
:103DB00049024CEA502040EA51207F3AC2BFD2F17A
:103DC000FF0340EAC250704740F400004FF0000388
:103DD000013A5DDC12F1190FDCBF00F000407047C2
:103DE000C2F10002410021FA02F1C2F1200200FA00
:103DF00002FC5FEA310040F1000053EA4C0308BFC7
:103E000020EADC70704792F0000F00F0004C02BF17
:103E1000400010F4000F013AF9D040EA0C0093F092
:103E2000000F01F0004C02BF490011F4000F013BEC
:103E3000F9D041EA0C018FE70CEAD15392EA0C0F5A
:103E400018BF93EA0C0F0AD030F0004C18BF31F0C5
:103E5000004CD8D180EA010000F00040704790F09B
:103E6000000F17BF90F0004F084691F0000F91F03F
:103E7000004F14D092EA0C0F01D142020FD193EA05
:103E80000C0F03D14B0218BF084608D180EA01008D
:103E900000F0004040F0FE4040F40000704740F069
:103EA000FE4040F4400070474FF0FF0C1CEAD05237
:103EB0001EBF1CEAD15392EA0C0F93EA0C0F69D093
:103EC000A2EB030280EA010C49024FEA402037D0FE
:103ED0004FF0805343EA111143EA10130CF00040F5
:103EE0008B4238BF5B0042F17D024FF4000C8B42E5
:103EF00024BF5B1A40EA0C00B3EB510F24BFA3EBC5
:103F0000510340EA5C00B3EB910F24BFA3EB910394
:103F100040EA9C00B3EBD10F24BFA3EBD10340EAEE
:103F2000DC001B0118BF5FEA1C1CE0D1FD2A3FF634
:103F300050AF8B4240EBC25008BF20F001007047E9
:103F40000CF0004C4CEA50207F32C2BFD2F1FF038C
:103F500040EAC250704740F400004FF00003013ABD
:103F600037E792F0000F00F0004C02BF400010F461
:103F7000000F013AF9D040EA0C0093F0000F01F075
:103F8000004C02BF490011F4000F013BF9D041EA97
:103F90000C0195E70CEAD15392EA0C0F08D14202CA
:103FA0007FF47DAF93EA0C0F7FF470AF084676E79D
:103FB00093EA0C0F04D14B023FF44CAF08466EE776
:103FC00030F0004C18BF31F0004CCAD130F0004244
:103FD0007FF45CAF31F000437FF43CAF5FE700BF9C
:103FE0004FF0FF3C06E000BF4FF0010C02E000BFC5
:103FF0004FF0010C4DF804CD4FEA40024FEA410367
:104000007FEA226C18BF7FEA236C11D001B052EA1C
:10401000530C18BF90EA010F58BFB2EB030088BFE2
:10402000C81738BF6FEAE17018BF40F00100704751
:104030007FEA226C02D15FEA402C05D17FEA236C33
:10404000E4D15FEA412CE1D05DF8040B704700BF7A
:10405000844608466146FFE70FB5FFF7C9FF002811
:1040600048BF10F1000F0FBD4DF808EDFFF7F4FF4A
:104070000CBF012000205DF808FB00BF4DF808EDE3
:10408000FFF7EAFF34BF012000205DF808FB00BF06
:104090004DF808EDFFF7E0FF94BF012000205DF828
:1040A00008FB00BF4DF808EDFFF7D2FF94BF0120D9
:1040B00000205DF808FB00BF4DF808EDFFF7C8FFD2
:1040C00034BF012000205DF808FB00BF014B1868D9
:1040D000704700BF180000202DE9F04589B0002B83
:1040E00098469246109F149C62DB129A002313702C
:1040F000662C47D0462C62D024F02003452B524634
:10410000434629D007A9139E049106AD02210296C9
:1041100001970395009100F0BFFE672C064628D159
:10412000119BDB072AD5F519504641460022002392
:10413000FFF760FC20BB079B9D4206D930215A1C2B
:1041400007921970079B9D42F9D8159A9B1B304620
:10415000136009B0BDE8F08507A9139E04910137EB
:10416000022106AD029601970395009100F094FE9E
:104170000646472CD7D1119BDA072ED4079BE4E7DC
:104180002B46E2E707A906AD139C049103214346A1
:104190000395524602940197009100F07DFE064679
:1041A000C5193378302B1FD0139B1B681D44BBE708
:1041B00003F100439846129B2D21197098E707A937
:1041C000139E049106AD0321029652464346019781
:1041D0000395009100F060FE0646462C06EB0705AD
:1041E000A2D13378302BDFD1504641460022002344
:1041F000FFF700FC0028D7D1139AC7F10103136021
:104200001D4491E7F0B40029BABF49422D232B2366
:10421000092982B00270437000F102042BDD0DF118
:1042200007061B4F324687FB0135CB17C3EBA503AF
:1042300003EB8305A1EB450101F13005092B19467C
:1042400002F8015DEFDC3031531EC9B2B34202F80F
:10425000011C1AD20DF10606254601E013F8011FD4
:1042600005F8011B9E42F9D102AB9A1A2244101A9A
:1042700002B0F0BC704722463031302302F8023BD6
:104280006170101A02B0F0BC70472246F9E700BF17
:10429000676666662DE9F04F91B00C4616461F46DC
:1042A000DDF868B0054601F069FD03680A93184619
:1042B00000F0A6FC236809931A4600230E93DBF84E
:1042C00000300B900733D20594F818A023F00703B1
:1042D00040F1D78093E8030003F1080E02460B4635
:1042E000CBF800E0C4E912238046894629F0004B50
:1042F000404659464FF0FF32B54BFFF7ADFB002863
:104300006ED1404659464FF0FF32B14BFFF786FB66
:10431000002865D14046494600220023FFF774FB80
:10432000002840F02481AB49AB4A099B23F00403E9
:1043300023600323BAF1470F8CBF8946914623615E
:104340004FF00008009733460FAA2146284600F098
:104350005FFA01303FD02368580540F10081BAF17F
:10436000650F40F2998000220023D4E91201FFF783
:1043700041FB002840F0C6810D9B002B40F30B82CF
:104380000E9AA36D9A42A8BF1A46002A924607DDEC
:10439000134631464A462846B84701301BD0A36D24
:1043A0002AEAEA7ACAEB0302002A40F3648104F1A4
:1043B0001A0B4FF0000805E0A36DCAEB030242455B
:1043C00040F3598101235A4631462846B847013007
:1043D00008F10108F0D14FF0FF3011B0BDE8F08FC7
:1043E000424640464B464946FFF736FB002840F020
:1043F000EB806168481C00F00F81BAF1670F00F094
:10440000B181BAF1470F00F0B680099840F4806E90
:10441000C4F800E000200DF1380CCDF804E0009164
:104420000DF1340E0DF133014B4606904246CDF8A6
:1044300010A0CDF814C0CDF80CE002912846FFF78B
:104440004BFE8146BAF1650F0D9B40F2D380BAF165
:10445000660F00F08D810E9A9A4200F30481226863
:104460002361D20701D55A1C2261A3654FF00008D1
:104470009DF83330002B3FF465AF2D2384F8433093
:1044800060E793E8000303F1080142464B46CBF88E
:104490000010C4E9122329E70E9A012A62DD0123E4
:1044A0004A4631462846B847013094D00B9B0A9AB9
:1044B00031462846B84701308DD000230022D4E988
:1044C0001201FFF797FA0E9BA0B1012B1BDD04F13F
:1044D0001A0A4FF0000903E00E9B013B4B4512DD29
:1044E0000123524631462846B847013009F10109F7
:1044F000F2D170E709F10102013B31462846B84785
:1045000001303FF468AF434604F15002314628467B
:10451000B84701303FF45FAF2368E06813F0020F43
:104520000F9B16D0C21A002A13DD04F119094FF0AF
:10453000000804E0E0680F9BC21A424509DD012330
:104540004A4631462846B847013008F10108F1D102
:1045500041E79842B8BF184611B0BDE8F08F4A460F
:104560002369D3E7DB079AD44A460123C5E72D2305
:1045700084F84330D7E6002900F0F780099840F42A
:10458000806EC4F800E000200DF1380CCDF804E096
:1045900000910DF1340E0DF133014B460690424669
:1045A000CDF810A0CDF814C0CDF80CE0029128464B
:1045B000FFF792FD81460D9BD91C13DB6268934285
:1045C00010DC4FF0670A46E70449054AADE600BF34
:1045D000FFFFEF7F7C76000878760008847600087D
:1045E00080760008AAF1020A5FFA8AFABAF1650F2A
:1045F0003FF62DAF013B1946524604F150000D9392
:10460000FFF700FE0E9A8318012A8046236140F3CB
:10461000BD80013323612BE706216160099840F4D6
:10462000806EC4F800E000200DF1380CCDF804E0F5
:1046300000910DF1340E0DF133014B4606904246C8
:10464000CDF810A0CDF814C0CDF80CE002912846AA
:10465000FFF742FDBAF1670F8146ACD0BAF1470FC0
:104660007FF4F0AEA7E7002BD4BFC3F10201012114
:104670000A442261F9E60D990E9A914209EB03086A
:1046800035DB2368D80732D49144C8EB0909521AA4
:104690009145A8BF9146B9F1000F0ADD42464B464D
:1046A00031462846B84701303FF495AE0E9B0D9A2F
:1046B0009A1A29EAE979C9EB0202002A7FF72CAF9E
:1046C00004F11A0A4FF0000807E00E9B0D9A9B1A9E
:1046D000C9EB030343457FF71FAF01235246314621
:1046E0002846B847013008F10108EED173E60B9B6C
:1046F0000A9A31462846B84701303FF46CAE0E9A0C
:104700000D99C1E70123414A31462846B847013097
:104710003FF461AE0D9A0E9B9A4203DB2368D907E2
:104720007FF5FBAE0B9B0A9A31462846B84701300D
:104730003FF451AE0E9B012B7FF7EEAE04F11A0948
:104740004FF0000804E00E9B013B43457FF7E4AEC9
:1047500001234A4631462846B847013008F101088E
:10476000F1D138E600297FF409AF0121616055E7F6
:10477000002B62683EDD23611AB101321A442261C6
:1047800073E62168C8077FF570AEF6E72268D207A6
:104790007FF56EAE3DE701231C4A31462846B847F7
:1047A00001303FF418AE0D9B2BB90E9B1BB923684B
:1047B000DA077FF5B2AE0B9B0A9A31462846B84716
:1047C00001303FF408AE0D9B5B42002B1ADD04F173
:1047D0001A0A4FF0000803E00D9B5B42434511DDD0
:1047E0000123524631462846B847013008F10108F6
:1047F000F2D1F0E522B92168C90701D4012238E7D6
:10480000023236E74A460E9B80E600BF88760008F3
:104810002DE9F0470C4691460969A268DDF8208031
:104820008A42B8BF0A46C9F8002094F843100646E9
:104830001F4611B10132C9F80020236899065DD5E1
:10484000D9F800200232C9F80020236813F0060FBF
:1048500019461DD1E1688A1A002AD8BF194617DD0A
:1048600004F1190A002505E0E368D9F800209B1A35
:10487000AB420CDD0123524639463046C047013079
:1048800005F10105F0D14FF0FF30BDE8F087216858
:1048900094F84330003318BF01238A060AD5E11883
:1048A0005A1C302081F84300224494F8451082F8C5
:1048B0004310023304F1430239463046C047013009
:1048C000E1D0236803F00603042B29D0A3682269F2
:1048D0009342C8BF4FF000092FDD9B1A99441A3448
:1048E000002501E04D4528D00123224639463046B7
:1048F000C047013005F10105F4D1C4E713F0060FFC
:1049000008D1E168D9F800208A1A002AD8BF1946D0
:10491000A6DCBDE794F84330003318BF0123C9E794
:10492000D9F80000E168A3682269091A934221EAD4
:10493000E179D2DCB9F1000FD1D10020BDE8F087D8
:104940002DE9F0430C46097E85B06E2906461746D0
:104950000C98984604F1430C5AD01AD8632900F0F9
:10496000128100F2D68000295CD0582940F0F580F1
:1049700084F8451022680368DFF864E2150603F145
:1049800004011ED4550653BF1B6801601B880160DB
:1049900019E0732900F0CF807ED86F2900F0E48001
:1049A000702940F0DA80226842F0200222607823E9
:1049B00084F845300368DFF82CE2150603F10401A2
:1049C000E0D51B680160D00744BF42F0200222609E
:1049D000002B40F09080226822F0200222601021FB
:1049E000002284F843206068A0600028C0F288801C
:1049F000226822F004022260002B62D1002840F0DD
:104A00008180654608296AD0C5EB0C0323610CE060
:104A100023681A0640F1D58003686269191D016098
:104A20001B681A60002365462361CDF800803B4671
:104A300003AA21463046FFF7EBFE013021D02A467B
:104A4000236939463046C04701301AD0236803989D
:104A500013F0020FE36819D01A1A002A16DD04F1C8
:104A60001909002504E0E36803981A1AAA420DDD2B
:104A700001234A4639463046C047013005F1010559
:104A8000F1D14FF0FF3005B0BDE8F0839842B8BFD8
:104A9000184605B0BDE8F083752965D078295CD14A
:104AA000226884E76168A1602D200029C3F100031A
:104AB00084F8430021DB22F00402DFF824E12260C5
:104AC0000A216546B3FBF1F201FB123013461EF8D2
:104AD000002005F8012D002BF4D1082994D123687A
:104AE000D90791D5626823699A428DDC302305F895
:104AF000013C013D88E7102172E7DFF8E4E00A217C
:104B0000002BDED19EF8003084F8423004F14205DB
:104B100078E7642901D069291FD122680368150646
:104B200003F104013AD51B680160002BBADBDFF802
:104B3000B0E00A2157E703686268191D01601D682B
:104B40000021284601F03CF9002846D0401B606057
:104B50002061002384F8433067E7012384F8421082
:104B6000236104F14205F4E723681A061ED50368A1
:104B70001A1D1B680260227EDFF864E06F2A14BFF2
:104B80000A2108212CE703681A68191D0123016016
:104B900004F1420584F842202361DAE7550653BF49
:104BA0001B680160B3F900300160BEE713F0400FED
:104BB000036803F1040215BF02601B681B880260D2
:104BC000D9E713F0400F0368626903F10401016043
:104BD0001B6814BF1A801A6024E76068B8E700BF3A
:104BE0008C760008A076000800000000000000009D
:104BF00000000000000000000000000000000000B5
:104C000090F800F06DE9024520F007016FF0000C0C
:104C100010F0070491F820F040F049804FF00004B4
:104C20006FF00700D1E9002391F840F000F108008F
:104C300082FA4CF2A4FA8CF283FA4CF3A2FA8CF3C7
:104C40004BBBD1E9022382FA4CF200F10800A4FA2E
:104C50008CF283FA4CF3A2FA8CF3E3B9D1E9042382
:104C600082FA4CF200F10800A4FA8CF283FA4CF3B9
:104C7000A2FA8CF37BB9D1E9062301F1200182FA73
:104C80004CF200F10800A4FA8CF283FA4CF3A2FA79
:104C90008CF3002BC6D0002A04BF04301A4612BA87
:104CA000B2FA82F2FDE8024500EBD2007047D1E98A
:104CB000002304F00305C4F100004FEAC50514F019
:104CC000040F91F840F00CFA05F562EA05021CBFEA
:104CD00063EA050362464FF00004A9E770B5002AB5
:104CE0009AB005462FDB14461A464FF40273009122
:104CF0000491ADF80C3011D0013C4FF6FF761E9BAD
:104D0000029469460594ADF80E6001F07DFF421CE7
:104D100012DB009B00221A701AB070BD1E9B029419
:104D20004FF6FF7669460594ADF80E6001F06CFF12
:104D3000431C04DB1AB070BD8B232B60E9E78B2387
:104D40002B601AB070BD8B2303604FF0FF30F1E78A
:104D500010B582B0054C0093246813460A460146FC
:104D60002046FFF7BBFF02B010BD00BF18000020B7
:104D700002690B69934200F38D802DE9F04F03F136
:104D8000FF3801F1140700F1140B57F828205BF8E5
:104D900028304FEA880483B00132B3FBF2F90BEB01
:104DA0000403009407EB040A0193B9F1000F39D012
:104DB0000025BC46DE462B465CF8046BDEF800207E
:104DC000B4B209FB0455360C2C0C09FB0644ADB2F9
:104DD0005B1BA6B213FA82F3C6EB124606EB234620
:104DE0009BB243EA0643E2454EF8043B4FEA1445C2
:104DF0004FEA2643E0D2009B5BF8033093B9019C55
:104E0000231F9B450CD254F8043C4BB9A4F1080372
:104E100002E01A68043B1AB99B4508F1FF38F8D341
:104E2000C0F81080044601F02FFB00282EDB09F1AA
:104E300001095D46002357F8041B28688AB29A1AB4
:104E4000090C12FA80F2C1EB104303EB224391B23A
:104E500041EA0341BA4545F8041B4FEA2343EAD22D
:104E60005BF828200BEB880382B91A1F93450BD2FD
:104E700053F8042C42B9083B02E01A68043B1AB903
:104E80009B4508F1FF38F8D3C4F81080484603B0BA
:104E9000BDE8F08F002070472DE9F04F456A97B0CC
:104EA0008146239C92469B46002D00F0E1822968B2
:104EB00051B16A684A60012393408B6001F09EF80B
:104EC000D9F8243000221A60BBF1000FD84633DB3A
:104ED00000232360A64B1A4608EA0303934214D02A
:104EE0005046594600220023FEF784FD054648B38C
:104EF000229A01231360249B002B00F0C5809D485B
:104F00001860013817B0BDE8F08F229A42F20F7393
:104F10001360BAF1000F00F0A2809748249B002B89
:104F2000F0D0C378002B00F0B18000F10803249A80
:104F3000136017B0BDE8F08F01232BF00048236009
:104F4000C346C7E714AA15AB0192009352465B46CD
:104F5000484601F0CFFB5FEA1854089040F0888083
:104F6000149D159C2C4404F23243202B40F3AE8256
:104F7000C3F1400304F2124008FA03F82AFA00F0E1
:104F800040EA0800FEF758FA0123013CA1F1F8714C
:104F900010930022794BFEF711F96FA3D3E9002398
:104FA000FEF7C0FA6EA3D3E90023FEF709F906461F
:104FB00020460F46FEF750FA6BA3D3E90023FEF715
:104FC000B1FA02460B4630463946FEF7F9F8064676
:104FD0000F4602F093F90022049000233046394630
:104FE000FEF712FD002840F05B82049E162E00F2B0
:104FF0003C82634B03EBC603D3E9000152465B4698
:10500000FEF720FD002800F06682731E0493002343
:105010000C932C1B631E029300F13D820023059329
:10502000049B002BC0F22E82029A0B931146194466
:10503000002302910A93209B092B29D8052B40F3CA
:105040006286043B20930025209B023B032B00F249
:105050004486DFE813F04903450254038104464BBC
:10506000484AC8F31300002814BF1846104655E7F5
:10507000CBF3130343F07F5110955046A4F2FF3455
:1050800041F44011149D84E73F483BE7C31C4EE7C1
:10509000D9F8245000246C602146484600F07AFF7D
:1050A000D9F8243028601B6807934FF0FF320123A2
:1050B0002194069220940D920993159B002BC0F227
:1050C000D180049A0E2A00F3CD802D4B03EBC2034E
:1050D000D3E90034CDE90234219B002BC0F21A83BE
:1050E00056465F4650465946DDE902AB52465B469E
:1050F000FEF742FB02F002F90446FEF7ADF9524614
:105100005B46FEF70FFA0B46024639463046FEF77D
:1051100055F8079D04F130032B70069B012B0646C2
:105120000F4605F1010562D00022184BFEF7FAF98F
:105130000022002306460F46FEF75CFC00287ED1C5
:10514000CDF81490DDF818A0DDF81CB0DDE9028977
:1051500029E000BFAFF3008061436F63A787D23FB0
:10516000B3C8608B288AC63FFB799F501344D33F56
:105170000000F07F89760008C07600080000F83F44
:10518000E0760008B4760008887600080000244025
:10519000FEF7C8F90022002306460F46FEF72AFC58
:1051A000002840F0DC8342464B4630463946FEF745
:1051B000E3FA02F0A3F80446FEF74EF942464B46E6
:1051C000FEF7B0F902460B4630463946FDF7F6FFCA
:1051D00004F1300E05F801EBCBEB050ED645064683
:1051E0000F464FF00002BD4BD2D1DDF8149032468D
:1051F0003B4630463946FDF7E3FF06460F4602467A
:105200000B46DDE90201FEF7FFFB40B932463B46A3
:10521000DDE90201FEF7EEFB88B1E3070FD515F8D3
:10522000014C079A6B1E04E09A4200F0378413F891
:10523000014D392C03F10105F6D001341C70089999
:10524000484600F0DBFE0022049B2A70229A0133BC
:105250001360249B002B00F0B18307981D6017B0EA
:10526000BDE8F08F099A002A00F02C81209A012ACB
:1052700040F37282069B0A9A5F1EBA42C0F2A18373
:10528000D71B069B002BC0F29584059D069B059AB3
:105290001A440592029A01211A444846029200F0EB
:1052A000A1FF064665B1029900290B4608DDA94217
:1052B000059AA8BF2B46D21AED1ACB1A0592029373
:1052C0000A9B002B40F32183099A002A00F01B82DD
:1052D000002F00F0188231463A46484601F024F883
:1052E000DDF82080014642460646484600F084FF2D
:1052F00041460446484600F081FE0A9BDB1B0A93A8
:1053000040F000820121484600F06CFF0B9B804674
:10531000002B00F0338201461A46484601F004F89B
:10532000209B012B804600F3CA82BAF1000F40F0A7
:10533000C682CBF31303002B40F049842BF00047C7
:105340003F0D3F0537B1059B01330593029B0133A8
:10535000029301270B9B0120002B40F0B182029A9F
:10536000104410F01F0000F00082C0F12003042B55
:1053700040F3AE84059BC0F11C0003440593134623
:10538000034405440293059B002B05DD21461A4684
:10539000484601F025F80446029B002B05DD4146F6
:1053A0001A46484601F01CF880460C9B002B40F042
:1053B0009182069B002B40F3AA82099B002B40F0B0
:1053C000FF81DDF81CB0069F5D4602E000F032FE72
:1053D000044641462046FFF7CBFC00F1300A05F8B1
:1053E00001ABCBEB0503BB424FF00A024FF00003C9
:1053F00021464846EADB079B069A012AACBF9B1868
:1054000001331D464FF0000B21460122484600F0B3
:10541000E7FF4146089001F037F8002840F3088381
:1054200015F8012C07996B1E04E08B4200F08D8269
:1054300013F8012D392A03F10105F6D001321A7053
:105440004146484600F0DAFD002E3FF4F8AEBBF1CD
:10545000000F05D0B34503D05946484600F0CEFDB5
:105460003146484600F0CAFDE9E601230C93D0E539
:10547000102000F093FCC9F82400456085600560A9
:10548000C56021E5059A049BD21A5B420A9300236A
:1054900005920B93CFE55B42059300230293BFE592
:1054A000DDF810804046FDF7D7FF02460B46304638
:1054B0003946FEF79FFA00287FF497AD08F1FF33D5
:1054C000049392E50A9F059D099EEBE6C3F120082F
:1054D0000AFA08F056E50C909BE500BF0000244056
:1054E00000230993049B219A13440D930133002B4D
:1054F000069340F37382069C2246D9F8246000216B
:10550000172A716008D904235B0003F1140090424C
:1055100001F10101F8D97160484600F03BFDD9F86E
:10552000243030601B6807930E2C3FF6C6AD002D6B
:105530003FF4C3AD04995746D8460029CDE90E780B
:1055400040F38382914B01F00F020E1103EBC20373
:10555000F006D3E9004540F13C828D4B5046594658
:10556000D3E90823FEF708F906F00F0682468B46BA
:105570004FF0030886B1864FF10709D5204629462A
:10558000D7E90023FDF7CEFF08F1010804460D46D8
:10559000761007F10807EFD122462B4650465946B0
:1055A000FEF7EAF806460F460C9B43B10022794B02
:1055B00030463946FEF728FA002840F0108340466E
:1055C000FDF74AFF32463B46FDF7ACFF724B002227
:1055D000FDF7F6FD069B0446A1F15075002B00F087
:1055E000CF81049BDDF818801193099B002B00F0FC
:1055F0008882664B694903EBC80353E90223002004
:10560000FEF7BAF822462B46FDF7D8FD82468B46B8
:105610003046394601F072FE0446FDF71DFF024692
:105620000B4630463946FDF7C9FD3034079DE4B2DC
:1056300006460F462C7002460B4650465946013529
:10564000FEF700FA00284CD132463B460020514973
:10565000FDF7B4FD02460B4650465946FEF7F2F9F7
:10566000002840F0FF82B8F1010F40F3A381079BAF
:1056700098440DE000204749FDF7A0FD52465B46E7
:10568000FEF7C2F9002840F0ED82454500F0928116
:10569000504659460022424BFDF744FF0022404B42
:1056A00082468B4630463946FDF73CFF0F4606469C
:1056B00001F024FE0446FDF7CFFE02460B463046BD
:1056C0003946FDF77BFD3034E4B252465B4605F8BF
:1056D000014B06460F46FEF797F932463B46002837
:1056E000C8D0119B0493AAE500230993219B002BAA
:1056F00040F37A811A461C460D930693FDE601237A
:105700000993F3E708940A9A0899484600F00CFEBA
:105710000446F7E5069B002B3FF7E2AC40F0C7825A
:105720000022204BDDE90201FDF7FCFE52465B46FC
:10573000FEF77EF9DDF818804646002800F0FD806F
:10574000219B079DDB4304934146484600F056FCED
:10575000002E3FF474AD83E6109A002A00F03082E8
:1057600003F233430A9F059D91E51C20059B0344EA
:105770000593029B03440544029304E6209B012BFE
:1057800040F3C4820B9F0120E9E500BFE0760008EA
:10579000D07700080000F03F00001C400000E03F10
:1057A0000000244000001440314600230A224846ED
:1057B00000F040FC0D9B002B064640F384820693CC
:1057C000002D05DD31462A46484600F009FE064612
:1057D000002F40F06D810596069B079ADDF814B006
:1057E000013BD31808930AF0010309931746C246F8
:1057F00051462046FFF7BCFA31460546204600F0E8
:1058000043FE5A4602905146484600F05DFEC2688B
:10581000804605F13003002A49D10146204606930F
:1058200000F032FE41460590484600F0E7FB059A3D
:10583000069B2AB9209919B90999002900F0168206
:1058400002990029C0F2D58005D1209919B909998A
:10585000002900F0CE80002A00F33E81089A3B70B8
:1058600007F101089742454600F045812146002393
:105870000A22484600F0DEFB5E45044631464FF002
:1058800000034FF00A0248460BD000F0D3FB594604
:10589000064600230A22484600F0CCFB47468346D2
:1058A000A6E700F0C7FB474606468346A0E7014649
:1058B0004846059300F0A2FB0122059BC0E70027A4
:1058C000D8F8103008EB8303186900F03DFCC0F1F4
:1058D000200044E54146204600F0D6FD0028BFF6F2
:1058E00068AD2146049C0023013C0A2248460494EA
:1058F00000F0A0FB099B0446002B7FF455AF0D9BE5
:10590000002B40F3D88106935BE5089CFAE4209BCA
:10591000022B7FF752AD069B002B40F0858141465C
:105920000522484600F086FB01468046204600F0EE
:10593000ABFD002808947FF703AF049A0799312341
:10594000013204920B704D1CFEE6049A013204925F
:10595000079A3123137073E501230993C2E5DDF83B
:1059600014906CE44046FDF777FD32463B46FDF768
:10597000D9FD0022C44BFDF723FC0446A1F150756C
:10598000304639460022C14BFDF718FC22462B4613
:1059900006460F46FEF756F88046002840F006817E
:1059A000224605F1004330463946FEF72DF808B18E
:1059B0004646C5E6DDE90EABFFF77FBB0798FFF76C
:1059C000A1BA0A9B0B9A0A97FB1A1A440B9200275A
:1059D00057E4DDE90EAB4FF00208CBE51C46D9F8E1
:1059E00024600021716097E5012421940D940694B0
:1059F000F5E7002AD046CDF814B09A4611DD2146CD
:105A00000122484600F0ECFC4146044600F03CFD13
:105A1000002840F34581BAF1390F00F0078105F104
:105A2000310AB34687F800A07D1C059E089407E55F
:105A300004D11AF0010F01D0F2E4154615F8013C2B
:105A4000302B05F1FF32F8D0FAE4049B5C42002CC5
:105A500000F0C0808E4B04F00F0203EBC203D3E9C9
:105A60000023DDE90E01FDF75DFD241106460F461A
:105A700000F02681874D4FF00208E20709D5304635
:105A80003946D5E90023FDF74DFD08F1010806462A
:105A90000F46641005F10805EFD185E5079930221E
:105AA0000A70049A15F8014C01320492FFF7C5BB45
:105AB0007168484600F06EFA33699A1C05469200F8
:105AC00006F10C010C3000F0CBF9294601224846C2
:105AD00000F086FC05907FE6392BCDF814B0D04657
:105AE00000F0A48003F1010AB34687F800A07D1CF2
:105AF000059E0894A4E45A46D046B3469A461646F4
