:020000040800F2
:1000000000000220B9020008C1020008C502000871
:1000100035030008390300088103000800000000D0
:10002000000000000000000000000000C9030008FC
:10003000CD03000800000000D1030008552100088E
:10004000E5030008E5030008E5030008E5030008F0
:10005000E5030008E5030008E5030008E5030008E0
:10006000E5030008E5030008E5030008E5030008D0
:10007000E5030008E5030008E5030008E5030008C0
:10008000E5030008E5030008E5030008E5030008B0
:10009000E5030008E5030008E5030008E5030008A0
:1000A000E5030008E5030008E5030008E503000890
:1000B000E5030008E5030008E5030008E503000880
:1000C000E5030008E5030008E5030008E503000870
:1000D000E5030008E5030008E5030008E503000860
:1000E000E5030008E5030008E5030008E503000850
:1000F000E5030008E5030008E5030008E503000840
:10010000E5030008E5030008E5030008E50300082F
:10011000E5030008E5030008E5030008E50300081F
:10012000E5030008E5030008E5030008E50300080F
:10013000E5030008E5030008E5030008E5030008FF
:10014000E5030008E5030008E5030008E5030008EF
:10015000E5030008E5030008E5030008E5030008DF
:10016000E5030008E5030008E5030008E5030008CF
:10017000E5030008E5030008E503000800000000AF
:10018000E5030008E503000800B583B001F0FEFCBC
:10019000384B394A1360394A136039490CE00A6810
:1001A0004B6801F10C04886803E01168196004339E
:1001B00004329842F9D82146324B9942EFD32E4B64
:1001C0001A68314B9A4204D12C4B1A682F4B9A4231
:1001D00000D0FEE7274B2E4A13602E4A13602E4BA9
:1001E0000AE0194651F8082B5B6802E00020106015
:1001F00004329342FAD80B46284A9342F1D3244B57
:100200001B6813B9234B1B6803B1FEE701F0F6FF2F
:1002100001A8694601F048FC214B224DED1AAD10B2
:10022000002404E01E4B53F8243098470134A542C3
:10023000F8DC1D4B1D4DED1AAD10002404E01A4BE7
:1002400053F8243098470134A542F8DC019800990E
:1002500001F0DCFF0546164B164CE41AA41004E02E
:10026000013C134B53F824309847002CF8DC284607
:1002700001F0ECFBBABADECA0000002074000020D6
:10028000E8030008000400087856341232547698C7
:100290007800002018010020000400081004000865
:1002A00010040008100400081004000810040008DE
:1002B000100400081004000808B5FFF765FF00BF30
:1002C00000BEFEE71EF0040F0CBFEFF30880EFF353
:1002D00009807146404A10472DE9F04383B0054636
:1002E0008946124C676BA66BD4F82880236B13F0F9
:1002F000020F0BD0E36A002B08DA4BF6AB6101F07A
:10030000C9FC18B14FF00042E2620CE0084801F06D
:10031000DFFBCDF80090284641463A46334601F0CF
:1003200041FC00BEFEE703B0BDE8F08300ED00E055
:100330004033000800BEFEE71EF0040F0CBFEFF3D1
:100340000880EFF309807146244A10472DE9F041F7
:1003500082B007468846084C666BA56BA46A0748BE
:1003600001F0B6FBCDF800803846214632462B46D8
:1003700001F018FC00BEFEE700ED00E0503300087D
:100380001EF0040F0CBFEFF30880EFF309807146F5
:10039000134A10472DE9F04182B007468846084CC1
:1003A000666BA56BA46A074801F092FBCDF800804C
:1003B0003846214632462B4601F0F4FB00BEFEE7EC
:1003C00000ED00E05C33000800BEFEE700BEFEE783
:1003D00000BEFEE770470000D90200084D03000888
:0803E0009503000800BEFEE7D2
:1003E800EC3300080000002078000020EC330008FF
:1003F8000000001000000010780000201C01002000
:080408000000001000000010CC
:1004100010B5044601F0E8FA064BA3FB0020800962
:1004200000F092F84FF0FF302146002200F04AF829
:10043000002010BDD34D621008B50B4B1A6842F472
:1004400000721A601A6842F480621A601A6842F4F4
:1004500080721A60032000F017F80F20FFF7D8FF12
:1004600001F072FF002008BD003C0240024B1A68F8
:1004700001321A60704700BF0C010020014B186860
:10048000704700BF0C01002010B50446C31E042BAA
:1004900003D90A48A42101F00FFB04F00704084B1C
:1004A000D86820F4E0600004000C40EA042040F02A
:1004B000BF6040F40030D86010BD00BFA430000819
:1004C00000ED00E070B506460D4614460F2A03D92C
:1004D0001A48BC2101F0F0FA0F2D03D91748BD21AD
:1004E00001F0EAFA164BDB68C3F30223C3F10701FC
:1004F000042928BF04211A1D062A01D9033B00E064
:100500000023012202FA01F101390D409D4002FA57
:1005100003F3013B1C402C43002E06DA06F00F06C5
:100520002401E4B2074B9C5570BD2401E4B206F1EE
:10053000604000F5614080F8004370BDA4300008C1
:1005400000ED00E014ED00E00138B0F1807F0AD248
:10055000064B5860F021064A82F82310002098606C
:1005600007221A6070470120704700BF10E000E0CA
:1005700000ED00E010B50446042805D020B109487C
:1005800040F2B31101F098FA042C05D1064B1A6819
:1005900042F004021A6010BD034B1A6822F00402F4
:1005A0001A6010BDA430000810E000E02DE9F04F03
:1005B00083B007460D46A24B984223D003F58063D3
:1005C00098421FD003F5806398421BD003F58063E7
:1005D000984217D003F58063984213D003F58063E7
:1005E00098420FD003F5806398420BD003F58063E7
:1005F000984207D003F58063984203D09148C52103
:1006000001F05AFA2B881BB98E48C62101F054FA22
:100610006B68012B22D9112B20D0022B1ED0122B5C
:100620001CD0894A934219D002F58012934215D00A
:1006300002F58012934211D0A2F5F81293420DD028
:1006400002F58012934209D002F58012934205D040
:10065000032B03D07B48C72101F02EFAAB68022B95
:1006600003D97848C82101F027FA002429E1A146DE
:100670000126A6402B6803EA0608B04540F0208119
:100680006B68022B01D0122B4BD12B69C3B3092B02
:1006900036D0ABB3A3B39BB393B3012B30D02FD0E1
:1006A000022B2DD02CD02BD0032B29D0042B27D0DC
:1006B00026D025D0052B23D022D0092B20D0062BE5
:1006C0001ED0092B1CD0072B1AD019D018D0082BFC
:1006D00016D015D014D0092B12D011D00A2B0FD060
:1006E0000ED00B2B0CD00C2B0AD009D00D2B07D021
:1006F0000C2B05D00F2B03D05248D92101F0DCF987
:10070000E308083357F8231004F0070292000F2083
:10071000904021EA0000296901FA02F2024347F8F9
:1007200023203A684FEA440A4FF0030B0BFA0AFB06
:100730006FEA0B0B0BEA02026B6803F0030303FA88
:100740000AF313433B606B685A1E012A03D9112B2D
:1007500001D0122B19D1EB68032B03D93948EC21B6
:1007600001F0AAF9BA680BEA0202EB6803FA0AF38D
:100770001343BB607B6823EA06066B68C3F3001370
:1007800003FA09F949EA06067E60FB680BEA030BE7
:10079000AB6803FA0AF343EA0B03FB606B6813F0E0
:1007A000805F00F08D8000230193284B5A6C42F447
:1007B00080425A645B6C03F480430193019BA3085D
:1007C000991C234A52F8210004F0030292000F21E1
:1007D000914020EA01011A4887423BD000F5806031
:1007E00087422BD000F58060874225D000F58060DD
:1007F00087421FD000F58060874219D000F58060E5
:10080000874213D000F5806087420DD000F58060EC
:10081000874207D000F58060874201D108201AE0A6
:10082000092018E0072016E0062014E0052012E059
:10083000042010E003200EE002200CE001200AE07A
:1008400000000240D83000080000111000380240BB
:1008500000380140002000FA02F20A4302331C492A
:1008600041F823201B4B1A686FEA080303EA0201D0
:10087000686810F4803F01D048EA0201154A11600F
:10088000526803EA0201686810F4003F01D048EAA8
:100890000201104A5160926803EA0201686810F48C
:1008A000801F01D048EA02010A4A9160D2681340D1
:1008B000696811F4001F01D048EA0203054AD360B9
:1008C00001340F2C7FF6D3AE03B0BDE8F08F00BF2C
:1008D00000380140003C014003685A6912F4806FFF
:1008E0000DD06FF480625A61042303640023036314
:1008F000202280F83D2080F83C3001207047002005
:10090000704700BF2DE9F04106460C4690461D4653
:10091000FFF7B4FD0746B8F1000F13D03FE0B5F183
:10092000FF3F0FD025B1FFF7A9FDC01BA84209D991
:1009300000233363202286F83D2086F83C300320D4
:10094000BDE8F081C4F30743012B08D133685B692C
:1009500024EA03039BB2003318BF012307E0336886
:100960009B6924EA03039BB2003318BF0123002BC9
:10097000D5D10020BDE8F081B5F1FF3F0FD025B102
:10098000FFF77CFDC01BA84209D900233363202256
:1009900086F83D2086F83C300320BDE8F081C4F3A2
:1009A0000743012B09D133685B6924EA03039BB237
:1009B000D3F1010338BF002308E033689B6924EAC0
:1009C00003039BB2D3F1010338BF0023002BD3D123
:1009D0000020BDE8F08100BFF8B504460D4616467C
:1009E000FFF74CFD074629E02368596911F4806F31
:1009F00012D01A6842F400721A6023686FF48062A1
:100A00005A610423236400232363202284F83D20B9
:100A100084F83C300120F8BDB6F1FF3F0ED026B17E
:100A2000FFF72CFDC01BB04208D90023236320220E
:100A300084F83D2084F83C300320F8BDC5F307431B
:100A4000012B08D123685B6925EA03039BB20033BD
:100A500018BF012307E023689B6925EA03039BB2C3
:100A6000003318BF0123002BBED10020F8BD00BF0A
:100A700070B504460D46FFF701FD064619E0204615
:100A8000FFF72AFFE0B9B5F1FF3F12D025B1FFF71C
:100A9000F5FC801BA8420CD9236C43F0200323648F
:100AA00000232363202284F83D2084F83C30032077
:100AB00070BD23685B6913F0800FE0D0002070BD2B
:100AC000012070BD2DE9F04782B005468A46904668
:100AD00099460A9E0468276847F4807727604FF09C
:100AE000011100223346FFF70DFF002847D12B6884
:100AF0000AF0FE021A61284626493246FFF76CFFCB
:100B000020B12B6C042B3CD101213FE00023019349
:100B10002B685A6901929B690193019B28463146D3
:100B2000FFF7A6FF014648B12B6C042B2BD12B6895
:100B30001A6842F400721A60012127E0B9F1010F2E
:100B400004D12B685FFA88F21A611FE02B684FEA24
:100B500018221A6128463146FFF78AFF014648B13C
:100B60002B6C042B11D12B681A6842F400721A60A6
:100B700001210BE02B685FFA88F21A6106E003217D
:100B800004E0032102E0032100E00321084602B053
:100B9000BDE8F087020001002DE9F04782B004466D
:100BA000884691469A460A9E05682B6843F48063FE
:100BB0002B6005682F6847F480772F604FF0011194
:100BC00000223346FFF79EFE002872D123685FFAA9
:100BD00088F808F0FE021A6120463E493246FFF7C7
:100BE000FBFE20B1236C042B65D101236EE00023B2
:100BF000019323685A6901929B690193019B2046E6
:100C00003146FFF735FF48B1236C042B55D12368DB
:100C10001A6842F400721A60012357E0BAF1010F1A
:100C200004D123685FFA89F21A6116E023684FEA5B
:100C300019221A6120463146FFF71AFF48B1236C8A
:100C4000042B3CD123681A6842F400721A60012315
:100C50003CE023685FFA89F21A6120463146FFF7CB
:100C600007FF48B1236C042B2BD123681A6842F488
:100C700000721A60012329E023681A6842F4807226
:100C80001A6020464FF0011100223346FFF73AFE6A
:100C9000C8B9236848F001021A6120460D4932465E
:100CA000FFF79AFE034688B1236C042B0DD1012374
:100CB0000CE003230AE0032308E0032306E00323F8
:100CC00004E0032302E0032300E00323184602B0FC
:100CD000BDE8F0870200010070B505460C46FFF73D
:100CE000CDFB064622E05A6912F0100F0CD06FF0CF
:100CF00010025A6100232B642B63202285F83D20CB
:100D000085F83C30012070BD24B1FFF7B7FB801B94
:100D1000A0420BD92B6C43F020032B64202385F8D1
:100D20003D30002385F83C30032070BD2B685A69A4
:100D300012F0400FD7D0002070BD00BF38B5044678
:100D4000002800F0E3800368714A93420CD002F55A
:100D50008062934208D002F58062934204D06D48CD
:100D60004FF4B17100F0A8FE6368013B6A4A9342F8
:100D700004D9684840F2631100F09EFEA3683BB1BD
:100D8000B3F5804F04D063484FF4B27100F094FE85
:100D9000E36823F47F7323F0030323B15D4840F23B
:100DA000651100F089FE2369B3F5804F07D0B3F5D4
:100DB000404F04D057484FF4B37100F07DFE636993
:100DC000012B04D9534840F2671100F075FEA36966
:100DD00033F0FE0204D04F484FF4B47100F06CFEC3
:100DE000E36933B1402B04D04A4840F2691100F066
:100DF00063FE236A33B1802B04D046484FF4B571AB
:100E000000F05AFE94F83D3013F0FF0F05D1002397
:100E100084F83C30204601F06BFA242384F83D30FE
:100E200023681A6822F001021A6000F0F7FD3B4BBC
:100E3000A3FB00539B0C2268536021686268384D05
:100E4000AA4201D8013308E04FF4967202FB03F383
:100E5000344AA2FB03539B0901330B622268636887
:100E60002F498B4208D85B00B0FBF3F0C0F30B03B3
:100E7000032B2DD804202BE0A16851B903EB4305C7
:100E8000B0FBF5F5C5F30B05D5F1010538BF00251D
:100E90000BE003EB830505EB8505B0FBF5F5C5F32A
:100EA0000B05D5F1010538BF002585B931B903EB34
:100EB0004303B0FBF3F040F4004009E003EB83038D
:100EC00003EB8303B0FBF3F040F4404000E001206B
:100ED000D0612368E169226A0A431A6023682169A4
:100EE000E2680A439A6023686169A2690A43DA608A
:100EF00023681A6842F001021A600020206420234F
:100F000084F83D30206384F83E0038BD012038BDB0
:100F100000540040083100087F1A060083DE1B439E
:100F2000A0860100D34D62102DE9F04182B0054644
:100F3000884617461C46BDF82460012B06D0102BAE
:100F400004D0484840F6FE0100F0B6FD95F83D306B
:100F5000DBB2202B79D128464349012242F210739B
:100F6000FFF7D0FC002872D195F83C30012B70D0EF
:100F7000012385F83C302B681A6822F400621A605D
:100F8000212385F83D30402385F83E3000232B6433
:100F9000A3F58033EB620A980090284641463A4612
:100FA0002346FFF78FFD00282FD02B6C042B04D194
:100FB000002385F83C30012350E0002385F83C30C5
:100FC00003234BE028460A99FFF752FD48B12B6CEA
:100FD000042B40D12B681A6842F400721A60012376
:100FE0003CE02A6808994B1C09781161013EB6B2B1
:100FF0002A68516911F0040F06D02EB10898831C9D
:1010000041781161013EB6B20893002EDAD128462C
:101010000A99FFF72DFD034648B12B6C042B1CD118
:101020002B681A6842F400721A60012316E02A68DD
:10103000116841F400711160202285F83D200022E2
:1010400085F83E2085F83C2008E0022306E00223D4
:1010500004E0022302E0032300E00323184602B069
:10106000BDE8F08108310008020010002DE9F041D0
:1010700086B00546884617461C46BDF83460012BED
:1010800006D0102B04D091484FF4176100F014FDE6
:1010900095F83D30DBB2202B40F0048128468C4986
:1010A000012242F21073FFF72DFC002840F0FC8073
:1010B00095F83C30012B00F0F980012385F83C3095
:1010C0002B681A6822F400621A60222385F83D30EA
:1010D000402385F83E3000232B64A3F58033EB6278
:1010E0000E990091284641463A462346FFF754FDA3
:1010F000044660B12B6C042B04D1002385F83C30EE
:101100000124DEE0002385F83C300324D9E066B9F1
:10111000002302932B685A6902929A690292029AFA
:101120001A6842F400721A60B0E0012E11D12B68E7
:101130001A6822F480621A60002303932B685A69AC
:1011400003929A690392039A1A6842F400721A6031
:101150009CE0022E12D12B681A6822F480621A6079
:101160002B681A6842F400621A60002304932B680B
:101170005A6904929B690493049B87E000230593BA
:101180002B685A6905929B690593059B7EE0032EA7
:101190005DD8012E13D128460E99FFF79DFD28B189
:1011A0002B6C202B40F0848003248AE02B681B6981
:1011B0000C9A1370013EB6B201320C9266E0022E18
:1011C00019D12846434900220E9BFFF79BFB0028BC
:1011D00070D12B681A6842F400721A602B681A6981
:1011E0000C9B03F8022B2A6812690C994A70023E84
:1011F000B6B20C934AE02846364900220E9BFFF710
:1012000081FB002858D12B681A6822F480621A608A
:101210002B681B690C9A1370013EB6B228462D4903
:1012200000220E9BFFF76EFB002847D12B681A683F
:1012300042F400721A602B681B690C994B702B6882
:101240001B698B70023EB6B203310C911EE028463A
:101250000E99FFF741FD20B12B6C202B30D10324D8
:101260002FE00C9A511C2B681B691370013EB6B21B
:101270002B685A6912F0040F07D01B690C994B7048
:10128000013EB6B202310C9100E00C91002E7FF4C9
:101290007EAF202385F83D30002385F83E3085F869
:1012A0003C300EE002240CE002240AE0022408E0B4
:1012B000012406E0032404E0032402E0032400E008
:1012C0000124204606B0BDE8F08100BF08310008C7
:1012D000020010000400010030B583B0044603682A
:1012E0000F2B03D99C48F62100F0E6FB236813F08E
:1012F000010F45D06368012B05D9052B03D0964813
:10130000FB2100F0D9FB954B9B6803F00C03042BE9
:101310000AD0924B9B6803F00C03082B0CD18F4B27
:101320005B6813F4800F07D08C4B1B6813F4003FED
:1013300026D0636823BBCDE12279894B1A7063689C
:101340007BB1FFF79BF8054605E0FFF797F8401BD8
:10135000642800F2C181814B1B6813F4003FF4D074
:101360000EE0FFF78BF8054605E0FFF787F8401B16
:10137000642800F2B381794B1B6813F4003FF4D169
:10138000236813F0020F6AD0E368012B04D9724876
:1013900040F22D1100F090FB23691F2B04D96E48F9
:1013A0004FF4977100F088FB6C4B9B6813F00C0FA7
:1013B0000AD06A4B9B6803F00C03082B1BD1674BC8
:1013C0005B6813F4800F16D1644B1B6813F0020F97
:1013D00003D0E368012B40F08381604B196821F052
:1013E000F8012269F82090FAA0F0B0FA80F082406B
:1013F0000A431A6033E0E368FBB10122594B1A60DB
:10140000FFF73CF8054605E0FFF738F8401B0228D7
:1014100000F26881514B1B6813F0020FF4D04F4B60
:10142000196821F0F8012269F82090FAA0F0B0FACA
:1014300080F082400A431A6011E00022494B1A6092
:10144000FFF71CF8054605E0FFF718F8401B0228D7
:1014500000F24A81414B1B6813F0020FF4D123685C
:1014600013F0080F2ED06369012B04D93A484FF4CA
:10147000B77100F021FB636993B101223A4B1A6006
:10148000FEF7FCFF054605E0FEF7F8FF401B0228CB
:1014900000F22C81314B5B6F13F0020FF4D011E09E
:1014A0000022314B1A60FEF7E9FF054605E0FEF722
:1014B000E5FF401B022800F21B81284B5B6F13F0F5
:1014C000020FF4D1236813F0040F60D0A368012B3E
:1014D00006D9052B04D020484FF4CC7100F0ECFA6B
:1014E000002301931D4B1A6C42F080521A641B6C4E
:1014F00003F080530193019B1C4B1A6842F48072E5
:101500001A60FEF7BBFF054605E0FEF7B7FF401B7C
:10151000022800F2EF80154B1B6813F4807FF4D093
:10152000227A134B1A70A3688BB1FEF7A7FF05460A
:1015300007E0FEF7A3FF401B41F28833984200F218
:10154000DB80064B1B6F13F0020FF2D01FE0FEF79B
:1015500095FF054616E000BF4831000800380240FC
:101560000238024000004742800E474200700040AF
:1015700070380240FEF782FF401B41F288339842E8
:1015800000F2BC80644B1B6F13F0020FF2D1A36911
:10159000022B04D9614840F2CD1100F08DFAA36905
:1015A000002B00F0AD805C4A926802F00C02082A21
:1015B00000F0A880022B7AD1E3693BB1B3F5800F2C
:1015C00004D056484FF4EB7100F076FA236A3F2BB3
:1015D00004D9524840F2D71100F06EFA636A323BE8
:1015E000B3F5BF7F04D94D484FF4EC7100F064FAB5
:1015F000A36A022B0AD0042B08D0062B06D0082B96
:1016000004D0464840F2D91100F056FAE36A043B90
:101610000B2B04D941484FF4ED7100F04DFA002234
:101620003F4B1A60FEF72AFF054604E0FEF726FF4F
:10163000401B022868D8384B1B6813F0007FF5D197
:10164000E269236A1A43636A47F6C07191FAA1F10D
:10165000B1FA81F18B401A43A36A5B08591E4FF41B
:10166000403393FAA3F3B3FA83F301FA03F31A4373
:10167000E16A4FF0706393FAA3F3B3FA83F301FACC
:1016800003F31A43244B5A600122254B1A60FEF7DC
:10169000F5FE044604E0FEF7F1FE001B022835D8F3
:1016A0001D4B1B6813F0007FF5D0002031E00022B5
:1016B0001B4B1A60FEF7E2FE044604E0FEF7DEFE76
:1016C000001B022824D8144B1B6813F0007FF5D1AF
:1016D00000201EE001201CE003201AE0032018E097
:1016E000012016E0032014E0032012E0032010E0A4
:1016F00003200EE003200CE003200AE0032008E0B2
:10170000002006E0012004E0032002E0032000E0C6
:10171000032003B030BD00BF00380240483100084C
:101720006000474270B504460D460368013B0E2B2E
:1017300004D984484FF40E7100F0BEF9072D04D986
:10174000804840F2392100F0B7F97F4B1B6803F065
:101750000F03AB4208D2EAB27B4B1A701B6803F04E
:101760000F03AB4240F0DB80236813F0020F1DD063
:10177000A368A3B1802B12D0902B10D0A02B0ED039
:10178000B02B0CD0C02B0AD0D02B08D0E02B06D029
:10179000F02B04D06B484FF4147100F08DF96B4BB3
:1017A000996821F0F001A2680A439A60236813F057
:1017B000010F64D06368032B04D9624840F25721BB
:1017C00000F07AF96368012B05D1604A126812F4BF
:1017D000003F0FD1A5E09A1E012A05D85B4A126886
:1017E00012F0007F06D19EE0584A126812F0020FF4
:1017F00000F09B80554A916821F003010B439360F0
:10180000FEF73CFE06466368012B0FD107E0FEF7AA
:1018100035FE801B41F28833984200F288804B4BA2
:101820009B6803F00C03042BF1D128E0022B0ED1AE
:1018300006E0FEF723FE801B41F28833984278D8F9
:10184000424B9B6803F00C03082BF2D117E0032BEB
:1018500010D13E4B9B68FEF711FE801B41F288338E
:101860009842F6D967E0FEF709FE801B41F2883303
:10187000984262D8354B9B6813F00C0FF3D1324B72
:101880001B6803F00F03AB4207D9EAB22E4B1A7064
:101890001B6803F00F03AB4251D1236813F0040F10
:1018A00019D0E36883B1B3F5805F0DD0B3F5A05FC5
:1018B0000AD0B3F5C05F07D0B3F5E05F04D021488C
:1018C00040F2B52100F0F8F8204B996821F4E0517E
:1018D000E2680A439A60236813F0080F1AD023695C
:1018E00083B1B3F5805F0DD0B3F5A05F0AD0B3F537
:1018F000C05F07D0B3F5E05F04D012484FF42F71FA
:1019000000F0DAF8114B9A6822F46042216942EA49
:10191000C1029A600F20FEF77BFD002070BD012000
:1019200070BD012070BD012070BD012070BD03207D
:1019300070BD032070BD032070BD032070BD012069
:1019400070BD00BF48310008003C02400038024032
:10195000224B9B6803F00C03042B3DD0082B01D0D5
:101960001F4870471D4B586800F03F005B6813F438
:10197000800F10D01B4BB3FBF0F0184B5A6847F6A2
:10198000C0731A4093FAA3F3B3FA83F322FA03F372
:1019900003FB00F00FE0124BB3FBF0F00F4B5A6863
:1019A00047F6C0731A4093FAA3F3B3FA83F322FA0B
:1019B00003F303FB00F0094B5A6802F440324FF482
:1019C000403393FAA3F3B3FA83F322FA03F3013318
:1019D0005B00B0FBF3F070470248704700380240EC
:1019E0000024F40000127A0008B5FFF7B1FF084B9D
:1019F0009A6802F0F002F02393FAA3F3B3FA83F3A8
:101A000022FA03F3034AD35CD840034B186008BDA5
:101A100000380240383100080C00002008B5FFF7FC
:101A2000E3FF084B9A6802F4E0524FF4E05393FA54
:101A3000A3F3B3FA83F322FA03F3034AD35CD84047
:101A400008BD00BF0038024038310008FEE700BF83
:101A500008B5034800F056F80120FFF7F7FF00BF74
:101A60007831000808B50D4B1B6813B90C4A0B4BB5
:101A70001A600A4B1B68033020F003001844094A1F
:101A8000904206D900F0E6FE0C2303604FF0FF30D1
:101A900008BD024A1060184608BD00BF7C00002047
:101AA0001C01002000FC012001230360014B0B609E
:101AB000704700BF0400002008B503460A460348EB
:101AC000194600F005F8FFF7C3FF00BFCC3100084E
:101AD0000FB400B583B004AB53F8042B019308484E
:101AE000802100F0EFFE011E03DD054800F04AF8FA
:101AF0000146084603B05DF804EB04B0704700BF30
:101B00008400002010B5044600F0AAFE01462046DD
:101B100000F038F80248012100F034F810BD00BF91
:101B2000BC3200082DE9F04385B004468846435C8A
:101B30000BBB042528462146ABBE04461EE0102FF1
:101B400034BF3E461026002306E014F8015B04AAC9
:101B50001A4402F8105C0133B342F6D304AA1344CA
:101B6000002203F8102CE946042528464946ABBE5E
:101B70000546BF1B00E00F46002FE0D1404605B0F0
:101B8000BDE8F08308B5FFF7CDFF08BD08B500F04C
:101B900091F8024B024A9A6008BD00BF00ED00E0D8
:101BA00000000008F8B504460D4617461E462648B4
:101BB000FFF78EFF25482168FFF78AFF24486168F8
:101BC000FFF786FF2348A168FFF782FF2248E168FC
:101BD000FFF77EFF21482169FFF77AFF20486169FE
:101BE000FFF776FF1F48A169FFF772FF1E48E16902
:101BF000FFF76EFF1D48FFF76BFF1D482946FFF7F3
:101C000067FF1C4CE16A1C48FFF762FF216B1B4811
:101C1000FFF75EFFE16B1A48FFF75AFF15F0800FE0
:101C200003D018483946FFF753FF15F4004F03D08F
:101C300015483146FFF74CFF1448FFF749FF144899
:101C40000699FFF745FFF8BD24320008343200083A
:101C5000443200085432000864320008743200082C
:101C60008432000894320008A4320008B43200081C
:101C7000C032000800ED00E0D0320008E032000879
:101C8000F032000800330008103300082033000849
:101C90002833000883691A888A4207D10268033A08
:101CA000012A05D802338361012070470020704764
:101CB000002070470C4B1A6842F001021A600021A4
:101CC00099601A6822F0847222F480321A60074AFE
:101CD0005A601A6822F480221A60D9604FF00062BC
:101CE000034B9A60704700BF003802401030002458
:101CF00000ED00E0224B9B6803F00C03042B07D09F
:101D0000082B09D0002B2DD11E4A1F4B1A602CE046
:101D10001E4A1D4B1A6028E0194B59685B6803F096
:101D20003F0311F4800F09D0184AB2FBF3F3144AB1
:101D30005268C2F3881202FB03F208E0114AB2FBB8
:101D4000F3F30F4A5268C2F3881202FB03F20C4B02
:101D50005B68C3F3014301335B00B2FBF3F20A4B50
:101D60001A6002E0074A084B1A60054B9B68C3F3F0
:101D70000313074AD15C044B1A68CA401A607047C3
:101D8000003802400024F4000C00002000127A0009
:101D90006C33000810B584B00C46017900680092DD
:101DA0000123019342F2107202922246FFF75EF97C
:101DB00004B010BD10B584B00C46017900680092E3
:101DC000019342F21073029322460123FFF74EF96A
:101DD00004B010BD10B586B00C4606AB03F8012D5B
:101DE0000179006800930123019342F2107202927C
:101DF0002246FFF799F806B010BD00BF30B583B09A
:101E0000044600238DF80730437A002B7CD0037BF7
:101E1000032B08D0042B02D0022B0BD107E00323A5
:101E20008DF8073006E002238DF8073002E0012329
:101E30008DF80730A37A012B03D0B3B1022B07D062
:101E40000DE09DF8073043F008038DF807300CE0F3
:101E50009DF8073043F00C038DF8073005E09DF83E
:101E6000073043F004038DF80730E37A092B1BD8C1
:101E7000DFE803F0050C131A21282F363D449DF8A6
:101E8000073043F010038DF807303DE09DF8073030
:101E900043F020038DF8073036E09DF8073043F01B
:101EA00030038DF807302FE09DF8073043F04003F2
:101EB0008DF8073028E09DF8073043F050038DF887
:101EC000073021E09DF8073043F060038DF80730BC
:101ED0001AE09DF8073043F070038DF8073013E0E7
:101EE0009DF8073063F07F038DF807300CE09DF814
:101EF000073063F06F038DF8073005E09DF8073079
:101F000063F05F038DF807304F48FFF7E1FD20468F
:101F100010219DF80720FFF75DFF0546002840F0DF
:101F20008F804A48FFF7D4FD204613210DF10702A8
:101F3000FFF730FF0546002840F082804448FFF755
:101F4000C7FD9DF8073003F07F038DF80730227B33
:101F50001AB963F07F038DF80730204613219DF8EE
:101F60000720FFF737FF0546002869D13948FFF7FA
:101F7000AFFD00238DF80730A379002B55D0E3790E
:101F8000032B0FD8DFE803F00211060A02238DF8B5
:101F900007300AE004238DF8073006E008238DF8A7
:101FA000073002E00C238DF80730237A072B1AD86C
:101FB000DFE803F0040B121920272E359DF80730B7
:101FC00043F010038DF807302FE09DF8073043F001
:101FD00020038DF8073028E09DF8073043F03003E8
:101FE0008DF8073021E09DF8073043F040038DF86D
:101FF00007301AE09DF8073043F050038DF80730A2
:1020000013E09DF8073043F060038DF807300CE0D3
:102010009DF8073043F070038DF8073005E09DF818
:10202000073063F07F038DF80730204611219DF8BB
:102030000720FFF7CFFE054610B90748FFF748FD18
:10204000284603B030BD00BF7C3300088C33000845
:1020500080330008883300089033000808B50A462A
:1020600022210C23FFF7A6FE08BD00BF70B50D4668
:102070001446837A032B0AD8DFE803F0080204062B
:102080000F4E04E00F4E02E00F4E00E00F4EB5F988
:10209000000000F015FA314600F066FA2060B5F94C
:1020A000020000F00DFA314600F05EFA6060B5F90A
:1020B000040000F005FA314600F056FAA06070BD49
:1020C00023DBF93D23DB793E23DBF93E23DB793D3E
:1020D00070B50D461446C379042B0DD8DFE803F024
:1020E0000B0305070900114E06E0114E04E0114EE6
:1020F00002E0114E00E0114EB5F9000000F0E0F9E9
:10210000314600F031FA2060B5F9020000F0D8F94C
:10211000314600F029FA6060B5F9040000F0D0F90A
:10212000314600F021FAA06070BD00BF00000C41F4
:1021300000008C4100000C4200008C4200008C40EA
:10214000034B1B681BB1024B1A68013A1A607047B7
:102150001401002008B5FEF789F9FFF7F1FF08BD6B
:1021600030B595B000240194214B1A6C42F0805296
:102170001A641B6C03F080530193019B02941D4B66
:102180001A6842F480421A601B6803F48043029389
:10219000029B0123089309934FF480030F930823B4
:1021A00010934FF4A87311930225129507231393EC
:1021B0000E9508A8FFF790F80F2303930495059454
:1021C0004FF4A05306934FF48053079303A80521BF
:1021D000FFF7A8FAFFF708FC074BA3FB00208009D4
:1021E000FEF7B2F90420FEF7C5F915B030BD00BF07
:1021F0000038024000700040D34D621008B5FEF771
:102200001BF9FFF7ADFFFFF775FD08BD2DE9F043A2
:10221000A3B04FF480431593324B129300241694CD
:10222000139418941994FF231493F82317932E4BA7
:10223000119310238DF8823011AD2846FEF77EFDF4
:10224000D6238DF838300D9501238DF83D308DF86B
:10225000404003228DF83E208DF83F208DF841400C
:102260008DF83A3004218DF83B108DF83C208DF824
:1022700039300DA8FFF7C2FD0DA80AA9FFF7EEFE41
:102280000DA80DF12E0107AAFFF7F0FE0DA80AA96F
:1022900004AAFFF71DFF089D099CDDF81090DDF8EA
:1022A0001480069F079800F0AFFA0646284600F013
:1022B000ABFA0546204600F0A7FA0446484600F06F
:1022C000A3FA0090404600F09FFA0190384600F0D3
:1022D0009BFA0290054831462A462346FFF7F8FB51
:1022E000CAE700BFA0860100005400409C330008EC
:1022F00000B589B000220192114B196C41F4001114
:102300001964196C01F40011019101990292196B81
:1023100041F0020119631B6B03F002030293029B5D
:102320000423079302230493C0210391059206938B
:10233000044803A9FEF73AF909B05DF804FB00BFB1
:102340000038024000040240704700BF80F00040A7
:1023500002E000BF81F0004142001FBF5FEA41037D
:1023600092EA030F7FEA226C7FEA236C6AD04FEA7D
:102370001262D2EB1363C1BFD218414048404140C2
:10238000B8BF5B42192B88BF704710F0004F40F474
:10239000000020F07F4018BF404211F0004F41F490
:1023A000000121F07F4118BF494292EA030F3FD05C
:1023B000A2F1010241FA03FC10EB0C00C3F120036F
:1023C00001FA03F100F0004302D5494260EB4000FE
:1023D000B0F5000F13D3B0F1807F06D340084FEA69
:1023E000310102F10102FE2A51D2B1F1004F40EB5E
:1023F000C25008BF20F0010040EA030070474900C6
:1024000040EB000010F4000FA2F10102EDD1B0FA90
:1024100080FCACF1080CB2EB0C0200FA0CF0AABF85
:1024200000EBC25052421843BCBFD0401843704723
:1024300092F0000F81F4000106BF80F40000013229
:10244000013BB5E74FEA41037FEA226C18BF7FEA00
:10245000236C21D092EA030F04D092F0000F08BF42
:102460000846704790EA010F1CBF0020704712F029
:102470007F4F04D1400028BF40F00040704712F168
:1024800000723CBF00F50000704700F0004343F0CD
:10249000FE4040F4000070477FEA226216BF084603
:1024A0007FEA23630146420206BF5FEA412390EAC6
:1024B000010F40F4800070474FF0000304E000BFBC
:1024C00010F0004348BF40425FEA000C08BF70476D
:1024D00043F0964301464FF000001CE050EA010231
:1024E00008BF70474FF000030AE000BF50EA010246
:1024F00008BF704711F0004302D5404261EB410133
:102500005FEA010C02BF84460146002043F0B64357
:1025100008BFA3F18053A3F50003BCFA8CF2083A7C
:10252000A3EBC25310DB01FA02FC634400FA02FC85
:10253000C2F12002BCF1004F20FA02F243EB02008C
:1025400008BF20F00100704702F1200201FA02FCEE
:10255000C2F1200250EA4C0021FA02F243EB0200E1
:1025600008BF20EADC7070474FF0FF0C1CEAD05225
:102570001EBF1CEAD15392EA0C0F93EA0C0F6FD0E6
:102580001A4480EA010C400218BF5FEA41211ED0C4
:102590004FF0006343EA501043EA5111A0FB0131B0
:1025A0000CF00040B1F5000F3EBF490041EAD37185
:1025B0005B0040EA010062F17F02FD2A1DD8B3F101
:1025C000004F40EBC25008BF20F00100704790F070
:1025D000000F0CF0004C08BF49024CEA502040EAC2
:1025E00051207F3AC2BFD2F1FF0340EAC250704788
:1025F00040F400004FF00003013A5DDC12F1190FC6
:10260000DCBF00F000407047C2F10002410021FA37
:1026100002F1C2F1200200FA02FC5FEA310040F14F
:10262000000053EA4C0308BF20EADC70704792F0C8
:10263000000F00F0004C02BF400010F4000F013A00
:10264000F9D040EA0C0093F0000F01F0004C02BFFB
:10265000490011F4000F013BF9D041EA0C018FE76A
:102660000CEAD15392EA0C0F18BF93EA0C0F0AD070
:1026700030F0004C18BF31F0004CD8D180EA010096
:1026800000F00040704790F0000F17BF90F0004F2F
:10269000084691F0000F91F0004F14D092EA0C0F11
:1026A00001D142020FD193EA0C0F03D14B0218BFA4
:1026B000084608D180EA010000F0004040F0FE40EA
:1026C00040F40000704740F0FE4040F44000704786
:1026D0004FF0FF0C1CEAD0521EBF1CEAD15392EA05
:1026E0000C0F93EA0C0F69D0A2EB030280EA010CF5
:1026F00049024FEA402037D04FF0805343EA11118E
:1027000043EA10130CF000408B4238BF5B0042F1EB
:102710007D024FF4000C8B4224BF5B1A40EA0C0090
:10272000B3EB510F24BFA3EB510340EA5C00B3EBC2
:10273000910F24BFA3EB910340EA9C00B3EBD10FB0
:1027400024BFA3EBD10340EADC001B0118BF5FEA02
:102750001C1CE0D1FD2A3FF650AF8B4240EBC2502B
:1027600008BF20F0010070470CF0004C4CEA5020EC
:102770007F32C2BFD2F1FF0340EAC250704740F43B
:1027800000004FF00003013A37E792F0000F00F02D
:10279000004C02BF400010F4000F013AF9D040EAAB
:1027A0000C0093F0000F01F0004C02BF490011F43F
:1027B000000F013BF9D041EA0C0195E70CEAD15337
:1027C00092EA0C0F08D142027FF47DAF93EA0C0F1E
:1027D0007FF470AF084676E793EA0C0F04D14B0202
:1027E0003FF44CAF08466EE730F0004C18BF31F0B4
:1027F000004CCAD130F000427FF45CAF31F00043AE
:102800007FF43CAF5FE700BF4FEA4002B2F1FE4FFA
:102810000FD34FF09E03B3EB12620DD94FEA0023A2
:1028200043F0004310F0004F23FA02F018BF40427B
:1028300070474FF00000704712F1610F01D1420262
:1028400005D110F0004008BF6FF0004070474FF016
:1028500000007047014B1868704700BF70000020EF
:10286000034613F8012B002AFBD1181A01387047D0
:1028700030B5141E9BB0054604DA8B2303604FF07D
:10288000FF301CE04FF4027200910491ADF80C206F
:1028900014BF04F1FF3121464FF6FF7202910591FA
:1028A000ADF80E2069461A461E9B00F077F8431CCF
:1028B000BCBF8B232B6014B1009B00221A701BB08D
:1028C00030BD000073B50093054B06460D46144617
:1028D000186831462A462346FFF7CAFF02B070BD8A
:1028E000700000202DE9F0478D68AB4281460C4610
:1028F00092461F4643D38B8913F4906F3DD02668D0
:102900000969C1EB06086669022206EB460696FBDA
:10291000F2F608F101023A44964238BF16465B05CA
:102920000FD5314600F028FB054698B12169424693
:1029300000F0B9FAA38923F4906343F08003A381E4
:1029400013E0324600F06EFB054670B94846216937
:1029500000F0CEFA0C23C9F80030A38943F04003FD
:10296000A3814FF0FF30BDE8F087256166614544E3
:10297000C8EB06062560A6603D46AF4200D23D4644
:102980002A462068514600F097FAA3685B1BA360B3
:1029900023681D4425600020BDE8F0872DE9F04341
:1029A0009DB0074603938B891C060D4616460CD531
:1029B0000B6953B9402100F0DFFA2860286110B993
:1029C0000C233B60C8E040236B6100230993202364
:1029D0008DF8293030238DF82A3033461C4613F801
:1029E000012B1AB9B4EB06090FD002E0252AF5D164
:1029F000F8E73846294632464B46FFF773FF013069
:102A000000F0A580099B4B4409932378002B00F02C
:102A10009E8000234FF0FF320493079305920693A4
:102A20008DF853301A9304F101094C464D4E21782C
:102A30003046052200F028FA09F10109049B28B16B
:102A4000861B0120B04003430493EEE7D90644BF40
:102A500020228DF853201A0744BF2B228DF85320D3
:102A600022782A2A02D0079B21460EE0039A111DE4
:102A700012680391002A01DB079204E0524243F0FE
:102A800002030792049301340AE00C4601312278D4
:102A9000303A092A03D80A2000FB0323F5E70793FD
:102AA00023782E2B1AD163782A2B0AD1039B1A1D67
:102AB0001B680392002B04F10204B8BF4FF0FF33F0
:102AC0000BE0611C00230C4601312278303A092AC0
:102AD00003D80A2000FB0323F5E70593224E217853
:102AE0003046032200F0D0F930B1861B049B402011
:102AF000B04003430493013421781C488DF828101A
:102B00000622661C00F0C0F988B1194B33B9039B4B
:102B1000073323F007030833039314E003AB009358
:102B2000384604A92A46134BAFF3008007E003ABF5
:102B30000093384604A92A460E4B00F08FF8B0F1F6
:102B4000FF3F804603D0099B4344099345E7AB8987
:102B50005B0601D4099801E04FF0FF301DB0BDE8DD
:102B6000F08300BFB6330008BC330008C033000850
:102B700000000000E52800082DE9F84315461F462F
:102B80008A680B69DDF820809A42A8BF13462B6043
:102B900091F8432006460C460AB101332B602368A6
:102BA000990602D52B6802332B60236813F00609BF
:102BB0001DD094F843302268003318BF01239206D9
:102BC0001FD5E1185A1C302081F84300224494F8A4
:102BD000451082F84310023313E03046394604F1C1
:102BE00019020123C047013007D009F10109E26849
:102BF0002B68D31A9945F0DBDBE74FF0FF30BDE8D7
:102C0000F8833046394604F14302C0470130F4D01E
:102C100023682A68E16803F00603042B08BFC2EBAF
:102C200001052369A2680CBF25EAE57500259A42D3
:102C3000C4BFC3EB0203ED184FF00009A9450ADA3F
:102C40003046394604F11A020123C0470130D4D07E
:102C500009F10109F2E70020BDE8F8832DE9FF47FB
:102C60000E7E0C9D6E2E80460C4691469A4601F1D2
:102C7000430000F0A58011D8632E22D009D8002E81
:102C800000F0B280582E40F0C28081F845607C4A46
:102C90004FE0642E1ED0692E1CD0B8E0732E00F0D9
:102CA000A78009D86F2E2BD0702E40F0B0800B6813
:102CB00043F020030B6038E0752E21D0782E34D0FD
:102CC000A5E02B681A1D1B682A6001F1420781F8F4
:102CD0004230A0E022682B6812F0800F03D01A1D4A
:102CE0002A601D6805E05706F9D51A1D2A60B3F958
:102CF0000050002D39DA2D236D4284F8433034E042
:102D000022682B6812F0800F03D01A1D2A601D68FC
:102D100004E05606F9D51A1D2A601D88237E584AFC
:102D20006F2B14BF0A2308231BE07823554A84F82D
:102D300045302368296813F0800F01F104062E60E6
:102D400001D00D6802E05D06FBD50D88D90744BFB0
:102D500043F0200323601DB9236823F02003236080
:102D60001023002184F8431001E0454A0A236668D5
:102D7000A660002E03DB216821F00401216005B963
:102D80006EB104F14201B5FBF3F603FB16550F4695
:102D9000555D01F801593546002EF4D100E0074693
:102DA000082B0AD12368DA0707D5626823699A429B
:102DB00003DC302307F8013C013FC01B20612FE0FA
:102DC00009682B68626911F0800F03D0191D296012
:102DD0001B6808E011F0400F03F1040129601B6833
:102DE00001D01A8000E01A6000232361074617E033
:102DF0002B681A1D2A601F683846FFF731FD63688B
:102E00002061984288BF23612369636005E004F173
:102E1000420784F8426001232361002384F8433091
:102E2000CDF800A04046214603AA4B46FFF7A4FE7A
:102E3000013002D14FF0FF301FE0404649463A468C
:102E40002369D0470130F5D023689B0705D4E0689B
:102E5000039B9842B8BF18460FE00025E268039B29
:102E6000D31A9D42F3DA4046494604F11902012380
:102E7000D0470130DED00135F0E704B0BDE8F0877F
:102E8000C7330008D833000810B5C9B202449042D5
:102E9000034606D01C788C4200F10100F7D1184699
:102EA00010BD002010BD10B50023934203D0CC5CB0
:102EB000C4540133F9E710BD814270B501D300233A
:102EC0000EE08C18A042FAD28518134613F1FF3396
:102ED00005D3514266182944F65CCE54F6E770BD1E
:102EE000934203D0CC5CC4540133F9E770BD0000B9
:102EF00030B500293CD051F8042C0B1F1D49002A85
:102F0000B8BF9B180A680C4612B95A600B6030BDF6
:102F100093420DD219685818904203D15A5811445F
:102F2000426819605A60236030BD994203D80A464E
:102F300051680029F9D1146815199D420AD11B68FE
:102F40002344D0188842136012D1086803441360E8
:102F50004B680CE002D90C23036030BD18681C18C4
:102F60008C4203D10C684968204418605960536052
:102F700030BD00BF0801002070B5CD1C25F0030551
:102F800008350C2D38BF0C25002D064603DA0C231E
:102F90003360002070BD8D42F9D3204B1C68184669
:102FA0002146A1B10B685B1B0ED40B2B03D90B6020
:102FB000CC18CD501FE08C4202D1626802601AE04A
:102FC0004B6863600C4616E00C464968E9E7144C10
:102FD00023681BB9304600F04BF820602946304684
:102FE00000F046F8431C0146D1D0C41C24F0030471
:102FF00084420AD1256004F10B00231D20F0070054
:10300000C31A09D05A42E25070BD3046611A00F02E
:103010002FF80130EED1BAE770BD00BF08010020E3
:1030200004010020F8B5064614460D4621B91146A4
:10303000BDE8F840FFF7A0BF1AB9FFF759FF2046D7
:10304000F8BD00F025F8A0420ED230462146FFF729
:1030500093FF074650B129462246FFF724FF30462A
:103060002946FFF745FF01E02846F8BD3846F8BD80
:1030700038B5064C0023054608462360FEF7F2FCEF
:10308000431C02D1236803B12B6038BD100100201E
:1030900051F8040C002802DA04390B58184404389B
:1030A000704700002E2E2F73797374656D2F737225
:1030B000632F73746D333266342D68616C2F7374B3
:1030C0006D3332663478785F68616C5F636F7274F9
:1030D00065782E63000000002E2E2F7379737465BF
:1030E0006D2F7372632F73746D333266342D686184
:1030F0006C2F73746D3332663478785F68616C5FFF
:103100006770696F2E6300002E2E2F7379737465BC
:103110006D2F7372632F73746D333266342D686153
:103120006C2F73746D3332663478785F68616C5FCE
:103130006932632E630000000000000001020304F6
:1031400001020304060708092E2E2F737973746594
:103150006D2F7372632F73746D333266342D686113
:103160006C2F73746D3332663478785F68616C5F8E
:103170007263632E6300000061626F727428292CF1
:103180002065786974696E672E2E2E002C20667576
:103190006E6374696F6E3A2000000000617373659E
:1031A0007274696F6E2022257322206661696C65D6
:1031B000643A2066696C6520222573222C206C6994
:1031C0006E65202564257325730A0000617373659D
:1031D00072745F706172616D2829206661696C6527
:1031E000643A2066696C6520222573222C206C6964
:1031F0006E652025640A00006D61696E2861726742
:10320000633D25642C20617267763D5B0000000001
:103210002C20000022257322000000005D293B0ABB
:1032200000000000537461636B206672616D653A43
:103230000A000000205230203D2020253038580A56
:1032400000000000205231203D2020253038580A4F
:1032500000000000205232203D2020253038580A3E
:1032600000000000205233203D2020253038580A2D
:103270000000000020523132203D20253038580A0D
:1032800000000000204C52203D2020253038580AF4
:1032900000000000205043203D2020253038580AEF
:1032A0000000000020505352203D20253038580A9D
:1032B000000000004653522F4641523A0A000000D7
:1032C0002043465352203D2020253038580A000024
:1032D0002048465352203D2020253038580A00000F
:1032E0002044465352203D2020253038580A000003
:1032F0002041465352203D2020253038580A0000F6
:10330000204D4D464152203D20253038580A0000BE
:103310002042464152203D2020253038580A0000E6
:103320004D6973630A000000204C522F4558435FDB
:1033300052455455524E3D20253038580A00000061
:103340005B486172644661756C745D0A0000000040
:103350005B4275734661756C745D0A005B55736101
:1033600067654661756C745D0A000000000000002E
:103370000000000001020304060708094C0A0000CF
:103380004C414C410A0000004C414C414C410A0068
:103390004C414C414C414D0A0000000025642C205A
:1033A00025642C2025642C2025642C2025642C20C9
:1033B00025640A004300232D302B2000686C4C004C
:1033C0006566674546470030313233343536373825
:1033D0003941424344454600303132333435363783
:0933E0003839616263646566001E
:1033EC007856341280000020000000000024F40005
:1033FC0000000000000000000000000000000000C1
:10340C0000000000000000000000000000000000B0
:10341C00B4330008000000000000000000000000B1
:10342C000000000000000000000000000000000090
:10343C000000000000000000000000000000000080
:10344C000000000000000000000000000000000070
:08345C001000002032547698A4
:040000050800018965
:00000001FF
